:020000040800F2
:10000000D0860020C10200080B1C000879140008EB
:10001000091C00084D0A000815280008000000000F
:10002000000000000000000000000000290200089D
:10003000C10C0008000000006D020008A1200008AB
:10004000DB020008DB020008DB020008DB0200081C
:10005000DB020008DB020008DB020008DB0200080C
:10006000DB020008DB020008DB020008DB020008FC
:10007000DB020008DB020008DB020008DB020008EC
:10008000DB020008DB020008DB020008DB020008DC
:10009000DB020008DB020008DB020008DB020008CC
:1000A000DB020008DB020008DB020008DB020008BC
:1000B000DB02000805210008DB020008DB02000863
:1000C000DB020008DB020008DB020008DB0200089C
:1000D000DB020008C922000855230008E1230008BC
:1000E000DB020008DB020008DB020008DB0200087C
:1000F000DB020008DB020008DB020008DB0200086C
:10010000DB020008DB02000841210008DB020008D6
:10011000BD2100086D220008DB020008DB02000898
:10012000DB020008DB020008DB020008DB0200083B
:1001300000F002F800F068F80AA090E8000C824491
:100140008344AAF10107DA4501D100F05DF8AFF26E
:10015000090EBAE80F0013F0010F18BFFB1A43F0A5
:1001600001031847BC4C0000DC4C00000A444FF06F
:10017000000C10F8013B13F0070408BF10F8014B06
:100180001D1108BF10F8015B641E05D010F8016B4B
:10019000641E01F8016BF9D113F0080F1EBF10F8AF
:1001A000014BAD1C0C1B09D16D1E58BF01F801CBD2
:1001B000FAD505E014F8016B01F8016B6D1EF9D555
:1001C0009142D6D37047000000230024002500266A
:1001D000103A28BF78C1FBD8520728BF30C148BFAA
:1001E0000B607047642900F0FD80782900F03681AB
:1001F000632900F04683732900F04B830020704789
:100200001FB51FBD10B510BD00F090FB1146FFF7E4
:10021000F7FF02F0C1FD00F0AEFB03B4FFF7F2FF01
:1002200003BC02F052FD0000224B19680868B0E8D8
:10023000F00F80F30988BFF36F8F4FF0000080F359
:1002400011884EF00D0E704700000000064800684F
:10025000006880F3088862B661B6BFF34F8FBFF3C2
:100260006F8F00DF00BF00BF08ED00E0EFF30980F3
:10027000BFF36F8F0F4B1A6820E9F00F106008B5BD
:100280004FF0500080F31188BFF34F8FBFF36F8F93
:1002900003F022FF4FF0000080F31188BDE8084012
:1002A00019680868B0E8F00F80F30988BFF36F8F12
:1002B000704700BF90000020EFF3058070470000FA
:1002C0000948804709480047FEE7FEE7FEE7FEE7EA
:1002D000FEE7FEE7FEE7FEE7FEE7FEE70448054926
:1002E000054A064B70470000B520000831010008A0
:1002F000D0800020D0860020D0820020D082002034
:10030000704700000FB4044910B503AA029800F02A
:10031000C5FA10BC5DF814FB780000200FB41CB5C2
:10032000074B06AA7B4469460090059800F087FABF
:100330000020694600F096FA1CBC5DF814FB000032
:100340003D05000070B5044685690068C10601D509
:10035000302600E02026C00707D070BDD4E9012177
:1003600030469047206A401C20626D1EF6D570BD55
:1003700070B5044685690078C00707D170BDD4E91F
:10038000012120209047206A401C20626D1EF6D576
:1003900070BD70B50C460546012A05D02878800648
:1003A00000D5EA69002302E0012305E05B1C9342CB
:1003B00002D2E05C0028F9D1A869E618C01AA86149
:1003C000286A184428622846FFF7BCFF04E0D5E9F4
:1003D000012114F8010B9047B442F8D32846FFF7E7
:1003E000C7FF70BD2DE9F04106460024106875294D
:1003F000314616A510D0AFF30080002802DA404243
:1004000013A507E031688A0701D512A502E0490764
:1004100004D511A5012401E0AFF3008000210A22D8
:1004200006F1240709E0B0FBF2FCB0FBF2F302FB9B
:100430001C00303078541846491C0028F3D123465C
:100440002A463046BDE8F04100F09BB900000000AC
:100450002D0000002B0000002000000070B50446B5
:100460000D4621461068AFF300802188090502D5AA
:100470000F4A7A4402E00E4A7A440E32002104F117
:10048000240305E000F00F060009965D5E54491C48
:100490000028F7D120780023000704D5702D02D062
:1004A00009B1022311322046BDE8704000F069B95D
:1004B0006E4900002DE9F05F894604464FF0000ABE
:1004C000DFF824B1FB44C0F820A02046E16888474B
:1004D00000287DD0252806D0D4E901219047206A44
:1004E000401C2062F1E700255F462046E16888470E
:1004F0002028064607DB312E05D2B81910F8200C4B
:1005000008B10543F1E7A80701D525F00405C4F8B3
:100510001CA00027C4F818A02A2E09D0304602F0EB
:10052000CDFB38B304EB8708303EC8F8186019E0FB
:1005300059F8041B204604EB87029161E168884763
:10054000012F064618D1E069002820DA25F02005A1
:100550001DE0D8F8180000EB800006EB40003038B2
:10056000C8F818002046E1688847064602F0A6FB56
:100570000028EED1012F0AD02E2E08D12046E168A6
:1005800088477F1C0646022F45F02005C4DBA06982
:10059000002803DA404245F00105A061E80701D0D8
:1005A00025F01005A6B1A6F14100192802D8203681
:1005B00045F400654A463146204625604D46FFF722
:1005C00011FE60B1012807D0ED1D25F0070000E005
:1005D00007E000F1080978E705F1040975E73046FE
:1005E0007AE7206ABDE8F09F4449000030B505462F
:1005F0000B462A4613F8014B12F8010B08B1A04232
:10060000F8D01CB1002802D06D1CF1E7284630BD9F
:1006100010B5431C02E010F8011B71B18107FAD13B
:100620004FF0013202C88C1A8C4314EAC211F9D07F
:10063000C01A0A0603D0C01E10BDC01A10BD0A049D
:1006400001D0801E10BD0902FCD0401E10BD032A3F
:1006500040F2308010F0030C00F0158011F8013BDF
:10066000BCF1020F624498BF11F801CB00F8013BC6
:1006700038BF11F8013BA2F1040298BF00F801CB8A
:1006800038BF00F8013B11F0030300F01981083A6C
:10069000C0F0088051F8043B083A51F804CBA0E8B8
:1006A0000810F5E7121D5CBF51F8043B40F8043B0D
:1006B000AFF30080D20724BF11F8013B11F801CB42
:1006C00048BF11F8012B24BF00F8013B00F801CB13
:1006D00048BF00F8012B704702F0FF0343EA0322F2
:1006E00042EA024200F002B84FF000020429C0F0D2
:1006F000128010F0030C00F01B80CCF1040CBCF154
:10070000020F18BF00F8012BA8BF20F8022BA1EBA5
:100710000C0100F00DB85FEAC17C24BF00F8012B8A
:1007200000F8012B48BF00F8012B70474FF0000282
:1007300000B5134694469646203922BFA0E80C50D7
:10074000A0E80C50B1F12001BFF4F7AF090728BFB2
:10075000A0E80C5048BF0CC05DF804EB890028BF2E
:1007600040F8042B08BF704748BF20F8022B11F057
:10077000804F18BF00F8012B7047704770477047D3
:1007800070472DE9F0470D4699469246044600F120
:1007900024080168880604D5E06921F01001216071
:1007A00000E00120A84201DD471B00E00027A1690D
:1007B0007A1902EB0900081AA0612078C00602D459
:1007C0002046FFF7BFFD002608E0D4E901211AF812
:1007D00006009047206A401C761C20624E45F4DBE0
:1007E0002078C0060AD52046FFF7ACFD06E0D4E924
:1007F000012130209047206A401C2062381EA7F15A
:100800000107F4DC07E0D4E9012118F8050090475E
:10081000206A401C2062281EA5F10105F3DC204659
:10082000FFF7A6FD2078000602D50220BDE8F0877C
:100830000120FBE701694A1C02610878704700B596
:100840008FB0CDE901310021059105497944CDE909
:10085000031011466846FFF72DFE0FB000BD0000E3
:10086000E5FFFFFF0A6802F8010B0A60704710B548
:10087000436913B1AFF3008001E0FFF78AFD012067
:1008800010BD127800F124010A7000224A70012282
:10089000EDE711684FF0FF32E9E70000074B70B554
:1008A0000D467B44FFF7CBFF0446284600F03AF89C
:1008B00010B14FF0FF3070BD204670BDDB2400004A
:1008C00010B5203AC0F00B80B1E81850203AA0E8EB
:1008D0001850B1E81850A0E81850BFF4F5AF5FEA1F
:1008E000027C24BFB1E81850A0E8185044BF18C9D2
:1008F00018C0BDE810405FEA827C24BF51F8043B79
:1009000040F8043B08BF7047D20728BF31F8023BCC
:1009100048BF11F8012B28BF20F8023B48BF00F860
:10092000012B7047007B00F080007047754600F097
:1009300029F8AE4605006946534620F00700854673
:1009400018B020B5FFF7CAFCBDE820404FF0000604
:100950004FF000074FF000084FF0000B21F00701A7
:10096000AC46ACE8C009ACE8C009ACE8C009ACE8EA
:10097000C0098D4670470446AFF300802046FFF75C
:100980004CFC0000004870476C80002010B501212D
:1009900086B0080501F082F90121302001F096F9B6
:1009A0004FF48050ADF8100018208DF8130003208C
:1009B0008DF8120004A9224800F07DFC0420ADF857
:1009C00010008DF8130004A91E4800F074FC4FF4C9
:1009D000165000900020ADF80400ADF80600ADF808
:1009E0000800ADF80C000C20174CADF80A00694661
:1009F000204601F0D5FD35218DF8141005208DF825
:100A0000150001218DF816108DF8171005A801F0BA
:100A1000FDF8012240F22551204601F0A9FD0122F6
:100A200040F22441204601F0A3FD0121204601F0BF
:100A30002CFD4021204601F01FFD06B010BD000036
:100A4000001001400014014000500040FEE700008B
:100A500070B500252C4600F05DFB10B1641C032C22
:100A6000F9DB032C00D1251F00241CA11EA000F0DF
:100A7000EDF910B1641C032CF7DB032C00D1651FCA
:100A8000002440F25B7631461BA000F01BF910B148
:100A9000641C032CF7DB032C00D1A51F00241AA033
:100AA00000F0DEFA10B1641C032CF8DB032C00D13B
:100AB000E51F281D052809D2DFE800F00E0C0A0505
:100AC000030013A000E017A0FFF71CFCE8B270BD04
:100AD0001AA0F9E71DA0F7E720A0F5E73838383865
:100AE0003838383800000000405275696A69652D51
:100AF00031323034000000003137322E31362E349E
:100B0000302E3336000000007365744D3300000052
:100B1000CBF9D3D0C1ACBDD3BEF9D5FDB3A3212150
:100B2000210D0A00C9E8D6C3CEAAD5BEB5E3C4A339
:100B3000CABDCAA7B0DC210D0A000000C1ACBDD3FC
:100B400077696669CAA7B0DC210D0A00C1ACBDD3C4
:100B50004950CAA7B0DC210D0A000000C1ACBDD3CA
:100B60006D717474CAA7B0DC210D0A00C10002D5F2
:100B70000249086070470249486070470404024017
:100B8000000002400029016802D041F0010102E0AA
:100B90004FF6FE72114001607047000001684FF689
:100BA000FE72114001600021016041608160C160FE
:100BB0003149314A0839904203D1486840F00F006A
:100BC00006E02D4A1432904204D1486840F0F0000B
:100BD00048607047284A2832904203D1486840F460
:100BE0007060F5E7244A3C32904203D1486840F4F3
:100BF0007040EDE7204A5032904203D1486840F4FB
:100C00007020E5E71C4A6432904203D1486840F402
:100C10007000DDE7184A7832904203D1486840F00E
:100C20007060D5E7154A111F904203D1086840F063
:100C30000F0006E0114A1432904204D1086840F0D7
:100C4000F000086070470D4A2832904203D10868CE
:100C500040F47060F5E7094A3C32904203D10868DD
:100C600040F47040EDE7054A50329042EAD10868FE
:100C700040F47020E5E7000008000240080402404C
:100C8000406880B2704730B5026847F6F0739A4307
:100C90000C6A8B682343D1E904452C4323438C69B8
:100CA0002343CC6923434C6A23438C6A2343134375
:100CB0000360CA6842600A6882604968C16030BDEA
:100CC000704700002DE9F043884681464FF4807458
:100CD000C1B021463948FFF707FD21466846FFF7B6
:100CE00025FD37A16846FFF719FB6846FFF790FC22
:100CF000C1B2684601F062F900233B4D5E1E3246E8
:100D00001946286803F0F4FA40F2DC57384602F03E
:100D100001F822462949354800F09FFA274934A0B6
:100D2000FFF7F0FA38A12548FFF760FC00282146BC
:100D30002ED02248FFF7D8FC21466846FFF7F6FC84
:100D400043464A4631A16846FFF7E8FA6846FFF78E
:100D50005FFCC1B2684601F031F900233246194602
:100D6000286803F0C5FA384601F0D4FF224613493B
:100D70001E4800F072FA11492AA0FFF7C3FA22A117
:100D80000E48FFF733FCB8B1002041B0BDE8F08356
:100D90006846FFF7CBFC21460848FFF7A5FC27A1D2
:100DA0006846FFF7BBFA6846FFF732FCC1B26846F7
:100DB00001F004F90420E8E70320E6E76673002069
:100DC00041542B4D515454555345524346473D30A1
:100DD0002C312C224D33222C22222C22222C302C5E
:100DE000302C222200000000340000207403002078
:100DF00044656275672D436F6E6E6563742D555340
:100E000045523A20257300004F4B000041542B4DB2
:100E1000515454434F4E4E3D302C222573222C25E5
:100E2000642C300044656275672D436F6E6E656398
:100E3000742D49503A2025730000000041542B4D79
:100E4000515454434C45414E3D30000070B50D4661
:100E500006464FF48074C0B021461948FFF744FCA1
:100E600021466846FFF762FC2B46324615A16846CC
:100E7000FFF754FA6846FFF7CBFBC1B2684601F0B2
:100E80009DF8002314485D1E2A461946006803F0A9
:100E90002FFA4FF47A7001F03DFF224608490F48BF
:100EA00000F0DBF906490EA0FFF72CFA12A1044866
:100EB000FFF79CFB10B1002040B070BD2846FBE757
:100EC0006673002041542B43574A41503D222573FD
:100ED000222C2225732200003400002074030020FD
:100EE00044656275672D436F6E6E6563742D574957
:100EF00046493A25730000004F4B00002DE9F047AA
:100F0000C0B0894682464FF4807415462146684633
:100F1000FFF70CFC21463B48FFF7E6FB2B464A4611
:100F200039A16846FFF7FAF900233F4E5D1E2A46B5
:100F30001946306803F0DCF96846FFF769FBC1B277
:100F4000684601F03BF8DFF8E48000232A461946A2
:100F5000D8F8000003F0CCF9642001F0DBFE224653
:100F60002849334800F079F900231A4619463068B9
:100F700003F0D4FA2FA12348FFF738FB2E4F80B39C
:100F800021462048FFF7B0FB00232A461946306867
:100F900003F0AEF94946504601F010F800232A4606
:100FA0001946D8F8000003F0A3F9642001F0B2FE5E
:100FB000224614491E4800F050F900231A461946EB
:100FC000306803F0ABFA1BA10E48FFF70FFB90B19E
:100FD00051461AA0FFF796F90020387040B0BDE8DE
:100FE000F087FFE7074919A0FFF78CF93878401C14
:100FF00038702846F2E73878401C38706FF00100EE
:10100000ECE700006673002041542B4D51545450BE
:1010100055425241573D302C224D33222C25642C11
:1010200025642C300000000028000020380000203B
:10103000740300204F4B0000340100204D515454E4
:101040005F5075623A2025730D0A00004D515454CB
:101050005F507562204661696C3A25730D0A000085
:1010600030B505464FF48074C1B021461848FFF7EB
:101070003BFB21466846FFF759FB2A4615A1684607
:10108000FFF74CF96846FFF7C3FAC1B2684600F0B3
:1010900095FF154800235A1E1946006803F028F9E9
:1010A000642001F037FE22460949104800F0D5F8C7
:1010B00007490FA0FFF726F915A10548FFF796FA93
:1010C00010B1002041B030BD6FF00300FAE700001E
:1010D0006673002041542B4D5154545355423D30BA
:1010E0002C222573222C31003400002074030020B0
:1010F00044656275672D436F6E6E6563742D4D5147
:1011000054545F5375623A20222573220000000078
:101110004F4B000010B54FF4807421460F48FFF785
:10112000E3FA0B210EA000F049FF104800235A1EDD
:101130001946006803F0DCF80A2001F0EBFD2246B6
:1011400006490B4800F089F80AA10448FFF74EFA57
:1011500008B1002010BD032010BD00006673002000
:1011600041542B43574D4F44453D3100340000203E
:10117000740300204F4B000070B505464FF4302635
:10118000304600F059F8042811D1094C206940F08C
:10119000020020616561206940F040002061304616
:1011A00000F04AF8216941F6FD721140216170BDDD
:1011B0000020024008490420CA68D20701D001205B
:1011C0007047CA68520701D502207047C968C9062E
:1011D000FBD503207047000000200240024801694F
:1011E00041F080010161704700200240F0B50646E1
:1011F0004FF400570D46384600F01EF804280CD175
:10120000064C206940F0010020613580384600F02E
:1012100013F82169BA1E11402161F0BD002002407F
:101220000348024941600349416070472301674513
:1012300000200240AB89EFCD00B50346FFF7BAFFAF
:1012400002E0FFF7B7FF5B1E012803D0002B00D19F
:10125000052000BD002BF4D1FAE770B5848803891E
:10126000C5881C44641B94FBF3F503FB15439CB237
:10127000944200D9144600230BE0C28805891A4421
:10128000B2FBF5F605FB16220568AA5CCA545B1C86
:101290009BB2A342F1D3C18802892144B1FBF2F38E
:1012A00002FB1311C180204670BD016000218180C6
:1012B000C18002817047F0B5CC78002204F00F03A2
:1012C000E40601D58C7823430C784FF00F0C14F012
:1012D000FF0F4FF0010E1BD005680E880EFA02F4C6
:1012E0002640A64210D196000CFA06F725EA070719
:1012F00003FA06F5CE783D43282E02D0482E02D0C0
:1013000002E0446100E00461521C082AE5D3056054
:101310000A88FF2A1CD94468002202F108060EFA46
:1013200006F50E882E40AE420ED196000CFA06F756
:10133000BC4303FA06F7CE783C43282E00D1456122
:10134000CE78482E00D10561521C082AE5D34460AE
:10135000F0BD0000F0B5144C002801DAE36900E0AC
:101360006368450D2E0185B2C0F30157B540C0F347
:101370000342032F05D0C6020AD503269640B34385
:1013800007E023F07062636823F07063636002E03B
:10139000AB4343F0706201B12A43002801DAE261F5
:1013A000F0BD6260F0BD0000000001400246002078
:1013B00092680A4200D00120704741617047016184
:1013C000704700008CB0FFF7E1FA0121202000F007
:1013D0007DFC04208DF82B00C6011A4FADF8286063
:1013E0000AA93846FFF767FF31463846FFF7E5FFA1
:1013F00015A0FEF787FF184C4FF4FA680025314618
:101400003846FFF7D3FF01280DD114A16846FEF737
:1014100085FF6846FFF7FCF80146684601F024FDA9
:10142000404602F09BFC94F80204012806D1218872
:10143000A01C01F019FD84F802542580142002F04C
:101440008DFCDCE7001401400A656E74657220486B
:101450004330350A000000006674002049443D31E5
:101460002C56313D322E332C56323D332E342C77D0
:1014700061726E696E672100FEE700E0401C027831
:101480002C2AFBD110F8012F3A2AFBD18078303872
:1014900008607047002508B52C462E4601214FF400
:1014A000907000F013FC2020ADF8000003208DF8B0
:1014B0000200594F4FF010088DF8038069463846F6
:1014C000FFF7F9FE4020ADF8000069463846FFF707
:1014D000F2FEDFF848B10220ADF800006946D946B7
:1014E0005846FFF7E8FE48208DF803000820ADF8C5
:1014F000000069463846FFF7DEFEADF80080694619
:101500003846FFF7D8FE20213846FFF756FF402126
:101510003846FFF752FF02214846FFF74EFF40A032
:10152000FEF7F0FE41A0FEF7EDFEDFF80C91B846A5
:1015300041F2707A082147464046FFF737FF08BB63
:10154000142002F00BFC08213846FFF72FFFC8B922
:1015500008213846FFF72AFF0028F9D06D1CEDB2AC
:1015600024B1012C08D0022C13D00BE040213846C6
:10157000FFF725FF012405E040213846FFF71DFF56
:10158000002425461021B8463846FFF70FFF28B142
:1015900020E002215846FFF710FFE7E7142002F091
:1015A000DDFB102147464046FFF700FF90B91021B0
:1015B0003846FFF7FBFE0028F9D06D1CEDB224B1D0
:1015C000022C14D0012C1DD004E002215846FFF754
:1015D000F6FE022485B15746761CBE4217DB402139
:1015E0004046FFF7EAFE0025C9F80070A2E7022195
:1015F0005846FFF7E2FE00250EB1C9F8006000264C
:10160000344697E740213846FFF7D7FEDDE76420F0
:1016100002F0A4FB8EE7000000140140002001400E
:10162000656E746572206B6579210000656E746566
:1016300072206B6579210A00000000202DE9F0413D
:10164000ADF5816D0121042000F040FB0121084629
:1016500000F03CFB01213748FFF77CFE0220ADF88B
:10166000000410264FF00308334D8DF80364444600
:101670008DF802840DF580612846FFF71CFEADF859
:10168000006428208DF803048DF802440DF5806174
:101690002846FFF710FE294C0025C4F88451C4F8F1
:1016A00010514FF4FA7705E025A0FEF72BFE3846DF
:1016B00001F030FBD4F810010028F5D10127C4F85F
:1016C0008471282001F026FB062121A001F00CFAEC
:1016D000214800235A1E1946006802F009FE1E2008
:1016E00001F018FBBA0269461C48FFF7B6FD1CA1C1
:1016F0006846FEF77BFF10B11AA0FEF703FEC4F8A0
:101700008471282001F006FB1C4845F2104101803D
:10171000867080F803800521017145718571C5715E
:1017200007210172457200F02BF80DF5816D002044
:10173000BDE8F081000230000008014000002142B5
:101740006C6F7261206572726F7221210A00000055
:10175000415445300D0A00002C000020E403002015
:101760004F4B00004C6F726120496E6974205375B5
:10177000636373656566756C0D0A000036010020B1
:10178000F0B5AC4C93B0D4F810010028FBD1012087
:10179000C4F88401282001F0BDFAA74DA7A128882C
:1017A000020AC3B20DA8FEF7B9FD0DA8FEF730FF7F
:1017B00081B20DA801F098F90023A54E5F1E3A46AC
:1017C0001946306802F094FD642001F0A3FA322239
:1017D0006946A048FFF741FD9FA16846FEF706FF56
:1017E00000287DD014210DA8FEF7A0FF3421684603
:1017F000FEF79CFF2B79AA7898A10DA8FEF78EFD25
:101800000DA8FEF705FF81B20DA801F06DF90023C8
:101810003A461946306802F06BFD322001F07AFA40
:10182000322269468B48FFF718FD8BA16846FEF708
:10183000DDFE00287ED014210DA8FEF777FF3421AD
:101840006846FEF773FFEA7889A10DA8FEF766FDEA
:101850000DA8FEF7DDFE81B20DA801F045F90023C9
:101860003A461946306802F043FD322001F052FA40
:10187000322269467748FFF7F0FC77A16846FEF709
:10188000B5FE00287ED014210DA8FEF74FFF3421AD
:101890006846FEF74BFFAA7979A10DA8FEF73EFD39
:1018A0000DA8FEF7B5FE81B20DA801F01DF90023C9
:1018B0003A461946306802F01BFD322001F02AFA40
:1018C000322269466348FFF7C8FC63A16846FEF709
:1018D0008DFE00287ED014210DA8FEF727FF00E022
:1018E00090E034216846FEF721FFEA7968A10DA84F
:1018F000FEF714FD0DA8FEF78BFE81B20DA801F0D6
:10190000F3F800233A461946306802F0F1FC322021
:1019100001F000FA322269464E48FFF79EFC4EA1C4
:101920006846FEF763FE002879D014210DA8FEF763
:10193000FDFE00E06AE034216846FEF7F7FE6A79B2
:1019400057A10DA8FEF7EAFC0DA8FEF761FE81B2D3
:101950000DA801F0C9F800233A461946306802F094
:10196000C7FC322001F0D6F9322269463948FFF728
:1019700074FC39A16846FEF739FE002852D01421C4
:101980000DA800E045E0FEF7D1FE34216846FEF7E1
:10199000CDFE6B7A2A7A46A10DA8FEF7BFFC0DA8F2
:1019A000FEF736FE81B20DA801F09EF800233A46FC
:1019B0001946306802F09CFC322001F0ABF932226B
:1019C00069462448FFF749FC23A16846FEF70EFE4E
:1019D00058B300E020E014210DA8FEF7A7FE342143
:1019E0006846FEF7A3FE0020C4F88401282001F019
:1019F00091F9D4F810010028FBD131A0FEF782FC48
:101A000013B0F0BD694634A011E008E0694634A087
:101A10000DE0694634A00AE0694635A007E0694652
:101A200035A004E0694636A001E0694636A0FEF71D
:101A300069FCE5E7000021423601002041542B41BA
:101A40004444523D253032782C253032780D0A003E
:101A50002C000020E40300204F4B000041542B5782
:101A60004C524154453D25642C25640D0A0000006C
:101A700041542B54504F5745523D25640D0A0000E8
:101A800041542B43574D4F44453D25640D0A0000FA
:101A900041542B544D4F44453D25640D0A00000030
:101AA00041542B574C54494D453D25640D0A0000C7
:101AB00041542B554152543D25642C25640D0A0098
:101AC0004C6F726120736574207375636373656511
:101AD00066756C210D0A000025733A310D0A00006D
:101AE00025733A320D0A000025733A330D0A0000BF
:101AF00025733A340D0A000025733A350D0A0000AB
:101B000025733A360D0A000025733A370D0A000096
:101B1000C2B027A0FEF7F6FB0021012002F06CFB0B
:101B2000264CE06200F028FFFFF788FD042004F156
:101B30001C01CDE90001C201002321A1234802F0CC
:101B4000C9FE04F118010320CDE900014FF48066BD
:101B5000002332461EA1234802F0BCFE224D4FF066
:101B6000FF37642128A8FEF7E1FD00233A46194615
:101B7000E06A02F0BDFB642001F0CCF8324628A9EF
:101B80001A48FFF76AFB28780528EAD220680090F7
:101B9000174B28AA17A102A8FEF7C0FB02A8FEF760
:101BA00037FDC1B2012202A8FFF7A8F9D9E700006A
:101BB000656E74657220206C6F72610000000020F9
:101BC000526669645F7461736B000000551E000803
:101BD00073656E6452666964436D645F7461736BB0
:101BE000000000004D38000834010020E40300200C
:101BF0004001002025732C25732C227761746572B7
:101C0000223A222564227D00FEE7704730B50F237B
:101C1000C27801780125F2B1144A126801F1E0217D
:101C200002F4E062C2F5E062120AC2F10404D34099
:101C30004278A24084781C401443220181F8002499
:101C4000007800F01F018D404009800000F1E02085
:101C5000C0F8005130BD01F01F00854048098000E8
:101C600000F1E020C0F8805130BD00000CED00E034
:101C70000249084302490860704700000000FA0565
:101C80000CED00E0044A0029516901D0014300E055
:101C9000814351617047000000100240044A00294E
:101CA000D16901D0014300E08143D1617047000058
:101CB00000100240044A0029116901D0014300E0EC
:101CC000814311617047000000100240044A00295E
:101CD000916901D0014300E08143916170470000A8
:101CE00000100240044A0029D16801D0014300E0FD
:101CF0008143D160704700000010024030B5204A97
:101D00005168204B11F00C0103D0042901D008299F
:101D100001D0036012E05168536801F470114FF074
:101D2000020413F4803F04EB914102D053689B03FB
:101D300001D5154B00E0134B5943016051680F2347
:101D400003EA1111114B5C5C0168E1404160546889
:101D5000072505EA14241C5D21FA04F48460546804
:101D600005EAD4241B5DD940C1605268032303EA0D
:101D70009232064B1B1F9A5CB1FBF2F1016130BD40
:101D80000010024000127A0000093D00800000208F
:101D900010B5064C012060716178204600F0FDF915
:101DA00061782046BDE8104000F0D4BE0501002057
:101DB0002DE9F0470546642001F0D0FF4FF4806222
:101DC0001F492048FFF749FA0024DFF874903027B4
:101DD0004FF0370809EB04067079A02802D207EB10
:101DE000101101E008EB101117A0FEF78BFA7079C3
:101DF00000F00F010A2915A001D2303100E037317F
:101E0000FEF780FA7079A02802D207EB101001E0EB
:101E100008EB10102855707900F00F000A2801D245
:101E2000303000E037302855641CE4B2062CD1D3A2
:101E300007A0FEF767FA0020A871BDE8F087000050
:101E400048730020F00B002025630000256320006C
:101E50000A00000086B00021012002F0CDF90D4CEF
:101E60004FF0FF35206300232A461946206B02F00D
:101E70003FFA6846FFF79CFF6A4607A10D48FEF748
:101E80004DFA0C490CA0FEF73DFA6421684600F0BB
:101E90002BFEE8E700000020224944223A223122AA
:101EA0002C22636172645F6E756D626572223A22E4
:101EB00025732200400100202573000010B5002387
:101EC00005E030F8024B21F813405B1C9BB29342B3
:101ED000F7D310BD2DE9F05FA0F1006415468846E8
:101EE0008246B4F5002F50D2FFF79AF9E70AC4F3FF
:101EF0004906C6F58064A54200D82C46DFF890B0AC
:101F00004FF0006000EBC72081464FF4806220490B
:101F1000FFF7D4FF00204FF6FF7206E033183BF8BE
:101F20001310914203D1401C80B2A042F6D3A042CC
:101F300023D24846FFF720F900205A4606E038F839
:101F400010108319401C22F8131080B2A042F6D35F
:101F500048464FF480620E4900F01CF8A54210D0AC
:101F6000281B08EB4408A244002685B24FF4806485
:101F70007F1CA542C4D82C46C2E7224641465046A3
:101F8000EAE7BDE8F05FFFF729B9BDE8F09F000080
:101F90006A7800202DE9F04116460F4605460024D8
:101FA00007E037F814102846FFF720F9641CA4B2A4
:101FB000AD1CB442F5D3BDE8F081000010B5C0B04F
:101FC0000C46024604A16846FEF7A8F9A11C684623
:101FD00000F0FCFB40B010BD25730D0A00000000AE
:101FE0000CB50022264800920192016841F480312C
:101FF00001604FF4A063016801F400310191009980
:10200000491C0091019911B900999942F3D10168D5
:10201000890333D5012101911A490A6842F010025F
:102020000A600A6822F003020A600A6842F00202AB
:102030000A604168416041684160416841F48061E3
:102040004160416821F47C114160416841F4E8112C
:102050004160016841F08071016001688901FCD52F
:10206000416821F003014160416841F00201416093
:102070004168C1F381010229FAD10CBD01920CBD66
:1020800000100240002002404FF0E02104280869BF
:1020900003D020F004000861704740F00400FAE724
:1020A00010B502F043FC012803D0BDE8104002F057
:1020B0008DB810BD0F4810B5016841F001010160F5
:1020C00041680D4A1140416001680C4A11400160AD
:1020D000016821F480210160416821F4FE01416022
:1020E0004FF41F018160FFF77BFF05494FF000604F
:1020F000086010BD001002400000FFF8FFFFF6FE70
:1021000008ED00E010B5084C0121204600F039F838
:10211000012802D105A0FEF7F5F82046BDE81040E1
:10212000012100F02BB800000004004054494D3359
:10213000CAE4B3F62E2E2E2E2E2E2E0D0A000000EF
:1021400010B5084C0121204600F01BF8012802D1EF
:1021500005A0FEF7D7F82046BDE81040012100F0A9
:102160000DB80000000C004054494D35CAE4B3F6E8
:102170002E2E2E2E2E2E2E0D0A000000C943018277
:10218000704702460020138A92890B4202EA01023C
:1021900002D0002A00D00120704730B500231A4633
:1021A0004D1E03E0845C6340521CD2B2AA42F9DBAC
:1021B0000844DA4300F8012C30BD00007CB5002053
:1021C000009001905020EFF3118480F31188BFF349
:1021D0004F8FBFF36F8F1F4D40F224463146284684
:1021E00000F0A7F9E0B11C48FEF74AFD1B49C0F119
:1021F000640088801A48006810B101A902F0C2FA90
:102200001848006810B101A902F0BCFA29882846D4
:102210001049091D09880091314600F030F915E098
:1022200040F226663146284600F083F970B1314607
:10223000284600F024F9084800212830FEF7A2FCC7
:102240000948006810B101A902F09CFA84F31188D2
:102250007CBD0000004C00403004024074030020AC
:1022600034000020380000205C00002070B5144DC0
:1022700040F22551284600F05CF9124C88B12846FE
:1022800000F0E4F9C1B22088B0F5806F09D20A29C4
:1022900007D00D2905D02288A01C11542088401C8D
:1022A000208040F22441284600F043F9012806D15D
:1022B00084F802042846BDE8704000F0C7B970BD3C
:1022C00000500040667400207CB500201C4D00903A
:1022D00040F2244401902146284600F02AF9B0B18A
:1022E0001848FEF7CDFC1849C0F5007088801748E3
:1022F000006810B101A902F045FA29882846104962
:10230000091D09880091214600F0B9F87CBD40F212
:1023100026642146284600F00CF90028F6D0214614
:10232000284600F0ACF8074800211438FEF72AFCD4
:10233000074840680028E9D001A902F023FA7CBDD3
:102340000038014058000240680300203C00002093
:10235000540000207CB500201C4D009040F2244425
:1023600001902146284600F0E4F8B0B11848FEF785
:1023700087FC1849C0F5806088801748006810B154
:1023800001A902F0FFF9298828461049091D09888A
:102390000091214600F073F87CBD40F2266421468E
:1023A000284600F0C6F80028F6D02146284600F05E
:1023B00066F8074800211430FEF7E4FB0748406840
:1023C0000028E9D001A902F0DDF97CBD00440040FD
:1023D0006C000240E40300202C000020600000207C
:1023E0002DE9FC4100201F4C009040F22446019052
:1023F0003146204600F09DF81B4FD8B13868251DA6
:10240000A8B11A48FEF73CFC1949C0F580608880E5
:102410001848006810B101A902F0B4F921882046DB
:1024200029880091314600F02AF8BDE8FC8101209E
:102430003860F3E740F226652946204600F079F837
:102440000028F2D02946204600F019F8074800215C
:102450001438FEF797FBB8680028E6D001A902F00F
:1024600091F9E2E700480040680000203000024097
:10247000F00B002030000020C943018070470A0A99
:1024800001219140C943018070470029818902D010
:1024900041F4005101E021F4005181817047002A8C
:1024A000828A01D00A4300E08A438282704700009A
:1024B000174910B588420AD101218C032046FFF745
:1024C00011FC2046BDE810400021FFF70BBC11496C
:1024D000884202D101214C0410E00F49884202D108
:1024E00001218C040AE00D49884202D10121CC046B
:1024F00004E00B4988420AD101210C052046FFF770
:10250000D9FB2046BDE810400021FFF7D3BB10BD2A
:10251000003801400044004000480040004C0040AA
:10252000005000400246002012880A4200D00120DC
:10253000704770B501F01F0501260024C1F3421356
:1025400006FA05F2012B0FD0022B0FD0838A4FEA37
:1025500011210088134206FA01F600EA060001D0B4
:1025600000B10124204670BD8389F0E7038AEEE7BD
:1025700010B5C1F3421301F01F040121A140012B4A
:1025800007D0022B07D01430002A026805D00A4376
:1025900004E00C30F8E71030F6E78A43026010BD23
:1025A00030B50446008A85B00D464CF6FF710840F0
:1025B000E98801432182A0894EF6F3110840A988D9
:1025C0002A8911436A8902431143A181A08A4FF6E7
:1025D000FF410840A9890143A1826846FFF78EFBAD
:1025E0001948844201D1039800E00298A1890904A6
:1025F00000EBC00101EB0010296801D5490000E0A3
:102600008900B0FBF1F06422B0FBF2F109010B0983
:102610006FF018056B4300EB8300A3891D044FF096
:10262000320306D503EBC000B0FBF2F000F0070068
:1026300005E003EB0010B0FBF2F000F00F000843E0
:10264000208105B030BD0000003801408088C0F313
:1026500008007047C1F30801818070472DE9F043FD
:1026600091B001211020FFF731FB0121C804FFF7D1
:1026700015FB4FF48060ADF83C0003208DF83E0060
:1026800018204B4C8DF83F000FA92046FEF713FE93
:10269000E114ADF83C1004218DF83F100FA920463D
:1026A000FEF709FE34208DF8400005208DF841002A
:1026B00001258DF842508DF8435010A8FFF7A6FA77
:1026C00000244FF4E1300B90ADF834400C20394E2B
:1026D000ADF83040ADF83600ADF83240ADF83840D6
:1026E0000BA93046FFF75CFF012240F2244130463F
:1026F000FFF73EFF012240F226613046FFF738FF28
:102700000122C0213046FFF7CAFE01213046FFF703
:10271000BCFE01210220FFF7B5FADFF89C90484685
:10272000FEF73CFA361D25480096CDE9010403A9C1
:102730006420802781E8910020200694CDE907409D
:102740004FF48058CDE9098469464846FEF79BFA64
:102750001B48FEF70BFA01214846FEF713FADFF893
:10276000589009F128094846FEF718FA10200096FB
:10277000CDE90140CDE90354CDE90574CDE9084820
:10278000079410480A94FEF7F1F969464846FEF7A7
:102790007AFA0A496422A1F10C00FEF786FD0021B5
:1027A000012001F029FD0849086011B0BDE8F0835F
:1027B00000100140004C0040300402408003002023
:1027C00000010010000001105C00002070B50C46F4
:1027D0000546642919D8002C17D00C4E002130462C
:1027E000FEF7D0F9301D046008480C300560012167
:1027F0003046FEF7C7F9064800234FF4FA72006826
:10280000BDE87040194601F073BD70BD5804024028
:102810005C000020FEE700002DE9F04792B00121A6
:1028200044F20400FFF752FA4FF40075ADF83C5043
:1028300003208DF83E0018204A4C8DF83F000FA968
:102840002046FEF738FD2115ADF83C1004218DF827
:102850003F100FA92046FEF72EFD25208DF84000E1
:1028600005208DF8410000248DF8424001268DF8A6
:10287000436010A8FFF7CAF94FF4E1300B90ADF8B0
:1028800034400C20384FADF83040ADF83600ADF88C
:102890003240ADF838400BA93846FFF781FE0122DF
:1028A00040F224413846FFF763FE012240F22661E0
:1028B0003846FFF75DFE0122C0213846FFF7EFFDE5
:1028C00001213846FFF7E1FD01210846FFF7DAF95B
:1028D000DFF898A05046FEF761F93F1D244801A992
:1028E000009781E831004FF08008CDE904482020AE
:1028F0000694CDE907404FF48059CDE90994694623
:102900005046FEF7C0F901215046FEF73BF9DFF8CB
:102910005CA0AAF1140A5046FEF740F91020009777
:10292000CDE90140CDE90364CDE90584CDE908494D
:102930000794694650460A94FEF7A5F90C492A46C1
:1029400001F50070FEF7B1FC0121084601F054FCCE
:10295000084C00212060012001F04EFC606012B0A4
:10296000BDE8F087000801400038014058000240EF
:1029700068010020540000202DE9F04792B00121A9
:102980000420FFF7A3F901214804FFF787F9514D0F
:102990002846FFF78DFD0420ADF83C0003208DF89C
:1029A0003E0018204C4C8DF83F000FA92046FEF742
:1029B00082FC0820ADF83C0048208DF83F000FA9AC
:1029C0002046FEF778FC00244FF4E1300B90ADF880
:1029D00034400C20ADF83040ADF83600ADF8324050
:1029E000ADF838400BA92846FFF7DAFD012240F286
:1029F00024412846FFF7BCFD012240F2266128460B
:102A0000FFF7B6FD0122C0212846FFF748FD01214E
:102A10002846FFF73AFD26208DF8400007208DF864
:102A2000410001258DF842508DF8435010A8FFF762
:102A3000EDF801210846FFF725F9DFF8A0A0504680
:102A4000FEF7ACF8234E2648361D01A9AF020096CA
:102A500081E891004FF08008CDE9044820200694D9
:102A6000CDE907404FF48059CDE9099469465046B5
:102A7000FEF709F901215046FEF784F8DFF85CA063
:102A80000AF1140A5046FEF789F810200096CDE9A5
:102A90000140CDE90354CDE90584CDE90849079407
:102AA000694650460A94FEF7EEF80D493A46A1F100
:102AB0000C00FEF7FAFB0121084601F09DFB094CD2
:102AC00000212060012001F097FB606012B0BDE89A
:102AD000F087000000440040000801406C00024004
:102AE000F0030020600000202DE9F0410C468046F4
:102AF000B1F5806F27D8002C25D0144D00234FF45A
:102B0000FA7632461946286801F0F2FB104F002190
:102B10003846FEF737F80E48803840F8844FC0F842
:102B2000088001213846FEF72DF800233246194669
:102B3000686801F0DDFB2868BDE8F04100231A4613
:102B4000194601F0EBBCBDE8F081000060000020F8
:102B5000800002402DE9F0410C460746B1F5806F38
:102B600024D8002C22D0124D00234FF4FA721946BB
:102B7000686801F0BDFB0F4E00213046FEF702F8F9
:102B80000C481C380462876201213046FDF7FAFFC9
:102B900000235A1E1946A86801F0AAFB6868BDE820
:102BA000F04100231A46194601F0B8BCBDE8F08197
:102BB000680000201C0002409CB00021012001F0B0
:102BC0001BFB2E4C00216063012001F015FBA0636C
:102BD000FFF744FDFDF73CFF04F114010320CDE9AC
:102BE000000100234FF4806225A1284801F072FE05
:102BF0004FF0FF3500232A461946606B01F078FB41
:102C0000642102A8FDF792FD00232A461946A06A16
:102C100001F06EFB642202A91D48FEF71EFB1DA1F8
:102C200002A8FDF7E3FC08B302A91EA0FDF76AFBAA
:102C3000642102A8FFF758FF1CA102A8FDF7D6FCEB
:102C400030B10E4902A8091DFEF717FC61680AE0C1
:102C500018A102A8FDF7CAFC40B1084902A8083132
:102C6000FEF70BFCA16814A0FDF74CFB00231A46ED
:102C70001946A06A01F052FCBCE7000000000020E9
:102C80004C6F72615F7461736B000000111B000870
:102C9000740300202B4D5154545355425245435612
:102CA0003A30000052583D25730D0A004D6F64659F
:102CB00000000000544800002564000030380A2855
:102CC00001D20120704700207047704710B50420E2
:102CD000FFF7DAF90C480D490D4A0068B0FBF1F333
:102CE000B0FBF1F14FF47A70414313700120508032
:102CF0004FF0E020026942F0020202614161016985
:102D000041F00101016110BD4000002040420F0070
:102D10007400002070B5044601F008FE01280CD0B4
:102D2000094D6888844203D3B4FBF0F001F016F833
:102D30006888B4FBF0F100FB11444FF47A706043F3
:102D4000BDE8704000F002B87400002070B54FF08C
:102D5000E02500216C69094AAB6912785043AA69E1
:102D60009A42FCD002D2A3EB020302E0A4EB0206DB
:102D70003344194413468142F1D370BD74000020DE
:102D800004490A881206FCD5024AC1B2121D1180FC
:102D900070470000003801401CB54FF44070FEF74A
:102DA00067FFFFF793FFFFF737FD4FF4165000F072
:102DB00087FD1F4E01221D493046FFF78BF81B4C43
:102DC0000325083C012204F10C013046A560FFF701
:102DD00075F818A0E168FDF795FA012001F03AFABC
:102DE000A06204F110010420CDE9000100234FF49A
:102DF000A06211A1134801F06DFD04F12000CDE99E
:102E0000005000234FF400720FA1124801F062FD40
:102E100004F12400CDE9005000234FF480620EA19C
:102E2000104801F057FD01F005F9FEE70800002009
:102E30000000070825640000576966695F746173C4
:102E40006B000000B92B00084B65795F7461736BF0
:102E50000000000095140008484330355F7461732A
:102E60006B000000C51300082DE9F0410D46064631
:102E70000024084F0AE040213846FFF753FB0028A2
:102E8000F9D0315D3846FFF7E5FB641CAC42F2DB5C
:102E9000BDE8F081005000402DE9F041184E0F468A
:102EA0000446F5683068001D00F0C0FD38B9306890
:102EB00090F82C1001208840316981433161601CF9
:102EC00007D137B13168BDE8F0410E48091D00F067
:102ED000F3BD30682C44AC424460316805D2B06B1D
:102EE000BDE8F041091D00F0CFBD706B091D00F079
:102EF000CBFDB06A844200D2B462BDE8F08100002C
:102F0000900000200C0F00202DE9F041054600F054
:102F1000DFFD2D4EB068401CB06030682B4F10B103
:102F2000706930B32BE03560B068012827D10024E8
:102F300004EB840007EB800000F098FD641C202C5B
:102F4000F6D3234800F092FD2148143000F08EFDA6
:102F50001F48283000F08AFD1D483C3000F086FDF7
:102F60001B48503000F082FD194870631430B06384
:102F700005E03068E96AC06A884200D83560706A46
:102F80000121401C70626864E86A32698140114323
:102F9000316100EB800007EB8000291D00F08CFD03
:102FA00000F0D2FD706900280CD03068E96AC06A70
:102FB000884207D207494FF080500860BFF34F8F17
:102FC000BFF36F8FBDE8F081900000203C0C002023
:102FD000BC0E002004ED00E010B500F079FD0E4CB1
:102FE0002068A0B90D4800F041FD0C48143000F0F5
:102FF0003DFD0A48E06014302061002210210520C8
:1030000001F03AF9206010B105A100F073FEBDE8AF
:10301000104000F099BD0000CC000020200F0020DF
:10302000546D72510000000070B5124E124D1CE03C
:1030300001F04AF8306820B1002401F0A5FDA4B9E0
:1030400001E00124F9E700F043FDF068C468201DA9
:1030500000F0ECFCA868401EA8606868401E68602C
:1030600000F072FD204600F052F868680028DFD1B9
:1030700070BD0000F80E00209000002030B4026CFB
:103080000B46002A0BD0C1681144C1604468A142BC
:1030900001D30168C16030BC1846FDF7D8BA30BC16
:1030A00070472DE9F041856B174604460026026CF7
:1030B00082B1C7B1E068FDF7CAFAE168206C091A6D
:1030C000E1602268914202D26168081AE060022F32
:1030D00016D017E02068A8B9606801F0AFFC06467A
:1030E000002060600EE0A068FDF7B1FA216CA068D6
:1030F0000844A0606168884204D32068A06001E0B1
:1031000005B16D1E6D1CA5633046BDE8F08110B59C
:103110000446006B00F04AFD2046BDE8104000F078
:1031200045BD000010484FF4C841420706D0C01DFD
:103130000D4920F00700411AC1F5C8410B4A002390
:103140000144C2E900030839103A21F00701116077
:103150004B600B600B1AC0E9001393604FF0004006
:103160005360D06070470000480F0020F00000203E
:10317000074E4FF08054074DFFF756FF3068012887
:10318000FAD92C60BFF34F8FBFF36F8FF4E70000C5
:103190003C0C002004ED00E02DE9F047DDE9098456
:1031A0000E461746824691009946089DA522206B3F
:1031B000FDF792FA6FF00301206B01EB87010844E1
:1031C00020F00707780705D040F22B3219A11EA086
:1031D000FDF798F800202218315C82F83410315C39
:1031E00011B1401C1028F6D3002684F84360202D2E
:1031F00000D31F25E562C4E91356201D00F041FCF1
:1032000004F1180000F03DFC2461C5F12000646267
:10321000A061666584F858604A465146384600F019
:1032200003FB2060B8F1000F01D0C8F80040BDE8F2
:10323000F08700002E2E5C4672656552544F535C39
:103240007461736B732E63004572726F723A2573EB
:103250002C25640D0A00000030B5114900E011462C
:103260000A688242FBD34B685C18844203D14068F1
:1032700018444860084643681C18944209D1084C19
:10328000103C2468A24209D052681A4442600A687D
:1032900012680260814200D0086030BD0460F9E726
:1032A000F000002070B5002441600B4D0061914298
:1032B00006D8D11A8269914206D2011D286907E019
:1032C0009A4203D2994201D3012403E0011DE86828
:1032D00000F0DAFB204670BDCC00002010B504469B
:1032E00000F0F6FBA06B20B1002400F02DFC20467E
:1032F00010BD0124F9E700002DE9F34100980F46C5
:103300000026846C2CB940F6CE1216A11AA0FCF748
:10331000F9FFA06BE16B884205D340F6CF1211A1F3
:1033200015A0FCF7EFFFA06BE16B88420CD294F97B
:1033300045503A4669462046FFF7B3FE0646681CEC
:1033400005D06D1C84F845503046BDE8FC81606AAC
:103350000028F9D004F1240001F0CAFB0028F3D0C2
:103360000126F1E72E2E5C4672656552544F535C80
:1033700071756575652E63004572726F723A2573BB
:103380002C25640D0A000000F8B5054614480E46C9
:10339000C068C068C468201D00F048FBE0690128CF
:1033A00017D1A0692B46411932462046FFF77AFF14
:1033B00078B100200346014600902A46204601F0DD
:1033C000C9FC30B907494FF4027201F11800FCF74B
:1033D00099FF616A01B02046BDE8F040084700004F
:1033E000CC000020B84C000870B586B02F4E53E0DA
:1033F0000198002806DADDE90301029A9047019856
:10340000002849DB039C606910B1201D00F00EFB11
:1034100005A800F0A7F8054601980A283CD2DFE885
:1034200000F00505053B273805053B270298A169F3
:10343000034601442A462046FFF734FF00282BD0DC
:10344000616A20468847E069012825D10020009064
:103450000298A169002342181946204601F07AFC1F
:10346000D0B940F2213212A117A0FCF74BFF13E0B4
:103470000298A06128B94FF44E720DA112A0FCF77A
:1034800041FFA0692B4641191A462046FFF70AFF63
:1034900002E0204600F08AFB00231A4601A93068AA
:1034A00000F026FF0028A3D106B070BDCC0000209C
:1034B0002E2E5C4672656552544F535C74696D657F
:1034C00072732E63000000004572726F723A2573AA
:1034D0002C25640D0A000000F8B50D46064600F0E4
:1034E000F3FD684600F03EF80446009810B101F084
:1034F0004BFBF8BD1148ADB101690968D9B1002590
:10350000311B2A46006800F007FC01F03DFB002853
:10351000EFD10B494FF080500860BFF34F8FBFF3DE
:103520006F8FF8BDA642EBD801F02EFB2146304646
:10353000FFF72AFFF8BD0125E2E70000CC000020DC
:1035400004ED00E00648416B096829B1416BC96888
:10355000C9684968816270474FF0FF31FAE700009F
:103560009000002070B5054601F0EEF9064E0446C5
:10357000B068844203D200F009F8012000E0002086
:1035800028602046B46070BDCC000020F8B5184E0D
:1035900026E0C068C4680568201D00F047FA616A2B
:1035A00020468847E06901281AD1A0692844A8422A
:1035B00006D924616060211DF06800F065FA0FE013
:1035C00000200346014600902A46204601F0C2FB37
:1035D00030B9084940F2923201F11800FCF792FE2E
:1035E000F06801680029D4D13169C6E90310F8BD3B
:1035F000CC000020B84C000808484068401C04D0AB
:10360000F42207A111A0FCF77DFE502080F3118861
:10361000BFF34F8FBFF36F8FFEE70000F80000206D
:103620002E2E5C4672656552544F535C706F7274F7
:1036300061626C655C525644535C41524D5F434D30
:10364000335C706F72742E63000000004572726FFD
:10365000723A25732C25640D0A000000084CE068BE
:10366000016839B1002139B10020FFF735FFFFF7BC
:10367000BBFEF4E70121F6E7C0680068F5E700004B
:10368000CC0000202DE9F041044600F021FA94F925
:10369000455004F1240610E0A06C20B10021204622
:1036A000FFF72AFE04E0606A48B1304601F020FAD4
:1036B00008B100F089FB6D1E6DB2002DECDC4FF0FF
:1036C000FF3684F8456000F03FFA00F001FA94F903
:1036D000445004F1100709E0206948B1384601F070
:1036E00007FA08B100F070FB6D1E6DB2002DF3DC1F
:1036F00084F84460BDE8F04100F026BA2DE9F041BD
:103700000546002600F0E0FC324F386808B9FFF7A4
:1037100009FDF86805424FD1002D4DD008356807E6
:103720000BD005F00700C0F108000544680704D07D
:10373000BF2229A132A0FCF7E5FD002D3CD078681E
:10374000854239D8234910310846046801E02146F2
:1037500004466068A84202D220680028F7D1386881
:10376000B846844228D00E68206808606068083631
:10377000401B10280ED96719780704D0EC2216A137
:103780001FA0FCF7BFFD6068401B7860384665608D
:10379000FFF762FD6168D8F804004246401AC8F895
:1037A0000400D8F80830984200D29060D8F80C0095
:1037B00001430020C4E9000101F0E6F9700705D0DB
:1037C0004FF4967204A10EA0FCF79CFD3046BDE8B4
:1037D000F0810000E00000202E2E5C4672656552EC
:1037E000544F535C706F727461626C655C4D656DB3
:1037F0004D616E675C686561705F342E6300000028
:103800004572726F723A25732C25640D0A00000010
:103810000449086818B10868026D521C02650868FE
:10382000704700009000002010B5031F4FF0807417
:103830001C601B1F21F001011960191F024B0B6056
:10384000143940380A6010BDF93500080026144DBF
:10385000144C4FF4FA672878052815D312A0FCF70A
:1038600051FD297813A0FCF74DFD206900F0F0F818
:10387000012803D00121206900F046FBFDF7E8F89C
:1038800040B1384600F06AFA60680028E3D0FEF7DD
:103890007FFAE0E70421206900F036FB2E70F3E7A1
:1038A000340100200000002065656E74657220748C
:1038B0006573740074696D65733D256400000000D4
:1038C0002DE9F047044692B001210820FEF7FEF9E9
:1038D00001218804FEF7E2F94F4E3046FEF7E8FD7D
:1038E0003515ADF83C5003208DF83E0018204B4FA5
:1038F0008DF83F000FA93846FDF7DDFC6800ADF8F4
:103900003C0048208DF83F000FA93846FDF7D3FC56
:103910000B940024ADF834400C20ADF83040ADF8E5
:103920003600ADF83240ADF838400BA93046FEF70E
:1039300037FE012240F224413046FEF719FE0122F3
:1039400040F226613046FEF713FE0122C0213046C8
:10395000FEF7A5FD01213046FEF797FD27208DF8E3
:10396000400006208DF8410001268DF842608DF858
:10397000436010A8FEF74AF901210846FEF782F9D4
:10398000DFF89CA05046FDF709F9234F25483F1D5D
:1039900001A9009781E831004FF08009CDE9044981
:1039A00020200694CDE907404FF48058CDE90984E2
:1039B00069465046FDF767F901215046FDF7E2F8E8
:1039C000DFF85CA0AAF1140A5046FDF7E7F81020D2
:1039D0000097CDE90140CDE90364CDE90594CDE937
:1039E00008480794694650460A94FDF74CF90D497A
:1039F0002A4601F58060FDF758FC0121084600F0D9
:103A0000FBFB094C00216060012000F0F5FBA06089
:103A100012B0BDE8F087000000480040000C0140F3
:103A200030000240F007002068000020D0E9013299
:103A300001699A60D0E901235A604A68824201D143
:103A400082684A60002202610868401E0860704770
:103A500010B5044600F03CF80CB903480468E46A69
:103A600000F072F8204610BD9000002000F108011F
:103A70004FF0FF32C0E90112C16001610021016015
:103A8000704700210161704730B50C68621C02D09C
:103A900000F1080202E0026904E01A4653681D685A
:103AA000A542FAD953684B6099608A6051600861F9
:103AB0000168491C016030BD42684A6093688B60B0
:103AC00093685960916008610168491C0160704702
:103AD000502080F31188BFF34F8FBFF36F8F0949D8
:103AE0004868401C486001280AD10748006810F067
:103AF000FF0F05D04FF4BD7204A10FA0FCF702BC6C
:103B000070470000F800002004ED00E02E2E5C4617
:103B100072656552544F535C706F727461626C656C
:103B20005C525644535C41524D5F434D335C706F61
:103B300072742E63000000004572726F723A257332
:103B40002C25640D0A00000010B5084C606828B9E7
:103B500040F2811206A111A0FCF7D4FB6068401E60
:103B6000606001D180F3118810BD0000F8000020D2
:103B70002E2E5C4672656552544F535C706F7274A2
:103B800061626C655C525644535C41524D5F434DDB
:103B9000335C706F72742E63000000004572726FA8
:103BA000723A25732C25640D0A00000070B50028B8
:103BB0002AD0164DA0F108046068E968084205D1D2
:103BC0004FF4A07212A11CA0FCF79CFB206828B146
:103BD00040F241120EA118A0FCF794FB6068E9685E
:103BE000084211D02268002A0ED18843606000F09C
:103BF0006BFA60686968084468602046FFF72CFB30
:103C0000BDE8704000F0C0BF70BD0000E0000020C3
:103C10002E2E5C4672656552544F535C706F727401
:103C200061626C655C4D656D4D616E675C68656178
:103C3000705F342E630000004572726F723A257314
:103C40002C25640D0A00000006484FF47A710068C4
:103C5000B0FBF1F14FF0E020491E41610721016105
:103C6000704700004000002010B5FCF725FB104C09
:103C700010280CD300F1E02090F8F003217888425E
:103C800005D24FF42A720BA115A0FCF73BFB184894
:103C90000068A16800F4E060884207D9BDE81040E0
:103CA0004FF42E7203A10EA0FCF72CBB10BD000038
:103CB000F80000202E2E5C4672656552544F535C0E
:103CC000706F727461626C655C525644535C415211
:103CD0004D5F434D335C706F72742E6300000000C3
:103CE0004572726F723A25732C25640D0A0000002C
:103CF0000CED00E010B5074B002253F832401CB128
:103D0000521C082AF9D310BD43F8321003EBC2014C
:103D1000486010BDFC0B002070B515460E460446E9
:103D2000FFF7D6FE94F944100020491C01D184F815
:103D3000440094F94510491C01D184F84500FFF76F
:103D400003FFA06B28B92A46314604F1240000F095
:103D50006BF82046BDE87040FFF794BC10B5040036
:103D600012D00E49096B29B140F2CF420CA111A02B
:103D7000FCF7C8FA00F0A8F900212046FFF78CF8FC
:103D800000F002FF002807D10E494FF08050086074
:103D9000BFF34F8FBFF36F8F10BD00009000002066
:103DA0002E2E5C4672656552544F535C7461736B82
:103DB000732E63004572726F723A25732C25640D61
:103DC0000A00000004ED00E001490120C8617047CD
:103DD0009000002070B50D46040005D140F6063273
:103DE00007A10CA0FCF78EFA0E4801682046183196
:103DF000FFF74AFE2846BDE870400121FFF74CB8A6
:103E00002E2E5C4672656552544F535C7461736B21
:103E1000732E63004572726F723A25732C25640D00
:103E20000A0000009000002070B514460E46050000
:103E300005D140F6313209A10DA0FCF763FA104814
:103E4000016828461831FFF737FE0CB14FF0FF36F6
:103E500021463046BDE87040FFF71EB82E2E5C4666
:103E600072656552544F535C7461736B732E6300BB
:103E70004572726F723A25732C25640D0A0000009A
:103E80009000002070B5040039D01D4DE06A29680B
:103E9000C96A884233D2A069002804DB2868C06A56
:103EA000C0F12000A061E06A164E00EB800061695D
:103EB00006EB800081421FD1201DFFF7B7FD0121D5
:103EC00050B9E06A00EB800256F8222022B92A6934
:103ED00001FA00F082432A612868C06AE0622A6918
:103EE00081401143296100EB800006EB8000211D19
:103EF000BDE87040FFF7E0BD2868C06AE06270BDB1
:103F0000900000203C0C00202DE9F04100260D46D9
:103F10000446202906D34FF4B06228A12CA0FCF758
:103F2000F1F91F25FFF7D4FD2D4F04B93C68E06C73
:103F3000A8423FD03968854206D98C4207D03968FB
:103F4000C96AA94202D902E08C4200D10126E16A85
:103F50008846884200D1E562E564A069002802DB5A
:103F6000C5F12000A0611F4D08EB8800616905EBD9
:103F70008000814215D1201DFFF758FD012120B995
:103F80003A6901FA08F082433A61E06A3A6981408D
:103F90001143396100EB800005EB8000211DFFF724
:103FA0008BFD3EB110494FF080500860BFF34F8F3A
:103FB000BFF36F8FBDE8F041FFF7C6BD2E2E5C4604
:103FC00072656552544F535C7461736B732E63005A
:103FD0004572726F723A25732C25640D0A00000039
:103FE000900000203C0C002004ED00E010B504001F
:103FF00005D140F6C13205A109A0FCF783F90C48B0
:10400000016A2160C068606010BD00002E2E5C4611
:1040100072656552544F535C7461736B732E630009
:104020004572726F723A25732C25640D0A000000E8
:10403000900000201CB517480024CDE9004023461D
:10404000822215A1164800F045FC012803D100F09A
:1040500047FE01280AD0401C1BD102B040F28472F6
:10406000BDE810400FA114A0FCF74CB9502080F31C
:104070001188BFF34F8FBFF36F8F06484FF0FF31AA
:104080002C38816201214161C460BDE81C4000F010
:1040900061B81CBDBC00002049444C450000000034
:1040A000713100082E2E5C4672656552544F535C88
:1040B0007461736B732E63004572726F723A25736D
:1040C0002C25640D0A0000000248016B491C0163A5
:1040D000704700009000002070B5134D286B10B1A0
:1040E0000120E86170BD0020E86128690F4EB0FA38
:1040F00080F0C0F11F0000EB800456F8240028B9BE
:1041000040F6F6220AA10FA0FCF7FCF806EB8400AB
:1041100000F10802416849684160914201D1496853
:104120004160C868286070BD900000203C0C0020F1
:104130002E2E5C4672656552544F535C7461736BEE
:10414000732E63004572726F723A25732C25640DCD
:104150000A0000001CB51A4908780190FF20087079
:1041600008788DF800009DF80000164A00F0500015
:1041700010700720906007E09068401E90609DF8E6
:10418000000040008DF800009DF800000006F3D408
:10419000107A000200F4E0609060019808700A480C
:1041A000016841F470010160016841F070410160F3
:1041B000FFF74AFD00205060FCF748F800201CBDC6
:1041C00000E400E0F800002020ED00E010B55020F1
:1041D00080F31188BFF34F8FBFF36F8F00F0BAFBEE
:1041E00018B104494FF080500860002080F3118816
:1041F00010BD000004ED00E070B50C46050005D1CF
:1042000040F2BD220AA10FA0FCF77CF8AC4205D910
:1042100040F2BE2206A10BA0FCF774F80222002196
:10422000284600F029F8002800D0846370BD000003
:104230002E2E5C4672656552544F535C71756575E0
:10424000652E63004572726F723A25732C25640DDA
:104250000A00000010B502460021012000F00CF811
:10426000040007D00021416001600B460A46C1608E
:1042700000F054F9204610BD2DE9F04117460E46D6
:10428000050005D14FF4C47210A115A0FCF73AF84F
:10429000BEB105FB06F05430FFF730FA04000ED033
:1042A00004F154007EB12060C4E90F56204601217C
:1042B00000F0E0F884F8507000212046A164BDE8C9
:1042C000F0810020E7E72460EEE700002E2E5C4638
:1042D00072656552544F535C71756575652E630048
:1042E0004572726F723A25732C25640D0A00000026
:1042F0002DE9FF4F83B09B468A4604004FF000062D
:1043000005D140F2DC4251A155A0FBF7FBFFBAF109
:10431000000F07D1206C28B140F2DD424BA150A024
:10432000FBF7F0FF00F002FB38B9059828B14FF415
:104330009C6246A14AA0FBF7E5FF4FF000094FF051
:104340008057DFF82C81FFF7C3FBA56B45B35146BF
:104350002046E668FEF792FEBBF1000F13D0E66040
:10436000606A50B104F1240000F0C2FB28B1C8F823
:104370000070BFF34F8FBFF36F8FFFF7E5FB012096
:1043800007B0BDE8F08F6D1EA563206810B9FFF778
:104390003FFA606020690028EFD004F11000E3E7E5
:1043A000059808B11EB106E0FFF7CEFB27E068468E
:1043B000FFF71CFE0126FFF7C7FBFFF785FEFFF79F
:1043C00087FB94F94400401C01D184F8449094F98F
:1043D0004500401C01D184F84590FFF7B5FB05A9C5
:1043E000684600F033FA002820460AD0FFF74AF961
:1043F00000F0CAFB2046FEF771FF0028A3D0002082
:10440000BEE7FEF76BFFD8B1206830B9FFF760FB5D
:104410006068FFF737FDFFF797FB04F1240005996B
:10442000FFF7D8FC2046FFF72DF900F0ADFB002880
:1044300089D1C8F80070BFF34F8FBFF36F8F82E749
:104440002046FFF71FF900F09FFB7CE72E2E5C460D
:1044500072656552544F535C71756575652E6300C6
:104460004572726F723A25732C25640D0A000000A4
:1044700004ED00E070B50D46040005D140F21B12BA
:104480001CA121A0FBF73EFFFFF722FBD4E90F2080
:10449000216802FB001161600021A1632168A16015
:1044A0000A46D4E90F01401E00FB0121E1602146CC
:1044B0004FF0FF3001F8440F487004F110004DB187
:1044C000FFF7D4FA04F12400FFF7D0FAFFF73CFB22
:1044D000012070BD21690029F8D000F009FB0028F7
:1044E000F4D00D494FF080500860BFF34F8FBFF3F9
:1044F0006F8FEBE72E2E5C4672656552544F535C0E
:1045000071756575652E63004572726F723A257319
:104510002C25640D0A00000004ED00E02DE9FF4F9A
:1045200083B099468B4604004FF0000605D140F257
:10453000D92252A156A0FBF7E5FEBBF1000F07D12F
:10454000206C28B140F2DA224CA151A0FBF7DAFE30
:10455000B9F1020F08D1E06B012805D040F2DB224F
:1045600046A14BA0FBF7CEFE00F0E0F938B9059864
:1045700028B140F2DE2241A145A0FBF7C3FE4FF077
:10458000000A4FF08057DFF81881FFF7A1FAA06BFF
:10459000E16B884206D3B9F1020F03D0059800B34E
:1045A00016B325E04A4659462046FEF77AFDA16C2F
:1045B00021B149462046FEF79FFE05E0616A19B128
:1045C00004F1240000F094FA28B1C8F80070BFF399
:1045D0004F8FBFF36F8FFFF7B7FA012007B0BDE829
:1045E000F08FFFF7B1FA21E06846FFF7FFFC0126E4
:1045F000FFF7AAFAFFF768FDFFF76AFA94F944009B
:10460000401C01D184F844A094F94500401C01D11C
:1046100084F845A0FFF798FA05A9684600F016F956
:1046200030B12046FFF72EF800F0AEFA0020D5E7B3
:10463000FFF74EFAA06BE16B884201D1012500E043
:104640000025FFF781FA95B104F110000599FFF7F5
:10465000C1FB2046FFF716F800F096FA002894D127
:10466000C8F80070BFF34F8FBFF36F8F8DE7204600
:10467000FFF708F800F088FA87E700002E2E5C4666
:1046800072656552544F535C71756575652E630094
:104690004572726F723A25732C25640D0A00000072
:1046A00004ED00E02DE9F0479846154689460400E0
:1046B00005D140F29F322AA12EA0FBF723FEB9F1CB
:1046C000000F07D1206C28B14FF4687224A129A0F3
:1046D000FBF718FEB8F1020F08D1E06B012805D0F6
:1046E00040F2A1321EA123A0FBF70CFEFFF7BCFA9B
:1046F0005020EFF3118780F31188BFF34F8FBFF382
:104700006F8FA06BE16B884207D3B8F1020F04D022
:10471000002087F31188BDE8F08794F94560424690
:1047200049462046FEF7BDFC701C04D0761C84F878
:1047300045600120EDE7A06C012620B141462046EE
:10474000FEF7DAFD06E0606A0028F2D004F12400EA
:1047500000F0CEF90028ECD0002DEAD02E60E8E77A
:104760002E2E5C4672656552544F535C71756575AB
:10477000652E63004572726F723A25732C25640DA5
:104780000A0000002DE9F0410D46040005D140F279
:104790003C4225A129A0FBF7B5FD206C28B14FF4C0
:1047A000886221A125A0FBF7ADFD206838B96068BB
:1047B00028B140F245421CA120A0FBF7A3FDFFF762
:1047C00053FA5020EFF3118680F31188BFF34F8F17
:1047D000BFF36F8FA16BE06B88421FD994F945003E
:1047E000491CA163411C04D0401C84F845000120F1
:1047F00015E0A06C012720B100212046FEF77CFDCA
:1048000006E0606A0028F2D004F1240000F070F99C
:104810000028ECD0002DEAD02F60E8E7002086F3D6
:104820001188BDE8F08100002E2E5C46726565524D
:10483000544F535C71756575652E63004572726FD8
:10484000723A25732C25640D0A00000070B50D46E0
:10485000040005D140F6CB3214A119A0FBF752FD9C
:104860002DB940F6CC3211A115A0FBF74BFDFFF797
:104870002FF9174AD06829684B1C0FD02368126A99
:10488000934202D0626882420AD96268801A8842E2
:1048900006D2081A28602046FFF7A8FB002400E093
:1048A0000124FFF751F9204670BD00002E2E5C4612
:1048B00072656552544F535C7461736B732E630061
:1048C0004572726F723A25732C25640D0A00000040
:1048D000900000202DE9FF5F8346DDE90E879946B1
:1048E00016468A469000FEF709FF05001AD05C20A4
:1048F000FEF704FF040012D025630021CDE9024138
:10490000CDE900874B46324651465846FEF744FCF7
:104910002046FEF7F9FA012004B0BDE8F09F2846D2
:10492000FFF744F94FF0FF30F6E700000548416912
:1049300019B1006B18B100207047012070470220A8
:1049400070470000900000200148C06870470000D8
:10495000900000202DE9F0412D4F0026386B40B12A
:10496000B869401CB861F86900B101263046BDE85D
:10497000F081FD686D1CFD6011D1786B006828B175
:1049800040F6D91223A128A0FBF7BCFC786BB96BC9
:104990007963B863386A401C3862FEF7D3FDB86AA1
:1049A000DFF89480854209D3786B006880B1786B1A
:1049B000C068C468606885420DD2B8623868C06A51
:1049C00000EB800158F821000128CCD90126CAE764
:1049D0004FF0FF30F1E7201DFFF728F8A06A18B16B
:1049E00004F11800FFF722F8E06A01213A698140DA
:1049F0001143396100EB800108EB8100211DFFF7B5
:104A00005BF8E06A3968C96A8842CDD30126CBE7F2
:104A1000900000202E2E5C4672656552544F535C08
:104A20007461736B732E63004572726F723A2573F3
:104A30002C25640D0A0000003C0C002070B5040019
:104A40004FF000063CD01F4D2868844205D040F648
:104A5000C7621DA121A0FBF755FC206D28B940F6C7
:104A6000C96219A11DA0FBF74DFC206D401E2065F9
:104A7000E26CE16A914223D010BB201DFEF7D6FF05
:104A80001A49012250B9E06A00EB800351F8233043
:104A900023B92B6902FA00F083432B61E06CE062DA
:104AA000C0F12000A061E06A2B6982401A432A61AC
:104AB00000EB800001EB8000211DFEF7FDFF0126C9
:104AC000304670BD900000202E2E5C467265655207
:104AD000544F535C7461736B732E63004572726F35
:104AE000723A25732C25640D0A0000003C0C00204E
:104AF0002DE9F041C068C4682CB940F6613216A1B6
:104B00001AA0FBF7FFFB04F118000746FEF78EFF23
:104B10001A4D286B012660B139461948FEF7CCFFC3
:104B2000E06A2968C96A884213D90120EE61BDE8AC
:104B3000F081201DFEF77AFFE06A2A6906FA00F18B
:104B4000114329610F4900EB800001EB8000211D1A
:104B5000E4E70020EBE700002E2E5C46726565520C
:104B6000544F535C7461736B732E63004572726FA4
:104B7000723A25732C25640D0A0000009000002075
:104B8000E40E00203C0C00202DE9F0472B4D0024C2
:104B90002746286B28B94FF4FD6229A12DA0FBF709
:104BA000B1FBFEF795FF286B401E2863286BE8BB1E
:104BB000A8682C490126C8B3A1F52A798846D8F8F7
:104BC0000010E9B1D8F80C00C46804F11800FEF731
:104BD0002DFF201DFEF72AFFE06A2A6906FA00F180
:104BE0001143296100EB800109EB8100211DFEF7D3
:104BF00063FFE06A2968C96A8842E0D3EE61DEE7B4
:104C00000CB1FEF79FFCAC693CB1FFF7A3FE00B10D
:104C1000EE61641EF9D10020A861E86930B1124943
:104C2000012738070860BFF34F8F00E001E0BFF3B2
:104C30006F8FFEF789FF3846BDE8F08790000020AF
:104C40002E2E5C4672656552544F535C7461736BD3
:104C5000732E63004572726F723A25732C25640DB2
:104C60000A000000E40E002004ED00E02DE9F0470A
:104C70000746994616460D462C20DDF820A0FEF783
:104C80003DFD040014D0B8464F46D1462DB94FF42F
:104C9000C67209A10EA0FBF735FBFEF79DF904F1E2
:104CA0001801C4F8008081E8E002201DFEF7E9FE4B
:104CB0002046BDE8F08700002E2E5C4672656552E6
:104CC000544F535C74696D6572732E63000000006D
:104CD0004572726F723A25732C25640D0A0000002C
:104CE0001CB50024FEF778F90C48006868B10B4940
:104CF0001F20091DCDE9000100234FF4827208A195
:104D00000948FFF7E7FD040005D140F2331207A17F
:104D10000CA0FBF7F7FA20461CBD0000CC000020D9
:104D2000546D7220537663005D3600082E2E5C466B
:104D300072656552544F535C74696D6572732E636E
:104D4000000000004572726F723A25732C25640DC5
:104D50000A0000002DE9FF47DDF830A09946904693
:104D60000D4606004FF0000705D14FF4D37212A193
:104D700017A0FBF7C7FA1A4C206880B1CDE900589C
:104D80000296062D11DAFFF7D1FD02284FF000033D
:104D900009D0002269462068FFF7C0FB074604B02F
:104DA0003846BDE8F0875246F4E700234A46694694
:104DB000FFF778FCF2E700002E2E5C467265655224
:104DC000544F535C74696D6572732E63000000006C
:104DD0004572726F723A25732C25640D0A0000002B
:104DE000CC00002030313233343536373839414247
:104DF000434445464030580030313233343536373D
:104E000038396162636465664030780004000008E8
:104E1000000000000000000200010000100000007F
:104E2000404E000800000020400100006C01000816
:104E3000804E00084001002090850000C801000855
:104E40008102380284A24A040009280102030406F0
:104E50000708096D0204060838092E3C01441AAA05
:104E60000149B94C08A120083AA308170208B52047
:104E700003063D650117A41001133417030512033F
:04000005080002C12C
:00000001FF
