:020000040800F2
:1000000098660020C1020008B5160008C11000085B
:10001000B31600088D090008ED200008000000005C
:10002000000000000000000000000000290200089D
:10003000FD0B0008000000006D020008DD1900083B
:10004000DB020008DB020008DB020008DB0200081C
:10005000DB020008DB020008DB020008DB0200080C
:10006000DB020008DB020008DB020008DB020008FC
:10007000DB020008DB020008DB020008DB020008EC
:10008000DB020008DB020008DB020008DB020008DC
:10009000DB020008DB020008DB020008DB020008CC
:1000A000DB020008DB020008DB020008DB020008BC
:1000B000DB020008411A0008DB020008DB0200082E
:1000C000DB020008DB020008DB020008DB0200089C
:1000D000DB020008991B0008251C0008B11C000861
:1000E000DB020008DB020008DB020008DB0200087C
:1000F000DB020008DB020008DB020008DB0200086C
:10010000DB020008DB0200087D1A0008DB020008A1
:10011000F91A0008DB020008DB020008DB02000815
:10012000DB020008DB020008DB020008DB0200083B
:1001300000F002F800F068F80AA090E8000C824491
:100140008344AAF10107DA4501D100F05DF8AFF26E
:10015000090EBAE80F0013F0010F18BFFB1A43F0A5
:1001600001031847F4420000144300000A444FF012
:10017000000C10F8013B13F0070408BF10F8014B06
:100180001D1108BF10F8015B641E05D010F8016B4B
:10019000641E01F8016BF9D113F0080F1EBF10F8AF
:1001A000014BAD1C0C1B09D16D1E58BF01F801CBD2
:1001B000FAD505E014F8016B01F8016B6D1EF9D555
:1001C0009142D6D37047000000230024002500266A
:1001D000103A28BF78C1FBD8520728BF30C148BFAA
:1001E0000B607047642900F0FD80782900F03681AB
:1001F000632900F04683732900F04B830020704789
:100200001FB51FBD10B510BD00F090FB1146FFF7E4
:10021000F7FF02F0FFF900F0AEFB03B4FFF7F2FFC7
:1002200003BC02F090F90000224B19680868B0E89E
:10023000F00F80F30988BFF36F8F4FF0000080F359
:1002400011884EF00D0E704700000000064800684F
:10025000006880F3088862B661B6BFF34F8FBFF3C2
:100260006F8F00DF00BF00BF08ED00E0EFF30980F3
:10027000BFF36F8F0F4B1A6820E9F00F106008B5BD
:100280004FF0500080F31188BFF34F8FBFF36F8F93
:1002900003F04CFA4FF0000080F31188BDE80840ED
:1002A00019680868B0E8F00F80F30988BFF36F8F12
:1002B000704700BF84000020EFF305807047000006
:1002C0000948804709480047FEE7FEE7FEE7FEE7EA
:1002D000FEE7FEE7FEE7FEE7FEE7FEE70448054926
:1002E000054A064B70470000F1190008310100086B
:1002F0009860002098660020986200209862002094
:10030000704700000FB4044910B503AA029800F02A
:10031000C5FA10BC5DF814FB6C0000200FB41CB5CE
:10032000074B06AA7B4469460090059800F087FABF
:100330000020694600F096FA1CBC5DF814FB000032
:100340003D05000070B5044685690068C10601D509
:10035000302600E02026C00707D070BDD4E9012177
:1003600030469047206A401C20626D1EF6D570BD55
:1003700070B5044685690078C00707D170BDD4E91F
:10038000012120209047206A401C20626D1EF6D576
:1003900070BD70B50C460546012A05D02878800648
:1003A00000D5EA69002302E0012305E05B1C9342CB
:1003B00002D2E05C0028F9D1A869E618C01AA86149
:1003C000286A184428622846FFF7BCFF04E0D5E9F4
:1003D000012114F8010B9047B442F8D32846FFF7E7
:1003E000C7FF70BD2DE9F04106460024106875294D
:1003F000314616A510D0AFF30080002802DA404243
:1004000013A507E031688A0701D512A502E0490764
:1004100004D511A5012401E0AFF3008000210A22D8
:1004200006F1240709E0B0FBF2FCB0FBF2F302FB9B
:100430001C00303078541846491C0028F3D123465C
:100440002A463046BDE8F04100F09BB900000000AC
:100450002D0000002B0000002000000070B50446B5
:100460000D4621461068AFF300802188090502D5AA
:100470000F4A7A4402E00E4A7A440E32002104F117
:10048000240305E000F00F060009965D5E54491C48
:100490000028F7D120780023000704D5702D02D062
:1004A00009B1022311322046BDE8704000F069B95D
:1004B0009E3F00002DE9F05F894604464FF0000A98
:1004C000DFF824B1FB44C0F820A02046E16888474B
:1004D00000287DD0252806D0D4E901219047206A44
:1004E000401C2062F1E700255F462046E16888470E
:1004F0002028064607DB312E05D2B81910F8200C4B
:1005000008B10543F1E7A80701D525F00405C4F8B3
:100510001CA00027C4F818A02A2E09D0304602F0EB
:100520000BF838B304EB8708303EC8F8186019E0C0
:1005300059F8041B204604EB87029161E168884763
:10054000012F064618D1E069002820DA25F02005A1
:100550001DE0D8F8180000EB800006EB40003038B2
:10056000C8F818002046E1688847064601F0E4FF15
:100570000028EED1012F0AD02E2E08D12046E168A6
:1005800088477F1C0646022F45F02005C4DBA06982
:10059000002803DA404245F00105A061E80701D0D8
:1005A00025F01005A6B1A6F14100192802D8203681
:1005B00045F400654A463146204625604D46FFF722
:1005C00011FE60B1012807D0ED1D25F0070000E005
:1005D00007E000F1080978E705F1040975E73046FE
:1005E0007AE7206ABDE8F09F743F000030B5054609
:1005F0000B462A4613F8014B12F8010B08B1A04232
:10060000F8D01CB1002802D06D1CF1E7284630BD9F
:1006100010B5431C02E010F8011B71B18107FAD13B
:100620004FF0013202C88C1A8C4314EAC211F9D07F
:10063000C01A0A0603D0C01E10BDC01A10BD0A049D
:1006400001D0801E10BD0902FCD0401E10BD032A3F
:1006500040F2308010F0030C00F0158011F8013BDF
:10066000BCF1020F624498BF11F801CB00F8013BC6
:1006700038BF11F8013BA2F1040298BF00F801CB8A
:1006800038BF00F8013B11F0030300F01981083A6C
:10069000C0F0088051F8043B083A51F804CBA0E8B8
:1006A0000810F5E7121D5CBF51F8043B40F8043B0D
:1006B000AFF30080D20724BF11F8013B11F801CB42
:1006C00048BF11F8012B24BF00F8013B00F801CB13
:1006D00048BF00F8012B704702F0FF0343EA0322F2
:1006E00042EA024200F002B84FF000020429C0F0D2
:1006F000128010F0030C00F01B80CCF1040CBCF154
:10070000020F18BF00F8012BA8BF20F8022BA1EBA5
:100710000C0100F00DB85FEAC17C24BF00F8012B8A
:1007200000F8012B48BF00F8012B70474FF0000282
:1007300000B5134694469646203922BFA0E80C50D7
:10074000A0E80C50B1F12001BFF4F7AF090728BFB2
:10075000A0E80C5048BF0CC05DF804EB890028BF2E
:1007600040F8042B08BF704748BF20F8022B11F057
:10077000804F18BF00F8012B7047704770477047D3
:1007800070472DE9F0470D4699469246044600F120
:1007900024080168880604D5E06921F01001216071
:1007A00000E00120A84201DD471B00E00027A1690D
:1007B0007A1902EB0900081AA0612078C00602D459
:1007C0002046FFF7BFFD002608E0D4E901211AF812
:1007D00006009047206A401C761C20624E45F4DBE0
:1007E0002078C0060AD52046FFF7ACFD06E0D4E924
:1007F000012130209047206A401C2062381EA7F15A
:100800000107F4DC07E0D4E9012118F8050090475E
:10081000206A401C2062281EA5F10105F3DC204659
:10082000FFF7A6FD2078000602D50220BDE8F0877C
:100830000120FBE701694A1C02610878704700B596
:100840008FB0CDE901310021059105497944CDE909
:10085000031011466846FFF72DFE0FB000BD0000E3
:10086000E5FFFFFF0A6802F8010B0A60704710B548
:10087000436913B1AFF3008001E0FFF78AFD012067
:1008800010BD127800F124010A7000224A70012282
:10089000EDE711684FF0FF32E9E70000074B70B554
:1008A0000D467B44FFF7CBFF0446284600F03AF89C
:1008B00010B14FF0FF3070BD204670BD571D0000D5
:1008C00010B5203AC0F00B80B1E81850203AA0E8EB
:1008D0001850B1E81850A0E81850BFF4F5AF5FEA1F
:1008E000027C24BFB1E81850A0E8185044BF18C9D2
:1008F00018C0BDE810405FEA827C24BF51F8043B79
:1009000040F8043B08BF7047D20728BF31F8023BCC
:1009100048BF11F8012B28BF20F8023B48BF00F860
:10092000012B7047007B00F080007047754600F097
:1009300029F8AE4605006946534620F00700854673
:1009400018B020B5FFF7CAFCBDE820404FF0000604
:100950004FF000074FF000084FF0000B21F00701A7
:10096000AC46ACE8C009ACE8C009ACE8C009ACE8EA
:10097000C0098D4670470446AFF300802046FFF75C
:100980004CFC00000048704734600020FEE7000087
:1009900070B500252C4600F0ABFA10B1641C032C96
:1009A000F9DB032C00D1251F00241DA11FA000F09E
:1009B000EDF910B1641C032CF7DB032C00D1651F8B
:1009C000002440F25B7631461AA000F019F910B10C
:1009D000641C032CF7DB032C00D1A51F002419A0F5
:1009E00000F02CFA10B1641C032CF8DB032C00D1AE
:1009F000E51F2D1D052D11D2DFE805F00B090705B8
:100A0000030012A006E016A004E01BA002E01EA056
:100A100000E021A0BDE87040FFF774BC70BD00008D
:100A200051464B4A363636383838000051464B4A24
:100A3000000000003139322E3136382E33302E325C
:100A4000313900007365744D33000000CBF9D3D009
:100A5000C1ACBDD3BEF9D5FDB3A32121210D0A0040
:100A6000C9E8D6C3CEAAD5BEB5E3C4A3CABDCAA73A
:100A7000B0DC210D0A000000C1ACBDD37769666906
:100A8000CAA7B0DC210D0A00C1ACBDD34950CAA72A
:100A9000B0DC210D0A000000C1ACBDD36D717474CF
:100AA000CAA7B0DC210D0A00C10002D502490860C6
:100AB0007047024948607047040402400000024049
:100AC0000029016802D041F0010102E04FF6FE72F8
:100AD000114001607047000001684FF6FE7211403E
:100AE00001600021016041608160C1603149314A8B
:100AF0000839904203D1486840F00F0006E02D4AC3
:100B00001432904204D1486840F0F00048607047C9
:100B1000284A2832904203D1486840F47060F5E7D3
:100B2000244A3C32904203D1486840F47040EDE7DB
:100B3000204A5032904203D1486840F47020E5E7E3
:100B40001C4A6432904203D1486840F47000DDE7EB
:100B5000184A7832904203D1486840F07060D5E777
:100B6000154A111F904203D1086840F00F0006E0BB
:100B7000114A1432904204D1086840F0F000086035
:100B800070470D4A2832904203D1086840F47060E3
:100B9000F5E7094A3C32904203D1086840F47040BE
:100BA000EDE7054A50329042EAD1086840F47020DF
:100BB000E5E700000800024008040240406880B2F7
:100BC000704730B5026847F6F0739A430C6A8B6839
:100BD0002343D1E904452C4323438C692343CC6947
:100BE00023434C6A23438C6A234313430360CA683C
:100BF00042600A6882604968C16030BD7047000089
:100C00002DE9F043884681464FF48075A1B029460E
:100C10003A48FFF769FD80216846FFF787FD38A154
:100C20006846FFF77BFB6846FFF7F2FCC1B26846F7
:100C300000F062FE00233C4C5E1E324619462068DE
:100C400002F06EFE40F2DC57384601F0A1FC2A4665
:100C50002A49364800F08CF9284935A0FFF752FBA5
:100C600039A12648FFF7C2FC00282FD02946234887
:100C7000FFF73AFD80216846FFF758FD43464A4694
:100C800032A16846FFF74AFB6846FFF7C1FCC1B2D4
:100C9000684600F031FE002332461946206802F013
:100CA0003FFE384601F074FC2A4614491F4800F004
:100CB0005FF912492BA0FFF725FB23A10F48FFF78F
:100CC00095FCC0B1002021B0BDE8F08380216846CA
:100CD000FFF72CFD29460948FFF706FD27A16846C6
:100CE000FFF71CFB6846FFF793FCC1B2684600F0B3
:100CF00003FE0420E7E70320E5E70000325F002061
:100D000041542B4D515454555345524346473D3061
:100D10002C312C224D33222C22222C22222C302C1E
:100D2000302C222200000000180000204003002088
:100D300044656275672D436F6E6E6563742D555300
:100D400045523A20257300004F4B000041542B4D73
:100D5000515454434F4E4E3D302C222573222C25A6
:100D6000642C300044656275672D436F6E6E656359
:100D7000742D49503A2025730000000041542B4D3A
:100D8000515454434C45414E3D30000070B50D4622
:100D900006464FF48074A0B021461948FFF7A4FC22
:100DA00080216846FFF7C2FC2B46324615A16846F3
:100DB000FFF7B4FA6846FFF72BFCC1B2684600F0B3
:100DC0009BFD002314485D1E2A461946006802F068
:100DD000A7FD4FF47A7001F0DBFB224608490F486B
:100DE00000F0C6F806490EA0FFF78CFA12A10448DD
:100DF000FFF7FCFB10B1002020B070BD2846FBE7D8
:100E0000325F002041542B43574A41503D22257305
:100E1000222C22257322000018000020400300200D
:100E200044656275672D436F6E6E6563742D574917
:100E300046493A25730000004F4B000030B5054687
:100E40004FF48074A1B021461848FFF74DFC802173
:100E50006846FFF76BFC2A4615A16846FFF75EFA65
:100E60006846FFF7D5FBC1B2684600F045FD15485E
:100E700000235A1E1946006802F052FD642001F05A
:100E800087FB22460949104800F072F807490FA075
:100E9000FFF738FA15A10548FFF7A8FB10B10020AD
:100EA00021B030BD6FF00300FAE70000325F002090
:100EB00041542B4D5154545355423D302C222573EF
:100EC000222C310018000020400300204465627588
:100ED000672D436F6E6E6563742D4D5154545F538F
:100EE00075623A2022257322000000004F4B00005B
:100EF00010B54FF4807421461148FFF7F5FB0B2124
:100F000010A000F0F9FC124800235A1E1946006890
:100F100002F006FD0A2001F03BFB224608490D487D
:100F200000F026F806490CA0FFF7ECF90FA10448E1
:100F3000FFF75CFB08B1002010BD032010BD0000CE
:100F4000325F002041542B43574D4F44453D310003
:100F5000180000204003002044656275672D53652A
:100F60007453746174696F6E3A2573004F4B0000BF
:100F700070B584880389C5881C44641B94FBF3F511
:100F800003FB15439CB2944200D9144600230BE0A6
:100F9000C28805891A44B2FBF5F605FB16220568DE
:100FA000AA5CCA545B1C9BB2A342F1D3C1880289DC
:100FB0002144B1FBF2F302FB1311C180204670BD46
:100FC000016000218180C18002817047F0B5CC783A
:100FD000002204F00F03E40601D58C7823430C783B
:100FE0004FF00F0C14F0FF0F4FF0010E1BD00568EF
:100FF0000E880EFA02F42640A64210D196000CFA92
:1010000006F725EA070703FA06F5CE783D43282EB2
:1010100002D0482E02D002E0446100E00461521C7C
:10102000082AE5D305600A88FF2A1CD944680022F3
:1010300002F108060EFA06F50E882E40AE420ED1D9
:1010400096000CFA06F7BC4303FA06F7CE783C4349
:10105000282E00D14561CE78482E00D10561521C62
:10106000082AE5D34460F0BDF0B5144C002801DA3D
:10107000E36900E06368450D2E0185B2C0F30157B6
:10108000B540C0F30342032F05D0C6020AD503269C
:101090009640B34307E023F07062636823F0706307
:1010A000636002E0AB4343F0706201B12A43002861
:1010B00001DAE261F0BD6260F0BD000000000140B5
:1010C000FEE700002DE9F041ADF5816D012104201E
:1010D00000F052FB0121084600F04EFB0121384888
:1010E000FFF7C2FF4FF40040ADF8000410264FF0A8
:1010F0000308344D8DF8036444468DF802840DF5E1
:1011000080612846FFF762FFADF8006428208DF863
:1011100003048DF802440DF580612846FFF756FF61
:10112000294C0025C4F8BC51C4F810514FF4FA778B
:1011300005E026A0FFF7E6F8384601F029FAD4F8D2
:1011400010010028F5D10127C4F8BC71282001F056
:101150001FFA062121A001F033F9224800235A1E6C
:101160001946006802F0DCFB1E2001F011FABA02F9
:1011700069461D48FFF7FCFE1CA16846FFF736FADA
:1011800010B11BA0FFF7BEF8C4F8BC71282001F015
:10119000FFF91D4845F210410180867080F80380F8
:1011A0000521017145718571C57107210172457273
:1011B00000F02CF80DF5816D0020BDE8F0810000F5
:1011C0000002300000080140000021426C6F726193
:1011D000206572726F7221210A000000415445306F
:1011E0000D0A000010000020B00300204F4B00004B
:1011F0004C6F726120496E69742053756363736527
:101200006566756C0D0A000028010020F0B5AC4C35
:1012100093B0D4F810010028FBD10120C4F8BC0120
:10122000282001F0B5F9A74DA7A12888020AC3B26A
:101230000DA8FFF773F80DA8FFF7EAF981B20DA822
:1012400001F0BEF80023A54E5F1E3A4619463068ED
:1012500002F066FB642001F09BF932226946A04847
:10126000FFF786FE9FA16846FFF7C0F900287DD0F2
:1012700014210DA8FFF75AFA34216846FFF756FAF1
:101280002B79AA7898A10DA8FFF748F80DA8FFF7C9
:10129000BFF981B20DA801F093F800233A46194630
:1012A000306802F03DFB322001F072F932226946CB
:1012B0008B48FFF75DFE8BA16846FFF797F9002882
:1012C0007ED014210DA8FFF731FA34216846FFF7CC
:1012D0002DFAEA7889A10DA8FFF720F80DA8FFF7ED
:1012E00097F981B20DA801F06BF800233A46194630
:1012F000306802F015FB322001F04AF932226946CB
:101300007748FFF735FE77A16846FFF76FF90028A9
:101310007ED014210DA8FFF709FA34216846FFF7A3
:1013200005FAAA7979A10DA8FEF7F8FF0DA8FFF735
:101330006FF981B20DA801F043F800233A4619462F
:10134000306802F0EDFA322001F022F932226946CB
:101350006348FFF70DFE63A16846FFF747F90028D1
:101360007ED014210DA8FFF7E1F900E090E03421D0
:101370006846FFF7DBF9EA7968A10DA8FEF7CEFF12
:101380000DA8FFF745F981B20DA801F019F8002367
:101390003A461946306802F0C3FA322001F0F8F8F4
:1013A000322269464E48FFF7E3FD4EA16846FFF73B
:1013B0001DF9002879D014210DA8FFF7B7F900E036
:1013C0006AE034216846FFF7B1F96A7957A10DA8A0
:1013D000FEF7A4FF0DA8FFF71BF981B20DA800F0DE
:1013E000EFFF00233A461946306802F099FA32209E
:1013F00001F0CEF8322269463948FFF7B9FD39A12C
:101400006846FFF7F3F8002852D014210DA800E039
:1014100045E0FFF78BF934216846FFF787F96B7ACF
:101420002A7A46A10DA8FEF779FF0DA8FFF7F0F87C
:1014300081B20DA800F0C4FF00233A461946306877
:1014400002F06EFA322001F0A3F8322269462448F5
:10145000FFF78EFD23A16846FFF7C8F858B300E0F8
:1014600020E014210DA8FFF761F934216846FFF749
:101470005DF90020C4F8BC01282001F089F8D4F8F7
:1014800010010028FBD131A0FEF73CFF13B0F0BDE6
:10149000694634A011E008E0694634A00DE06946D1
:1014A00034A00AE0694635A007E0694635A004E0AB
:1014B000694636A001E0694636A0FEF723FFE5E75E
:1014C000000021422801002041542B414444523D58
:1014D000253032782C253032780D0A00100000209B
:1014E000B00300204F4B000041542B574C52415445
:1014F000453D25642C25640D0A00000041542B5401
:10150000504F5745523D25640D0A000041542B436E
:10151000574D4F44453D25640D0A000041542B545E
:101520004D4F44453D25640D0A00000041542B57A2
:101530004C54494D453D25640D0A000041542B553E
:101540004152543D25642C25640D0A004C6F726194
:1015500020736574207375636373656566756C21AC
:101560000D0A000025733A310D0A000025733A3246
:101570000D0A000025733A330D0A000025733A3432
:101580000D0A000025733A350D0A000025733A361E
:101590000D0A000025733A370D0A00009CB00021A7
:1015A000012002F053F91A4C206100F051FEFFF7C0
:1015B00089FD04F10C000325CDE900504FF480664D
:1015C0000023324613A1164802F09CFC04F10800E7
:1015D000CDE900500023B21012A1174802F092FC8E
:1015E0002D1F00232A461946206902F099F9324638
:1015F00002A91248FFF7BCFC642001F04BFF02A9CE
:101600000FA0FEF77FFE642102A8FFF78FF8E8E73E
:1016100000000020526669645F7461736B00000013
:10162000C918000873656E6452666964436D645F2F
:101630007461736B000000000D300008B0030020DF
:101640002573000070B50D46024600E0521C11786B
:101650002C29FBD112F8011F3A29FBD1941C2968CF
:10166000FEF7C4FF002823D020780021312801D0C4
:10167000696003E00120686000E0641C20783A287B
:10168000FBD114F8020F302800D1A96014F8010B27
:10169000303800EB80004000A860217808443038E2
:1016A000A8600A2804D16078302801D16420A8609D
:1016B00070BDFEE77047000030B50F23C278017897
:1016C0000125F2B1144A126801F1E02102F4E0624E
:1016D000C2F5E062120AC2F10404D3404278A2408B
:1016E00084781C401443220181F80024007800F023
:1016F0001F018D404009800000F1E020C0F800513A
:1017000030BD01F01F0085404809800000F1E02055
:10171000C0F8805130BD00000CED00E002490843E4
:1017200002490860704700000000FA050CED00E077
:10173000044A0029516901D0014300E0814351610D
:101740007047000000100240044A0029D16901D00E
:10175000014300E08143D161704700000010024066
:10176000044A0029116901D0014300E0814311615D
:101770007047000000100240044A0029916901D01E
:10178000014300E081439161704700000010024076
:10179000044A0029D16801D0014300E08143D160AF
:1017A000704700000010024030B5204A5168204BBD
:1017B00011F00C0103D0042901D0082901D00360E5
:1017C00012E05168536801F470114FF0020413F4F1
:1017D000803F04EB914102D053689B0301D5154B28
:1017E00000E0134B5943016051680F2303EA1111C4
:1017F000114B5C5C0168E14041605468072505EAD3
:1018000014241C5D21FA04F48460546805EAD4248D
:101810001B5DD940C1605268032303EA9232064B34
:101820001B1F9A5CB1FBF2F1016130BD0010024058
:1018300000127A0000093D007400002010B5064C2B
:10184000012060716178204600F045F961782046FA
:10185000BDE8104000F0EABDF900002070B564203A
:1018600001F018FE4FF4806212491348FFF780FB25
:10187000104D00242E197079A02801D2302100E0EB
:10188000372101EB10110DA0FEF73CFD707900F03F
:101890000F010A290AA001D2303100E03731FEF7EA
:1018A00031FD641CE4B2062CE4D306A0FEF72AFD49
:1018B000002070BD145F0020BC0B002025630000D9
:1018C000256320000A0000004FF4165001F0A2FB2F
:1018D0000021012001F0BAFF064C4FF0FF35606196
:1018E00000232A461946606902F01AF8FFF7B6FF8E
:1018F000F6E700000000002010B5C0B00C4602461C
:1019000004A16846FEF70AFDA11C684600F0BAFB78
:1019100040B010BD25730D0A000000000CB5002278
:10192000264800920192016841F4803101604FF431
:10193000A063016801F4003101910099491C0091F4
:10194000019911B900999942F3D10168890333D5FE
:10195000012101911A490A6842F010020A600A68DE
:1019600022F003020A600A6842F002020A6041683B
:10197000416041684160416841F480614160416873
:1019800021F47C114160416841F4E8114160016833
:1019900041F08071016001688901FCD5416821F046
:1019A00003014160416841F0020141604168C1F3B7
:1019B00081010229FAD10CBD01920CBD0010024038
:1019C000002002404FF0E0210428086903D020F0F5
:1019D00004000861704740F00400FAE710B502F017
:1019E000BDFA012803D0BDE8104001F019BF10BDB9
:1019F0000F4810B5016841F00101016041680D4ACE
:101A00001140416001680C4A11400160016821F4F5
:101A100080210160416821F4FE0141604FF41F0103
:101A20008160FFF77BFF05494FF00060086010BD43
:101A3000001002400000FFF8FFFFF6FE08ED00E096
:101A400010B5084C0121204600F039F8012802D1D8
:101A500005A0FEF757FC2046BDE81040012100F02C
:101A60002BB800000004004054494D33CAE4B3F6DB
:101A70002E2E2E2E2E2E2E0D0A00000010B5084CF4
:101A80000121204600F01BF8012802D105A0FEF735
:101A900039FC2046BDE81040012100F00DB80000DF
:101AA000000C004054494D35CAE4B3F62E2E2E2EBC
:101AB0002E2E2E0D0A000000C943018270470246F7
:101AC0000020138A92890B4202EA010202D0002A06
:101AD00000D00120704730B500231A464D1E03E0A8
:101AE000845C6340521CD2B2AA42F9DB0844DA4358
:101AF00000F8012C30BD00007CB500200090019062
:101B00005020EFF3118480F31188BFF34F8FBFF3A0
:101B10006F8F1C4D40F224463146284600F066F98E
:101B2000B0B11948FFF74AF81849C0F1640088803D
:101B30001748006810B101A902F03CF9298828462D
:101B40001049091D09880091314600F0FDF815E0A3
:101B500040F226663146284600F048F970B1314619
:101B6000284600F0F1F8084800212830FEF7A8FFC9
:101B70000848406810B101A902F01CF984F31188EB
:101B80007CBD0000004C00403004024040030020B7
:101B9000180000204C0000207CB500201C4D009057
:101BA00040F2244401902146284600F01FF9B0B1CC
:101BB0001848FFF703F81849C0F5007088801748E7
:101BC000006810B101A902F0F5F8298828461049EB
:101BD000091D09880091214600F0B6F87CBD40F24D
:101BE00026642146284600F001F90028F6D0214657
:101BF000284600F0A9F8074800211438FEF760FFD6
:101C0000074840680028E9D001A902F0D3F87CBD5C
:101C10000038014058000240340300202C0000200E
:101C2000440000207CB500201C4D009040F224446C
:101C300001902146284600F0D9F8B0B11848FEF7C7
:101C4000BDFF1849C0F5806088801748006810B152
:101C500001A902F0AFF8298828461049091D098812
:101C60000091214600F070F87CBD40F226642146C8
:101C7000284600F0BBF80028F6D02146284600F0A0
:101C800063F8074800211430FEF71AFF0748406840
:101C90000028E9D001A902F08DF87CBD0044004085
:101CA0006C000240B003002010000020540000200F
:101CB0002DE9FC4100201F4C009040F22446019089
:101CC0003146204600F092F81B4FD8B13868251DE8
:101CD000A8B11A48FEF772FF1949C0F580608880E4
:101CE0001848006810B101A902F064F82188204664
:101CF00029880091314600F027F8BDE8FC810120D9
:101D00003860F3E740F226652946204600F06EF879
:101D10000028F2D02946204600F016F80748002196
:101D20001438FEF7CDFEB8680028E6D001A902F00D
:101D300041F8E2E7004800405C000020300002402B
:101D4000BC0B0020140000200A0A01219140C94365
:101D5000018070470029818902D041F4005101E0DF
:101D600021F4005181817047002A828A01D00A4300
:101D700000E08A4382827047174910B588420AD131
:101D800001218C032046FFF703FD2046BDE81040EB
:101D90000021FFF7FDBC1149884202D101214C040A
:101DA00010E00F49884202D101218C040AE00D495C
:101DB000884202D10121CC0404E00B4988420AD1B7
:101DC00001210C052046FFF7CBFC2046BDE8104062
:101DD0000021FFF7C5BC10BD0038014000440040A1
:101DE00000480040004C00400050004070B501F039
:101DF0001F0501260024C1F3421306FA05F2012B48
:101E00000FD0022B0FD0838A4FEA11210088134292
:101E100006FA01F600EA060001D000B101242046CE
:101E200070BD8389F0E7038AEEE710B5C1F3421372
:101E300001F01F040121A140012B07D0022B07D084
:101E40001430002A026805D00A4304E00C30F8E799
:101E50001030F6E78A43026010BD000030B504463A
:101E6000008A85B00D464CF6FF710840E9880143B1
:101E70002182A0894EF6F3110840A9882A891143CE
:101E80006A8902431143A181A08A4FF6FF410840AD
:101E9000A9890143A1826846FFF786FC194884425C
:101EA00001D1039800E00298A189090400EBC00168
:101EB00001EB0010296801D5490000E08900B0FB62
:101EC000F1F06422B0FBF2F109010B096FF0180583
:101ED0006B4300EB8300A3891D044FF0320306D54A
:101EE00003EBC000B0FBF2F000F0070005E003EBED
:101EF0000010B0FBF2F000F00F000843208105B0A5
:101F000030BD0000003801402DE9F04391B00121BF
:101F10001020FFF731FC0121C804FFF715FC4FF436
:101F20008060ADF83C0003208DF83E0018204E4C38
:101F30008DF83F000FA92046FFF748F8E114ADF8EF
:101F40003C1004218DF83F100FA92046FFF73EF802
:101F500034208DF8400005208DF8410001258DF8D2
:101F600042508DF8435010A8FFF7A6FB00244FF411
:101F7000E1300B90ADF834400C203C4EADF83040D1
:101F8000ADF83600ADF83240ADF838400BA9304618
:101F9000FFF764FF012240F224413046FFF745FF7E
:101FA000012240F226613046FFF73FFF0122C021A7
:101FB0003046FFF7D9FE01213046FFF7CBFE012165
:101FC0000220FFF7B5FBDFF8A8904846FEF784FD36
:101FD000361D28480096CDE9010403A96420802716
:101FE00081E8910020200694CDE907404FF4805805
:101FF000CDE9098469464846FEF7E3FD1E48FEF731
:1020000053FD01214846FEF75BFDDFF8649009F1BE
:1020100028094846FEF760FD10200096CDE90140F2
:10202000CDE90354CDE90574CDE908480794134878
:102030000A94FEF739FD69464846FEF7C2FD0D4990
:102040006422A1F10C00FEF7BBFF0121084601F05C
:10205000FDFB0B4C00212060012001F0F7FB6060CC
:1020600011B0BDE8F083000000100140004C0040BA
:10207000300402404C030020000100100000011059
:102080004C0000202DE9F0410C468046642927D8F9
:10209000002C25D0134D00234FF4FA763246194612
:1020A000286801F03DFC104F00213846FEF708FD7E
:1020B000381D04600C490C31C1F8008001213846FC
:1020C000FEF7FEFC002332461946686801F028FC42
:1020D0002868BDE8F04100231A46194601F036BDD4
:1020E000BDE8F0814C00002058040240FEE70000EB
:1020F0002DE9F04792B0012144F20400FFF73CFBC8
:102100004FF40075ADF83C5003208DF83E001820C8
:102110004A4C8DF83F000FA92046FEF757FF2115C6
:10212000ADF83C1004218DF83F100FA92046FEF7B2
:102130004DFF25208DF8400005208DF8410000243A
:102140008DF8424001268DF8436010A8FFF7B4FADD
:102150004FF4E1300B90ADF834400C20384FADF81F
:102160003040ADF83600ADF83240ADF838400BA93C
:102170003846FFF773FE012240F224413846FFF74C
:1021800054FE012240F226613846FFF74EFE01223E
:10219000C0213846FFF7E8FD01213846FFF7DAFD98
:1021A00001210846FFF7C4FADFF898A05046FEF771
:1021B00093FC3F1D244801A9009781E831004FF0AE
:1021C0008008CDE9044820200694CDE907404FF46B
:1021D0008059CDE9099469465046FEF7F2FC012189
:1021E0005046FEF76DFCDFF85CA0AAF1140A5046D9
:1021F000FEF772FC10200097CDE90140CDE90364A1
:10220000CDE90584CDE908490794694650460A940A
:10221000FEF7D7FC0C492A4601F50070FEF7D0FE08
:102220000121084601F012FB084C0021206001202A
:1022300001F00CFB606012B0BDE8F08700080140BF
:1022400000380140580002403401002044000020C2
:102250002DE9F04792B001210420FFF78DFA01210A
:102260004804FFF771FA514D2846FFF785FD042019
:10227000ADF83C0003208DF83E0018204C4C8DF842
:102280003F000FA92046FEF7A1FE0820ADF83C0054
:1022900048208DF83F000FA92046FEF797FE002446
:1022A0004FF4E1300B90ADF834400C20ADF83040E5
:1022B000ADF83600ADF83240ADF838400BA92846ED
:1022C000FFF7CCFD012240F224412846FFF7ADFD87
:1022D000012240F226612846FFF7A7FD0122C02116
:1022E0002846FFF741FD01212846FFF733FD262050
:1022F0008DF8400007208DF8410001258DF84250EF
:102300008DF8435010A8FFF7D7F901210846FFF7D1
:102310000FFADFF8A0A05046FEF7DEFB234E26485A
:10232000361D01A9AF02009681E891004FF08008A8
:10233000CDE9044820200694CDE907404FF48059A8
:10234000CDE9099469465046FEF73BFC0121504611
:10235000FEF7B6FBDFF85CA00AF1140A5046FEF760
:10236000BBFB10200096CDE90140CDE90354CDE937
:102370000584CDE908490794694650460A94FEF75A
:1023800020FC0D493A46A1F10C00FEF719FE01218F
:10239000084601F05BFA094C00212060012001F0A1
:1023A00055FA606012B0BDE8F087000000440040BC
:1023B000000801406C000240BC03002054000020D3
:1023C0002DE9F0410C468046B1F5806F27D8002CEE
:1023D00025D0144D00234FF4FA763246194628686A
:1023E00001F09EFA104F00213846FEF769FB0E48B7
:1023F000803840F8844FC0F8088001213846FEF745
:102400005FFB002332461946686801F089FA2868A4
:10241000BDE8F04100231A46194601F097BBBDE81C
:10242000F081000054000020800002402DE9F041BE
:102430000C460746B1F5806F24D8002C22D0124DEF
:1024400000234FF4FA721946686801F069FA0F4EDA
:1024500000213046FEF734FB0C481C3804628762CA
:1024600001213046FEF72CFB00235A1E1946A868AE
:1024700001F056FA6868BDE8F04100231A46194693
:1024800001F064BBBDE8F0815C0000201C0002404C
:102490009CB00021012001F0D9F91B4CA061FFF78D
:1024A00033FDFEF775FA211D0320CDE9000100235D
:1024B0004FF4806215A1184801F024FD4FF0FF355C
:1024C00000232A461946A06901F02AFA642102A8CD
:1024D000FEF72CF9642202A91048FEF749FD10A16D
:1024E00002A8FEF783F80028EAD002A910A0FDF7A1
:1024F00009FF642102A8FFF763FF034902A81C310A
:10250000FFF7A0F8DCE70000000000204C6F7261CC
:102510005F7461736B0000009D150008400300208C
:102520002B4D515454535542524543563A300000B6
:1025300052583D25730D0A0030380A2801D2012077
:10254000704700207047704710B50420FFF73AFA33
:102550000C480D490D4A0068B0FBF1F3B0FBF1F1F6
:102560004FF47A7041431370012050804FF0E02007
:10257000026942F0020202614161016941F0010118
:10258000016110BD3000002040420F0068000020B3
:1025900070B5044601F0E2FC01280CD0094D6888B2
:1025A000844203D3B4FBF0F000F074FF6888B4FBFE
:1025B000F0F100FB11444FF47A706043BDE87040C5
:1025C00000F002B86800002070B54FF0E02500214F
:1025D0006C69094AAB6912785043AA699A42FCD0E7
:1025E00002D2A3EB020302E0A4EB02063344194437
:1025F00013468142F1D370BD6800002004490A8867
:102600001206FCD5024AC1B2121D118070470000AB
:10261000003801401CB54FF44070FFF77FF8FFF71A
:1026200093FFFFF765FD07490320CDE90001002373
:1026300040F6080204A1074801F064FC01F024F808
:10264000FEE7000000000020576966695F7461734F
:102650006B000000912400082DE9F041184E0F4650
:102660000446F5683068001D00F08AFD38B930680E
:1026700090F82C1001208840316981433161601C41
:1026800007D137B13168BDE8F0410E48091D00F0AF
:10269000AFBD30682C44AC424460316805D2B06BA9
:1026A000BDE8F041091D00F08BBD706B091D00F005
:1026B00087FDB06A844200D2B462BDE8F0810000B8
:1026C00084000020D80E00202DE9F041054600F0DE
:1026D0009BFD2D4EB068401CB06030682B4F10B190
:1026E000706930B32BE03560B068012827D1002431
:1026F00004EB840007EB800000F054FD641C202CE8
:10270000F6D3234800F04EFD2148143000F04AFD76
:102710001F48283000F046FD1D483C3000F042FDC7
:102720001B48503000F03EFD194870631430B06310
:1027300005E03068E96AC06A884200D83560706A8E
:102740000121401C70626864E86A3269814011436B
:10275000316100EB800007EB8000291D00F048FD8F
:1027600000F08EFD706900280CD03068E96AC06AFC
:10277000884207D207494FF080500860BFF34F8F5F
:10278000BFF36F8FBDE8F08184000020080C0020AB
:10279000880E002004ED00E010B500F035FD0E4C71
:1027A0002068A0B90D4800F0FDFC0C48143000F082
:1027B000F9FC0A48E0601430206100221021052055
:1027C00001F072F8206010B105A100F02FFEBDE805
:1027D000104000F055BD0000C0000020EC0E0020AD
:1027E000546D72510000000070B5124E124D1CE085
:1027F00000F094FF306820B1002401F0DDFCA4B9A2
:1028000001E00124F9E700F0FFFCF068C468201D36
:1028100000F0B6FCA868401EA8606868401E6860AA
:1028200000F02EFD204600F052F868680028DFD145
:1028300070BD0000C40E00208400002030B4026C83
:102840000B46002A0BD0C1681144C1604468A14204
:1028500001D30168C16030BC1846FDF7F8BE30BC3A
:1028600070472DE9F041856B174604460026026C3F
:1028700082B1C7B1E068FDF7EAFEE168206C091A91
:10288000E1602268914202D26168081AE060022F7A
:1028900016D017E02068A8B9606801F0E7FB06468B
:1028A000002060600EE0A068FDF7D1FE216CA068FA
:1028B0000844A0606168884204D32068A06001E0F9
:1028C00005B16D1E6D1CA5633046BDE8F08110B5E5
:1028D0000446006B00F006FD2046BDE8104000F005
:1028E00001BD000010484FF4A041420706D0C01DB2
:1028F0000D4920F00700411AC1F5A0410B4A002301
:102900000144C2E900030839103A21F007011160BF
:102910004B600B600B1AC0E9001393604FF000404E
:102920005360D06070470000140F0020E4000020C6
:10293000074E4FF08054074DFFF756FF30680128CF
:10294000FAD92C60BFF34F8FBFF36F8FF4E700000D
:10295000080C002004ED00E02DE9F047DDE90984D2
:102960000E461746824691009946089DA522206B87
:10297000FDF7B2FE6FF00301206B01EB8701084405
:1029800020F00707780705D040F22B3219A11EA0CE
:10299000FDF7B8FC00202218315C82F83410315C5D
:1029A00011B1401C1028F6D3002684F84360202D76
:1029B00000D31F25E562C4E91356201D00F0FDFB7E
:1029C00004F1180000F0F9FB2461C5F120006462F5
:1029D000A061666584F858604A465146384600F062
:1029E00003FB2060B8F1000F01D0C8F80040BDE83B
:1029F000F08700002E2E5C4672656552544F535C82
:102A00007461736B732E63004572726F723A257333
:102A10002C25640D0A00000030B5114900E0114674
:102A20000A688242FBD34B685C18844203D1406839
:102A300018444860084643681C18944209D1084C61
:102A4000103C2468A24209D052681A4442600A68C5
:102A500012680260814200D0086030BD0460F9E76E
:102A6000E400002070B5002441600B4D00619142EC
:102A700006D8D11A8269914206D2011D286907E061
:102A80009A4203D2994201D3012403E0011DE86870
:102A900000F096FB204670BDC000002010B5044633
:102AA00000F0B2FBA06B20B1002400F0E9FB20464F
:102AB00010BD0124F9E700002DE9F34100980F460D
:102AC0000026846C2CB940F6CE1216A11AA0FDF790
:102AD00019FCA06BE16B884205D340F6CF1211A11F
:102AE00015A0FDF70FFCA06BE16B88420CD294F9A6
:102AF00045503A4669462046FFF7B3FE0646681C35
:102B000005D06D1C84F845503046BDE8FC81606AF4
:102B10000028F9D004F1240001F002FB0028F3D0D2
:102B20000126F1E72E2E5C4672656552544F535CC8
:102B300071756575652E63004572726F723A257303
:102B40002C25640D0A000000F8B5054614480E4611
:102B5000C068C068C468201D00F012FBE06901284D
:102B600017D1A0692B46411932462046FFF77AFF5C
:102B700078B100200346014600902A46204601F025
:102B800001FC30B907494FF4027201F11800FDF75A
:102B9000B9FB616A01B02046BDE8F040084700007B
:102BA000C0000020E842000870B586B02F4E53E008
:102BB0000198002806DADDE90301029A904701989E
:102BC000002849DB039C606910B1201D00F0D8FA91
:102BD00005A800F0A7F8054601980A283CD2DFE8CE
:102BE00000F00505053B273805053B270298A1693C
:102BF000034601442A462046FFF734FF00282BD025
:102C0000616A20468847E069012825D100200090AC
:102C10000298A169002342181946204601F0B2FB30
:102C2000D0B940F2213212A117A0FDF76BFB13E0DF
:102C30000298A06128B94FF44E720DA112A0FDF7C1
:102C400061FBA0692B4641191A462046FFF70AFF8F
:102C500002E0204600F046FB00231A4601A9306836
:102C600000F05EFE0028A3D106B070BDC0000020B9
:102C70002E2E5C4672656552544F535C74696D65C7
:102C800072732E63000000004572726F723A2573F2
:102C90002C25640D0A000000F8B50D46064600F02C
:102CA0003DFD684600F03EF80446009810B101F082
:102CB00083FAF8BD1148ADB101690968D9B10025A1
:102CC000311B2A46006800F0C3FB01F075FA0028AA
:102CD000EFD10B494FF080500860BFF34F8FBFF327
:102CE0006F8FF8BDA642EBD801F066FA2146304658
:102CF000FFF72AFFF8BD0125E2E70000C000002031
:102D000004ED00E00648416B096829B1416BC968D0
:102D1000C9684968816270474FF0FF31FAE70000E7
:102D20008400002070B5054601F026F9064E0446E1
:102D3000B068844203D200F009F8012000E00020CE
:102D400028602046B46070BDC0000020F8B5184E61
:102D500026E0C068C4680568201D00F011FA616AA9
:102D600020468847E06901281AD1A0692844A84272
:102D700006D924616060211DF06800F021FA0FE09F
:102D800000200346014600902A46204601F0FAFA48
:102D900030B9084940F2923201F11800FDF7B2FA59
:102DA000F06801680029D4D13169C6E90310F8BD83
:102DB000C0000020E842000808484068401C04D0D9
:102DC000F42207A111A0FDF79DFA502080F311888D
:102DD000BFF34F8FBFF36F8FFEE70000EC000020C2
:102DE0002E2E5C4672656552544F535C706F727440
:102DF00061626C655C525644535C41524D5F434D79
:102E0000335C706F72742E63000000004572726F45
:102E1000723A25732C25640D0A000000084CE06806
:102E2000016839B1002139B10020FFF735FFFFF704
:102E3000BBFEF4E70121F6E7C0680068F5E7000093
:102E4000C00000202DE9F041044600F0DDF994F9BE
:102E5000455004F1240610E0A06C20B1002120466A
:102E6000FFF72AFE04E0606A48B1304601F058F9E5
:102E700008B100F045FB6D1E6DB2002DECDC4FF08B
:102E8000FF3684F8456000F0FBF900F0BDF994F9D5
:102E9000445004F1100709E0206948B1384601F0B8
:102EA0003FF908B100F02CFB6D1E6DB2002DF3DC74
:102EB00084F84460BDE8F04100F0E2B92DE9F0414A
:102EC0000546002600F02AFC324F386808B9FFF7A3
:102ED00009FDF86805424FD1002D4DD0083568072F
:102EE0000BD005F00700C0F108000544680704D0C6
:102EF000BF2229A132A0FDF705FA002D3CD0786849
:102F0000854239D8234910310846046801E021463A
:102F100004466068A84202D220680028F7D13868C9
:102F2000B846844228D00E68206808606068083679
:102F3000401B10280ED96719780704D0EC2216A17F
:102F40001FA0FDF7DFF96068401B786038466560B8
:102F5000FFF762FD6168D8F804004246401AC8F8DD
:102F60000400D8F80830984200D29060D8F80C00DD
:102F700001430020C4E9000101F01EF9700705D0EB
:102F80004FF4967204A10EA0FDF7BCF93046BDE8DF
:102F9000F0810000D40000202E2E5C467265655240
:102FA000544F535C706F727461626C655C4D656DFB
:102FB0004D616E675C686561705F342E6300000070
:102FC0004572726F723A25732C25640D0A00000059
:102FD0000449086818B10868026D521C0265086847
:102FE000704700008400002010B5031F4FF080746C
:102FF0001C601B1F21F001011960191F024B0B609F
:10300000143940380A6010BDB92D0008FEF716FCCF
:10301000FCE700002DE9F047044692B001210820AA
:10302000FEF7AAFB01218804FEF78EFB4F4E3046C7
:10303000FEF7A2FE3515ADF83C5003208DF83E009A
:1030400018204B4F8DF83F000FA93846FDF7BEFF03
:103050006800ADF83C0048208DF83F000FA93846C5
:10306000FDF7B4FF0B940024ADF834400C20ADF80C
:103070003040ADF83600ADF83240ADF838400BA91D
:103080003046FEF7EBFE012240F224413046FEF7C7
:10309000CCFE012240F226613046FEF7C6FE012238
:1030A000C0213046FEF760FE01213046FEF752FE99
:1030B00027208DF8400006208DF8410001268DF86C
:1030C00042608DF8436010A8FEF7F6FA0121084629
:1030D000FEF72EFBDFF89CA05046FDF7FDFC234FCA
:1030E00025483F1D01A9009781E831004FF0800974
:1030F000CDE9044920200694CDE907404FF48058DB
:10310000CDE9098469465046FDF75BFD0121504633
:10311000FDF7D6FCDFF85CA0AAF1140A5046FDF7D3
:10312000DBFC10200097CDE90140CDE90364CDE937
:103130000594CDE908480794694650460A94FDF77E
:1031400040FD0D492A4601F58060FDF739FF012158
:10315000084600F07BFB094C00216060012000F074
:1031600075FBA06012B0BDE8F08700000048004089
:10317000000C014030000240BC0700205C00002031
:10318000D0E9013201699A60D0E901235A604A68A6
:10319000824201D182684A60002202610868401EB2
:1031A0000860704700F108014FF0FF32C0E90112DA
:1031B000C160016100210160704700210161704719
:1031C00030B50C68621C02D000F1080202E002690E
:1031D00004E01A4653681D68A542FAD953684B604B
:1031E00099608A60516008610168491C016030BDC6
:1031F00042684A6093688B60936859609160086187
:103200000168491C01607047502080F31188BFF3AA
:103210004F8FBFF36F8F09494868401C48600128F1
:103220000AD10748006810F0FF0F05D04FF4BD72B7
:1032300004A10FA0FDF766B870470000EC00002065
:1032400004ED00E02E2E5C4672656552544F535CCF
:10325000706F727461626C655C525644535C41528B
:103260004D5F434D335C706F72742E63000000003D
:103270004572726F723A25732C25640D0A000000A6
:1032800010B5084C606828B940F2811206A111A05F
:10329000FDF738F86068401E606001D180F3118846
:1032A00010BD0000EC0000202E2E5C4672656552B9
:1032B000544F535C706F727461626C655C5256441B
:1032C000535C41524D5F434D335C706F72742E639B
:1032D000000000004572726F723A25732C25640D50
:1032E0000A00000070B500282AD0164DA0F108048D
:1032F0006068E968084205D14FF4A07212A11CA0D1
:10330000FDF700F8206828B140F241120EA118A084
:10331000FCF7F8FF6068E968084211D02268002ACB
:103320000ED18843606000F0F9F96068696808446C
:1033300068602046FFF770FBBDE8704000F03CBFBE
:1033400070BD0000D40000202E2E5C4672656552D0
:10335000544F535C706F727461626C655C4D656D47
:103360004D616E675C686561705F342E63000000BC
:103370004572726F723A25732C25640D0A000000A5
:1033800006484FF47A710068B0FBF1F14FF0E0208D
:10339000491E416107210161704700003000002093
:1033A00010B5FCF789FF104C10280CD300F1E02079
:1033B00090F8F0032178884205D24FF42A720BA1CD
:1033C00015A0FCF79FFF18480068A16800F4E060B2
:1033D000884207D9BDE810404FF42E7203A10EA019
:1033E000FCF790BF10BD0000EC0000202E2E5C46C4
:1033F00072656552544F535C706F727461626C6594
:103400005C525644535C41524D5F434D335C706F88
:1034100072742E63000000004572726F723A257359
:103420002C25640D0A0000000CED00E010B5074BE0
:10343000002253F832401CB1521C082AF9D310BDA7
:1034400043F8321003EBC201486010BDC80B0020E6
:1034500070B515460E460446FFF7D6FE94F94410A3
:103460000020491C01D184F8440094F94510491CFE
:1034700001D184F84500FFF703FFA06B28B92A4665
:10348000314604F1240000F06BF82046BDE870409E
:10349000FFF7D8BC10B5040012D00E49096B29B152
:1034A00040F2CF420CA111A0FCF72CFF00F036F93E
:1034B00000212046FFF7D0F800F07EFE002807D15B
:1034C0000E494FF080500860BFF34F8FBFF36F8FEE
:1034D00010BD0000840000202E2E5C4672656552EF
:1034E000544F535C7461736B732E63004572726F3B
:1034F000723A25732C25640D0A00000004ED00E0EB
:1035000001490120C86170478400002070B50D4654
:10351000040005D140F6063207A10CA0FCF7F2FE2C
:103520000E48016820461831FFF74AFE2846BDE8DC
:1035300070400121FFF790B82E2E5C4672656552EF
:10354000544F535C7461736B732E63004572726FDA
:10355000723A25732C25640D0A00000084000020B7
:1035600070B514460E46050005D140F6313209A16A
:103570000DA0FCF7C7FE1048016828461831FFF778
:1035800037FE0CB14FF0FF3621463046BDE87040A3
:10359000FFF762B82E2E5C4672656552544F535C3D
:1035A0007461736B732E63004572726F723A257388
:1035B0002C25640D0A0000008400002070B5040072
:1035C00039D01D4DE06A2968C96A884233D2A069A2
:1035D000002804DB2868C06AC0F12000A061E06A0E
:1035E000164E00EB8000616906EB800081421FD11E
:1035F000201DFFF7C5FD012150B9E06A00EB8002F4
:1036000056F8222022B92A6901FA00F082432A6181
:103610002868C06AE0622A6981401143296100EB91
:10362000800006EB8000211DBDE87040FFF7E0BD83
:103630002868C06AE06270BD84000020080C002089
:1036400010B5040005D140F6C13205A109A0FCF770
:1036500059FE0C48016A2160C068606010BD00001E
:103660002E2E5C4672656552544F535C7461736BC9
:10367000732E63004572726F723A25732C25640DA8
:103680000A000000840000201CB517480024CDE982
:1036900000402346822215A1164800F033FC012881
:1036A00003D100F035FE01280AD0401C1BD102B026
:1036B00040F28472BDE810400FA114A0FCF722BEB6
:1036C000502080F31188BFF34F8FBFF36F8F0648F0
:1036D0004FF0FF312C38816201214161C460BDE8A7
:1036E0001C4000F061B81CBDB000002049444C45AE
:1036F00000000000312900082E2E5C4672656552DC
:10370000544F535C7461736B732E63004572726F18
:10371000723A25732C25640D0A0000000248016BE3
:10372000491C0163704700008400002070B5134DF0
:10373000286B10B10120E86170BD0020E8612869A4
:103740000F4EB0FA80F0C0F11F0000EB800456F875
:10375000240028B940F6F6220AA10FA0FCF7D2FDFA
:1037600006EB840000F1080241684968416091421B
:1037700001D149684160C868286070BD840000209C
:10378000080C00202E2E5C4672656552544F535C27
:103790007461736B732E63004572726F723A257396
:1037A0002C25640D0A0000001CB51A490878019008
:1037B000FF20087008788DF800009DF80000164A78
:1037C00000F0500010700720906007E09068401EE5
:1037D00090609DF8000040008DF800009DF800000A
:1037E0000006F3D4107A000200F4E06090600198C3
:1037F00008700A48016841F470010160016841F0F5
:1038000070410160FFF7BCFD00205060FCF71EFD19
:1038100000201CBD00E400E0EC00002020ED00E0F2
:1038200010B5502080F31188BFF34F8FBFF36F8F17
:1038300000F0A8FB18B104494FF080500860002048
:1038400080F3118810BD000004ED00E070B50C4657
:10385000050005D140F2BD220AA10FA0FCF752FDE0
:10386000AC4205D940F2BE2206A10BA0FCF74AFDEE
:1038700002220021284600F017F8002800D08463B7
:1038800070BD00002E2E5C4672656552544F535C2D
:1038900071756575652E63004572726F723A257396
:1038A0002C25640D0A0000002DE9F04117460E4654
:1038B000050005D14FF4C47210A115A0FCF722FD3C
:1038C000BEB105FB06F05430FFF7F8FA04000ED045
:1038D00004F154007EB12060C4E90F562046012156
:1038E00000F0E0F884F8507000212046A164BDE8A3
:1038F000F0810020E7E72460EEE700002E2E5C4612
:1039000072656552544F535C71756575652E630021
:103910004572726F723A25732C25640D0A000000FF
:103920002DE9FF4F83B09B468A4604004FF0000606
:1039300005D140F2DC4251A155A0FCF7E3FCBAF1FD
:10394000000F07D1206C28B140F2DD424BA150A0FE
:10395000FCF7D8FC00F002FB38B9059828B14FF409
:103960009C6246A14AA0FCF7CDFC4FF000094FF045
:103970008057DFF82C81FFF747FCA56B45B3514614
:103980002046E668FEF75AFFBBF1000F13D0E66051
:10399000606A50B104F1240000F0C2FB28B1C8F8FD
:1039A0000070BFF34F8FBFF36F8FFFF769FC0120EB
:1039B00007B0BDE8F08F6D1EA563206810B9FFF752
:1039C00007FB606020690028EFD004F11000E3E7F6
:1039D000059808B11EB106E0FFF752FC27E06846E3
:1039E000FFF72EFE0126FFF74BFCFFF797FEFFF7D0
:1039F0000BFC94F94400401C01D184F8449094F9E4
:103A00004500401C01D184F84590FFF739FC05A919
:103A1000684600F033FA002820460AD0FFF712FA71
:103A200000F0CAFB2046FFF739F80028A3D0002099
:103A3000BEE7FFF733F8D8B1206830B9FFF7E4FBF1
:103A40006068FFF7BBFDFFF71BFC04F1240005993C
:103A5000FFF75CFD2046FFF7F5F900F0ADFB00280D
:103A600089D1C8F80070BFF34F8FBFF36F8F82E723
:103A70002046FFF7E7F900F09FFB7CE72E2E5C461F
:103A800072656552544F535C71756575652E6300A0
:103A90004572726F723A25732C25640D0A0000007E
:103AA00004ED00E070B50D46040005D140F21B1294
:103AB0001CA121A0FCF726FCFFF7A6FBD4E90F20F0
:103AC000216802FB001161600021A1632168A160EF
:103AD0000A46D4E90F01401E00FB0121E1602146A6
:103AE0004FF0FF3001F8440F487004F110004DB161
:103AF000FFF758FB04F12400FFF754FBFFF7C0FB6E
:103B0000012070BD21690029F8D000F009FB0028D0
:103B1000F4D00D494FF080500860BFF34F8FBFF3D2
:103B20006F8FEBE72E2E5C4672656552544F535CE7
:103B300071756575652E63004572726F723A2573F3
:103B40002C25640D0A00000004ED00E02DE9FF4F74
:103B500083B099468B4604004FF0000605D140F231
:103B6000D92252A156A0FCF7CDFBBBF1000F07D123
:103B7000206C28B140F2DA224CA151A0FCF7C2FB24
:103B8000B9F1020F08D1E06B012805D040F2DB2229
:103B900046A14BA0FCF7B6FB00F0E0F938B9059858
:103BA00028B140F2DE2241A145A0FCF7ABFB4FF06B
:103BB000000A4FF08057DFF81881FFF725FBA06B54
:103BC000E16B884206D3B9F1020F03D0059800B328
:103BD00016B325E04A4659462046FEF742FEA16C40
:103BE00021B149462046FEF767FF05E0616A19B139
:103BF00004F1240000F094FA28B1C8F80070BFF373
:103C00004F8FBFF36F8FFFF73BFB012007B0BDE87D
:103C1000F08FFFF735FB21E06846FFF711FD012625
:103C2000FFF72EFBFFF77AFDFFF7EEFA94F9440059
:103C3000401C01D184F844A094F94500401C01D1F6
:103C400084F845A0FFF71CFB05A9684600F016F9AB
:103C500030B12046FFF7F6F800F0AEFA0020D5E7C5
:103C6000FFF7D2FAA06BE16B884201D1012500E099
:103C70000025FFF705FB95B104F110000599FFF74A
:103C800045FC2046FFF7DEF800F096FA002894D1B4
:103C9000C8F80070BFF34F8FBFF36F8F8DE72046DA
:103CA000FFF7D0F800F088FA87E700002E2E5C4678
:103CB00072656552544F535C71756575652E63006E
:103CC0004572726F723A25732C25640D0A0000004C
:103CD00004ED00E02DE9F0479846154689460400BA
:103CE00005D140F29F322AA12EA0FCF70BFBB9F1BF
:103CF000000F07D1206C28B14FF4687224A129A0CD
:103D0000FCF700FBB8F1020F08D1E06B012805D0E9
:103D100040F2A1321EA123A0FCF7F4FAFFF740FB0A
:103D20005020EFF3118780F31188BFF34F8FBFF35B
:103D30006F8FA06BE16B884207D3B8F1020F04D0FC
:103D4000002087F31188BDE8F08794F9456042466A
:103D500049462046FEF785FD701C04D0761C84F889
:103D600045600120EDE7A06C012620B141462046C8
:103D7000FEF7A2FE06E0606A0028F2D004F12400FB
:103D800000F0CEF90028ECD0002DEAD02E60E8E754
:103D90002E2E5C4672656552544F535C7175657585
:103DA000652E63004572726F723A25732C25640D7F
:103DB0000A0000002DE9F0410D46040005D140F253
:103DC0003C4225A129A0FCF79DFA206C28B14FF4B4
:103DD000886221A125A0FCF795FA206838B96068AF
:103DE00028B140F245421CA120A0FCF78BFAFFF756
:103DF000D7FA5020EFF3118680F31188BFF34F8F6D
:103E0000BFF36F8FA16BE06B88421FD994F9450017
:103E1000491CA163411C04D0401C84F845000120CA
:103E200015E0A06C012720B100212046FEF744FEDA
:103E300006E0606A0028F2D004F1240000F070F976
:103E40000028ECD0002DEAD02F60E8E7002086F3B0
:103E50001188BDE8F08100002E2E5C467265655227
:103E6000544F535C71756575652E63004572726FB2
:103E7000723A25732C25640D0A00000070B50D46BA
:103E8000040005D140F6CB3214A119A0FCF73AFA90
:103E90002DB940F6CC3211A115A0FCF733FAFFF78B
:103EA000B3F9174AD06829684B1C0FD02368126AEF
:103EB000934202D0626882420AD96268801A8842BC
:103EC00006D2081A28602046FFF7BAFB002400E05B
:103ED0000124FFF7D5F9204670BD00002E2E5C4668
:103EE00072656552544F535C7461736B732E63003B
:103EF0004572726F723A25732C25640D0A0000001A
:103F0000840000202DE9FF5F8346DDE90E87994696
:103F100016468A469000FEF7D1FF05001AD05C20B5
:103F2000FEF7CCFF040012D025630021CDE9024149
:103F3000CDE900874B46324651465846FEF70CFD08
:103F40002046FEF7C1FB012004B0BDE8F09F2846E3
:103F5000FFF7C8F94FF0FF30F6E700000548416968
:103F600019B1006B18B10020704701207047022082
:103F700070470000840000200148C06870470000BE
:103F8000840000202DE9F0412D4F0026386B40B110
:103F9000B869401CB861F86900B101263046BDE837
:103FA000F081FD686D1CFD6011D1786B006828B14F
:103FB00040F6D91223A128A0FCF7A4F9786BB96BBD
:103FC0007963B863386A401C3862FEF79BFEB86AB2
:103FD000DFF89480854209D3786B006880B1786BF4
:103FE000C068C468606885420DD2B8623868C06A2B
:103FF00000EB800158F821000128CCD90126CAE73E
:104000004FF0FF30F1E7201DFFF7BAF8A06A18B1B2
:1040100004F11800FFF7B4F8E06A01213A69814021
:104020001143396100EB800108EB8100211DFFF78E
:10403000DFF8E06A3968C96A8842CDD30126CBE748
:10404000840000202E2E5C4672656552544F535CEE
:104050007461736B732E63004572726F723A2573CD
:104060002C25640D0A000000080C002070B5040027
:104070004FF000063CD01F4D2868844205D040F622
:10408000C7621DA121A0FCF73DF9206D28B940F6BB
:10409000C96219A11DA0FCF735F9206D401E2065ED
:1040A000E26CE16A914223D010BB201DFFF768F853
:1040B0001A49012250B9E06A00EB800351F823301D
:1040C00023B92B6902FA00F083432B61E06CE062B4
:1040D000C0F12000A061E06A2B6982401A432A6186
:1040E00000EB800001EB8000211DFFF781F8012625
:1040F000304670BD840000202E2E5C4672656552ED
:10410000544F535C7461736B732E63004572726F0E
:10411000723A25732C25640D0A000000080C00205B
:104120002DE9F041C068C4682CB940F6613216A18F
:104130001AA0FCF7E7F804F118000746FFF720F88B
:104140001A4D286B012660B139461948FFF750F81F
:10415000E06A2968C96A884213D90120EE61BDE886
:10416000F081201DFFF70CF8E06A2A6906FA00F1D9
:10417000114329610F4900EB800001EB8000211DF4
:10418000E4E70020EBE700002E2E5C4672656552E6
:10419000544F535C7461736B732E63004572726F7E
:1041A000723A25732C25640D0A000000840000205B
:1041B000B00E0020080C00202DE9F0472B4D002404
:1041C0002746286B28B94FF4FD6229A12DA0FCF7E2
:1041D00099F8FFF719F8286B401E2863286BE8BB95
:1041E000A8682C490126C8B3A1F52A798846D8F8D1
:1041F0000010E9B1D8F80C00C46804F11800FEF70B
:10420000BFFF201DFEF7BCFFE06A2A6906FA00F135
:104210001143296100EB800109EB8100211DFEF7AC
:10422000E7FFE06A2968C96A8842E0D3EE61DEE709
:104230000CB1FEF767FDAC693CB1FFF7A3FE00B11E
:10424000EE61641EF9D10020A861E86930B112491D
:10425000012738070860BFF34F8F00E001E0BFF38C
:104260006F8FFFF70DF83846BDE8F0878400002017
:104270002E2E5C4672656552544F535C7461736BAD
:10428000732E63004572726F723A25732C25640D8C
:104290000A000000B00E002004ED00E02DE9F04718
:1042A0000746994616460D462C20DDF820A0FEF75D
:1042B00005FE040014D0B8464F46D1462DB94FF440
:1042C000C67209A10EA0FCF71DF8FEF765FA04F10D
:1042D0001801C4F8008081E8E002201DFEF76DFFA0
:1042E0002046BDE8F08700002E2E5C4672656552C0
:1042F000544F535C74696D6572732E630000000047
:104300004572726F723A25732C25640D0A00000005
:104310001CB50024FEF740FA0C48006868B10B4950
:104320001F20091DCDE9000100234FF4827208A16E
:104330000948FFF7E7FD040005D140F2331207A159
:104340000CA0FBF7DFFF20461CBD0000C0000020D2
:10435000546D7220537663001D2E00082E2E5C468D
:1043600072656552544F535C74696D6572732E6348
:10437000000000004572726F723A25732C25640D9F
:104380000A0000002DE9FF47DDF830A0994690466D
:104390000D4606004FF0000705D14FF4D37212A16D
:1043A00017A0FBF7AFFF1A4C206880B1CDE9005889
:1043B0000296062D11DAFFF7D1FD02284FF0000317
:1043C00009D0002269462068FFF7C0FB074604B009
:1043D0003846BDE8F0875246F4E700234A4669466E
:1043E000FFF778FCF2E700002E2E5C4672656552FE
:1043F000544F535C74696D6572732E630000000046
:104400004572726F723A25732C25640D0A00000004
:10441000C00000203031323334353637383941422C
:104420004344454640305800303132333435363716
:1044300038396162636465664030780004000008C2
:104440000000000000000002000100001000000059
:1044500046414E3100000000784400080000002072
:10446000340100006C010008C04400083401002041
:1044700064650000C8010008011C135044820882D2
:10448000047BA24A0B00092C010203040607080959
:104490003C02040654293C09324001401AAA014951
:1044A000BD4C08A120083AA308170208B52003064E
:1044B0003D650117A41001113417030532030000F4
:04000005080002C12C
:00000001FF
