:020000040800F2
:1000000088660020810200086F170008E1110008CF
:100010006D1700084D090008892100080000000044
:10002000000000000000000000000000E9010008DE
:10003000BD0B0008000000002D020008951A000802
:100040009B0200089B0200089B0200089B0200081C
:100050009B0200089B0200089B0200089B0200080C
:100060009B0200089B0200089B0200089B020008FC
:100070009B0200089B0200089B0200089B020008EC
:100080009B0200089B0200089B0200089B020008DC
:100090009B0200089B0200089B0200089B020008CC
:1000A0009B0200089B0200089B0200089B020008BC
:1000B0009B020008F91A00089B0200089B02000836
:1000C0009B0200089B0200089B0200089B0200089C
:1000D0009B020008611C0008ED1C0008791D000847
:1000E0009B0200089B0200089B0200089B0200087C
:1000F0009B0200089B0200089B0200089B0200086C
:100100009B0200089B020008351B00089B020008A8
:10011000B11B00089B0200089B0200089B0200081C
:100120009B0200089B0200089B0200089B0200083B
:1001300000F002F800F048F80AA090E8000C8244B1
:100140008344AAF10107DA4501D100F03DF8AFF28E
:10015000090EBAE80F0013F0010F18BFFB1A43F0A5
:1001600001031847C8430000E8430000103A24BFC9
:1001700078C878C1FAD8520724BF30C830C144BF0C
:1001800004680C607047000000230024002500264E
:10019000103A28BF78C1FBD8520728BF30C148BFEA
:1001A0000B607047642900F0FD80782900F03681EB
:1001B000632900F04683732900F04B8300207047C9
:1001C0001FB51FBD10B510BD00F090FB1146FFF725
:1001D000F7FF02F077FA00F0AEFB03B4FFF7F2FF8F
:1001E00003BC02F008FA0000224B19680868B0E866
:1001F000F00F80F30988BFF36F8F4FF0000080F39A
:1002000011884EF00D0E704700000000064800688F
:10021000006880F3088862B661B6BFF34F8FBFF302
:100220006F8F00DF00BF00BF08ED00E0EFF3098033
:10023000BFF36F8F0F4B1A6820E9F00F106008B5FD
:100240004FF0500080F31188BFF34F8FBFF36F8FD3
:1002500003F0C8FA4FF0000080F31188BDE80840B1
:1002600019680868B0E8F00F80F30988BFF36F8F52
:10027000704700BF78000020EFF305807047000052
:100280000948804709480047FEE7FEE7FEE7FEE72A
:10029000FEE7FEE7FEE7FEE7FEE7FEE70448054966
:1002A000054A064B70470000A91A000831010008F2
:1002B0008860002088660020886200208862002014
:1002C000704700000FB4044910B503AA029800F06B
:1002D000C5FA10BC5DF814FB600000200FB41CB51B
:1002E000074B06AA7B4469460090059800F087FA00
:1002F0000020694600F096FA1CBC5DF814FB000073
:100300003D05000070B5044685690068C10601D549
:10031000302600E02026C00707D070BDD4E90121B7
:1003200030469047206A401C20626D1EF6D570BD95
:1003300070B5044685690078C00707D170BDD4E95F
:10034000012120209047206A401C20626D1EF6D5B6
:1003500070BD70B50C460546012A05D02878800688
:1003600000D5EA69002302E0012305E05B1C93420B
:1003700002D2E05C0028F9D1A869E618C01AA86189
:10038000286A184428622846FFF7BCFF04E0D5E934
:10039000012114F8010B9047B442F8D32846FFF727
:1003A000C7FF70BD2DE9F04106460024106875298D
:1003B000314616A510D0AFF30080002802DA404283
:1003C00013A507E031688A0701D512A502E04907A5
:1003D00004D511A5012401E0AFF3008000210A2219
:1003E00006F1240709E0B0FBF2FCB0FBF2F302FBDC
:1003F0001C00303078541846491C0028F3D123469D
:100400002A463046BDE8F04100F09BB900000000EC
:100410002D0000002B0000002000000070B50446F5
:100420000D4621461068AFF300802188090502D5EA
:100430000F4A7A4402E00E4A7A440E32002104F157
:10044000240305E000F00F060009965D5E54491C88
:100450000028F7D120780023000704D5702D02D0A2
:1004600009B1022311322046BDE8704000F069B99D
:10047000BA4000002DE9F05F894604464FF0000ABB
:10048000DFF824B1FB44C0F820A02046E16888478B
:1004900000287DD0252806D0D4E901219047206A84
:1004A000401C2062F1E700255F462046E16888474E
:1004B0002028064607DB312E05D2B81910F8200C8B
:1004C00008B10543F1E7A80701D525F00405C4F8F4
:1004D0001CA00027C4F818A02A2E09D0304602F02C
:1004E00083F838B304EB8708303EC8F8186019E089
:1004F00059F8041B204604EB87029161E1688847A4
:10050000012F064618D1E069002820DA25F02005E1
:100510001DE0D8F8180000EB800006EB40003038F2
:10052000C8F818002046E1688847064602F05CF8E3
:100530000028EED1012F0AD02E2E08D12046E168E6
:1005400088477F1C0646022F45F02005C4DBA069C2
:10055000002803DA404245F00105A061E80701D018
:1005600025F01005A6B1A6F14100192802D82036C1
:1005700045F400654A463146204625604D46FFF762
:1005800011FE60B1012807D0ED1D25F0070000E045
:1005900007E000F1080978E705F1040975E730463E
:1005A0007AE7206ABDE8F09F9040000030B505462C
:1005B0000B462A4613F8014B12F8010B08B1A04272
:1005C000F8D01CB1002802D06D1CF1E7284630BDE0
:1005D00010B5431C02E010F8011B71B18107FAD17C
:1005E0004FF0013202C88C1A8C4314EAC211F9D0C0
:1005F000C01A0A0603D0C01E10BDC01A10BD0A04DE
:1006000001D0801E10BD0902FCD0401E10BD032A7F
:1006100040F2308010F0030C00F0158011F8013B1F
:10062000BCF1020F624498BF11F801CB00F8013B06
:1006300038BF11F8013BA2F1040298BF00F801CBCA
:1006400038BF00F8013B11F0030300F01981083AAC
:10065000C0F0088051F8043B083A51F804CBA0E8F8
:100660000810F5E7121D5CBF51F8043B40F8043B4D
:10067000AFF30080D20724BF11F8013B11F801CB82
:1006800048BF11F8012B24BF00F8013B00F801CB53
:1006900048BF00F8012B704702F0FF0343EA032232
:1006A00042EA024200F002B84FF000020429C0F012
:1006B000128010F0030C00F01B80CCF1040CBCF194
:1006C000020F18BF00F8012BA8BF20F8022BA1EBE6
:1006D0000C0100F00DB85FEAC17C24BF00F8012BCB
:1006E00000F8012B48BF00F8012B70474FF00002C3
:1006F00000B5134694469646203922BFA0E80C5018
:10070000A0E80C50B1F12001BFF4F7AF090728BFF2
:10071000A0E80C5048BF0CC05DF804EB890028BF6E
:1007200040F8042B08BF704748BF20F8022B11F097
:10073000804F18BF00F8012B704770477047704713
:1007400070472DE9F0470D4699469246044600F160
:1007500024080168880604D5E06921F010012160B1
:1007600000E00120A84201DD471B00E00027A1694D
:100770007A1902EB0900081AA0612078C00602D499
:100780002046FFF7BFFD002608E0D4E901211AF852
:1007900006009047206A401C761C20624E45F4DB20
:1007A0002078C0060AD52046FFF7ACFD06E0D4E964
:1007B000012130209047206A401C2062381EA7F19A
:1007C0000107F4DC07E0D4E9012118F8050090479F
:1007D000206A401C2062281EA5F10105F3DC20469A
:1007E000FFF7A6FD2078000602D50220BDE8F087BD
:1007F0000120FBE701694A1C02610878704700B5D7
:100800008FB0CDE901310021059105497944CDE949
:10081000031011466846FFF72DFE0FB000BD000023
:10082000E5FFFFFF0A6802F8010B0A60704710B588
:10083000436913B1AFF3008001E0FFF78AFD0120A7
:1008400010BD127800F124010A7000224A700122C2
:10085000EDE711684FF0FF32E9E70000074B70B594
:100860000D467B44FFF7CBFF0446284600F03AF8DC
:1008700010B14FF0FF3070BD204670BD471E000024
:1008800010B5203AC0F00B80B1E81850203AA0E82B
:100890001850B1E81850A0E81850BFF4F5AF5FEA5F
:1008A000027C24BFB1E81850A0E8185044BF18C912
:1008B00018C0BDE810405FEA827C24BF51F8043BB9
:1008C00040F8043B08BF7047D20728BF31F8023B0D
:1008D00048BF11F8012B28BF20F8023B48BF00F8A1
:1008E000012B7047007B00F080007047754600F0D8
:1008F00029F8AE4605006946534620F007008546B4
:1009000018B020B5FFF7CAFCBDE820404FF0000644
:100910004FF000074FF000084FF0000B21F00701E7
:10092000AC46ACE8C009ACE8C009ACE8C009ACE82A
:10093000C0098D4670470446AFF300802046FFF79C
:100940004CFC00000048704728600020FEE70000D3
:1009500070B500252C4600F05BFB10B1641C032C25
:10096000F9DB032C00D1251F00241DA11FA000F0DE
:10097000EDF910B1641C032CF7DB032C00D1651FCB
:10098000002440F25B7631461AA000F019F910B14C
:10099000641C032CF7DB032C00D1A51F002419A035
:1009A00000F0DCFA10B1641C032CF8DB032C00D13E
:1009B000E51F2D1D052D11D2DFE805F00B090705F8
:1009C000030012A006E016A004E01BA002E01EA097
:1009D00000E021A0BDE87040FFF774BC70BD0000CE
:1009E00051464B4A363636383838000051464B4A65
:1009F000000000003139322E3136382E33302E329D
:100A0000313900007365744D33000000CBF9D3D049
:100A1000C1ACBDD3BEF9D5FDB3A32121210D0A0080
:100A2000C9E8D6C3CEAAD5BEB5E3C4A3CABDCAA77A
:100A3000B0DC210D0A000000C1ACBDD37769666946
:100A4000CAA7B0DC210D0A00C1ACBDD34950CAA76A
:100A5000B0DC210D0A000000C1ACBDD36D7174740F
:100A6000CAA7B0DC210D0A00C10002D50249086006
:100A70007047024948607047040402400000024089
:100A80000029016802D041F0010102E04FF6FE7238
:100A9000114001607047000001684FF6FE7211407E
:100AA00001600021016041608160C1603149314ACB
:100AB0000839904203D1486840F00F0006E02D4A03
:100AC0001432904204D1486840F0F000486070470A
:100AD000284A2832904203D1486840F47060F5E714
:100AE000244A3C32904203D1486840F47040EDE71C
:100AF000204A5032904203D1486840F47020E5E724
:100B00001C4A6432904203D1486840F47000DDE72B
:100B1000184A7832904203D1486840F07060D5E7B7
:100B2000154A111F904203D1086840F00F0006E0FB
:100B3000114A1432904204D1086840F0F000086075
:100B400070470D4A2832904203D1086840F4706023
:100B5000F5E7094A3C32904203D1086840F47040FE
:100B6000EDE7054A50329042EAD1086840F470201F
:100B7000E5E700000800024008040240406880B237
:100B8000704730B5026847F6F0739A430C6A8B6879
:100B90002343D1E904452C4323438C692343CC6987
:100BA00023434C6A23438C6A234313430360CA687C
:100BB00042600A6882604968C16030BD70470000C9
:100BC0002DE9F043884681464FF48075A1B029464F
:100BD0003A48FFF769FD80216846FFF787FD38A195
:100BE0006846FFF77BFB6846FFF7F2FCC1B2684638
:100BF00000F0DEFE00233C4C5E1E324619462068A3
:100C000002F0FCFE40F2DC57384601F019FD2A469E
:100C10002A49364800F03CFA284935A0FFF752FB34
:100C200039A12648FFF7C2FC00282FD029462348C7
:100C3000FFF73AFD80216846FFF758FD43464A46D4
:100C400032A16846FFF74AFB6846FFF7C1FCC1B214
:100C5000684600F0ADFE002332461946206802F0D7
:100C6000CDFE384601F0ECFC2A4614491F4800F03E
:100C70000FFA12492BA0FFF725FB23A10F48FFF71E
:100C800095FCC0B1002021B0BDE8F083802168460A
:100C9000FFF72CFD29460948FFF706FD27A1684606
:100CA000FFF71CFB6846FFF793FCC1B2684600F0F3
:100CB0007FFE0420E7E70320E5E70000265F002031
:100CC00041542B4D515454555345524346473D30A2
:100CD0002C312C224D33222C22222C22222C302C5F
:100CE000302C2222000000001C00002034030020D1
:100CF00044656275672D436F6E6E6563742D555341
:100D000045523A20257300004F4B000041542B4DB3
:100D1000515454434F4E4E3D302C222573222C25E6
:100D2000642C300044656275672D436F6E6E656399
:100D3000742D49503A2025730000000041542B4D7A
:100D4000515454434C45414E3D30000070B50D4662
:100D500006464FF48074A0B021461948FFF7A4FC62
:100D600080216846FFF7C2FC2B46324615A1684633
:100D7000FFF7B4FA6846FFF72BFCC1B2684600F0F3
:100D800017FE002314485D1E2A461946006802F02B
:100D900035FE4FF47A7001F053FC224608490F48A3
:100DA00000F076F906490EA0FFF78CFA12A104486C
:100DB000FFF7FCFB10B1002020B070BD2846FBE718
:100DC000265F002041542B43574A41503D22257352
:100DD000222C2225732200001C0000203403002056
:100DE00044656275672D436F6E6E6563742D574958
:100DF00046493A25730000004F4B00002DE9F047AB
:100E0000A0B089468246154680216846FFF76EFCF1
:100E10004FF4807421463A48FFF746FC2B464A4679
:100E200038A16846FFF75AFA00233E4E5D1E2A4657
:100E30001946306802F0E2FD6846FFF7C9FBC1B20F
:100E4000684600F0B5FDDFF8E08000232A46194629
:100E5000D8F8000002F0D2FD642001F0F1FB224638
:100E60002749324800F014F900231A461946306821
:100E700002F0DAFE2EA12248FFF798FB2D4F78B33F
:100E800021461F48FFF710FC00232A461946306808
:100E900002F0B4FD4946504600F08AFD00232A4680
:100EA0001946D8F8000002F0A9FD642001F0C8FB43
:100EB000224613491D4800F0EBF800231A46194654
:100EC000306802F0B1FE1AA10D48FFF76FFB88B140
:100ED000514619A0FFF7F6F9002020B0BDE8F087D1
:100EE000FFE7074918A0FFF7EDF93878401C387084
:100EF0002846F2E73878401C38706FF00100ECE7C4
:100F0000265F002041542B4D5154545055425241BC
:100F1000573D302C224D33222C25642C25642C3057
:100F200000000000100000202000002034030020FA
:100F30004F4B00001C0100204D5154545F5075620E
:100F40003A2025730D0A00004D5154545F507562CC
:100F5000204661696C3A25730D0A000030B50546DC
:100F60004FF48074A1B021461848FFF79DFB802103
:100F70006846FFF7BBFB2A4615A16846FFF7AEF9A6
:100F80006846FFF725FBC1B2684600F011FD154821
:100F900000235A1E1946006802F030FD642001F05B
:100FA0004FFB22460949104800F072F807490FA08C
:100FB000FFF788F915A10548FFF7F8FA10B10020EE
:100FC00021B030BD6FF00300FAE70000265F00207B
:100FD00041542B4D5154545355423D302C222573CE
:100FE000222C31001C00002034030020446562756F
:100FF000672D436F6E6E6563742D4D5154545F536E
:1010000075623A2022257322000000004F4B000039
:1010100010B54FF4807421461148FFF745FB0B21B2
:1010200010A000F0C5FC124800235A1E19460068A3
:1010300002F0E4FC0A2001F003FB224608490D48B7
:1010400000F026F806490CA0FFF73CF90FA1044870
:10105000FFF7ACFA08B1002010BD032010BD00005E
:10106000265F002041542B43574D4F44453D3100EE
:101070001C0000203403002044656275672D536511
:101080007453746174696F6E3A2573004F4B00009E
:1010900070B584880389C5881C44641B94FBF3F5F0
:1010A00003FB15439CB2944200D9144600230BE085
:1010B000C28805891A44B2FBF5F605FB16220568BD
:1010C000AA5CCA545B1C9BB2A342F1D3C1880289BB
:1010D0002144B1FBF2F302FB1311C180204670BD25
:1010E000016000218180C18002817047F0B5CC7819
:1010F000002204F00F03E40601D58C7823430C781A
:101100004FF00F0C14F0FF0F4FF0010E1BD00568CD
:101110000E880EFA02F42640A64210D196000CFA70
:1011200006F725EA070703FA06F5CE783D43282E91
:1011300002D0482E02D002E0446100E00461521C5B
:10114000082AE5D305600A88FF2A1CD944680022D2
:1011500002F108060EFA06F50E882E40AE420ED1B8
:1011600096000CFA06F7BC4303FA06F7CE783C4328
:10117000282E00D14561CE78482E00D10561521C41
:10118000082AE5D34460F0BDF0B5144C002801DA1C
:10119000E36900E06368450D2E0185B2C0F3015795
:1011A000B540C0F30342032F05D0C6020AD503267B
:1011B0009640B34307E023F07062636823F07063E6
:1011C000636002E0AB4343F0706201B12A43002840
:1011D00001DAE261F0BD6260F0BD00000000014094
:1011E000FEE700002DE9F041ADF5816D01210420FD
:1011F00000F01EFB0121084600F01AFB01213848CF
:10120000FFF7C2FF4FF40040ADF8000410264FF086
:101210000308344D8DF8036444468DF802840DF5BF
:1012200080612846FFF762FFADF8006428208DF842
:1012300003048DF802440DF580612846FFF756FF40
:10124000294C0025C4F8BC51C4F810514FF4FA776A
:1012500005E026A0FFF736F8384601F0F1F9D4F89A
:1012600010010028F5D10127C4F8BC71282001F035
:10127000E7F9062121A001F0F1F8224800235A1EC7
:101280001946006802F0BAFB1E2001F0D9F9BA0233
:1012900069461D48FFF7FCFE1CA16846FFF786F96A
:1012A00010B11BA0FFF70EF8C4F8BC71282001F0A4
:1012B000C7F91D4845F210410180867080F803800F
:1012C0000521017145718571C57107210172457252
:1012D00000F02CF80DF5816D0020BDE8F0810000D4
:1012E0000002300000080140000021426C6F726172
:1012F000206572726F7221210A000000415445304E
:101300000D0A000014000020A40300204F4B000031
:101310004C6F726120496E69742053756363736505
:101320006566756C0D0A00001E010020F0B5AC4C1E
:1013300093B0D4F810010028FBD10120C4F8BC01FF
:10134000282001F07DF9A74DA7A12888020AC3B281
:101350000DA8FEF7C3FF0DA8FFF73AF981B20DA85B
:1013600001F07CF80023A54E5F1E3A46194630680E
:1013700002F044FB642001F063F932226946A04880
:10138000FFF786FE9FA16846FFF710F900287DD081
:1013900014210DA8FFF7AAF934216846FFF7A6F932
:1013A0002B79AA7898A10DA8FEF798FF0DA8FFF752
:1013B0000FF981B20DA801F051F800233A46194601
:1013C000306802F01BFB322001F03AF93222694604
:1013D0008B48FFF75DFE8BA16846FFF7E7F8002812
:1013E0007ED014210DA8FFF781F934216846FFF75C
:1013F0007DF9EA7889A10DA8FEF770FF0DA8FFF727
:10140000E7F881B20DA801F029F800233A46194601
:10141000306802F0F3FA322001F012F93222694604
:101420007748FFF735FE77A16846FFF7BFF8002839
:101430007ED014210DA8FFF759F934216846FFF733
:1014400055F9AA7979A10DA8FEF748FF0DA8FFF775
:10145000BFF881B20DA801F001F800233A46194601
:10146000306802F0CBFA322001F0EAF83222694605
:101470006348FFF70DFE63A16846FFF797F8002861
:101480007ED014210DA8FFF731F900E090E034215F
:101490006846FFF72BF9EA7968A10DA8FEF71EFF51
:1014A0000DA8FFF795F881B20DA800F0D7FF002333
:1014B0003A461946306802F0A1FA322001F0C0F82D
:1014C000322269464E48FFF7E3FD4EA16846FFF71A
:1014D0006DF8002879D014210DA8FFF707F900E076
:1014E0006AE034216846FFF701F96A7957A10DA82F
:1014F000FEF7F4FE0DA8FFF76BF881B20DA800F01F
:10150000ADFF00233A461946306802F077FA3220E0
:1015100001F096F8322269463948FFF7B9FD39A142
:101520006846FFF743F8002852D014210DA800E0C8
:1015300045E0FFF7DBF834216846FFF7D7F86B7A10
:101540002A7A46A10DA8FEF7C9FE0DA8FFF740F8BC
:1015500081B20DA800F082FF00233A461946306898
:1015600002F04CFA322001F06BF83222694624482E
:10157000FFF78EFD23A16846FFF718F858B300E087
:1015800020E014210DA8FFF7B1F834216846FFF7D9
:10159000ADF80020C4F8BC01282001F051F8D4F8BF
:1015A00010010028FBD131A0FEF78CFE13B0F0BD76
:1015B000694634A011E008E0694634A00DE06946B0
:1015C00034A00AE0694635A007E0694635A004E08A
:1015D000694636A001E0694636A0FEF773FEE5E7EE
:1015E000000021421E01002041542B414444523D41
:1015F000253032782C253032780D0A001400002076
:10160000A40300204F4B000041542B574C5241542F
:10161000453D25642C25640D0A00000041542B54DF
:10162000504F5745523D25640D0A000041542B434D
:10163000574D4F44453D25640D0A000041542B543D
:101640004D4F44453D25640D0A00000041542B5781
:101650004C54494D453D25640D0A000041542B551D
:101660004152543D25642C25640D0A004C6F726173
:1016700020736574207375636373656566756C218B
:101680000D0A000025733A310D0A000025733A3225
:101690000D0A000025733A330D0A000025733A3411
:1016A0000D0A000025733A350D0A000025733A36FD
:1016B0000D0A000025733A370D0A00009CB0002186
:1016C000012002F01FF91D4C606100F00FFEFFF7D2
:1016D00089FD042004F10C010502CDE9000100237D
:1016E0002A4617A1194802F07BFC04F108010320E7
:1016F000CDE900010023AA1015A11A4802F070FCE0
:101700004FF0FF36642102A8FEF7F0FF00233246B7
:101710001946606902F072F9642000F091FF2A46D0
:1017200002A91148FFF7B4FC02A8FEF751FFC1B2AD
:10173000012202A8FFF762FBE4E70000000000209E
:10174000526669645F7461736B0000008119000860
:1017500073656E6452666964436D645F7461736B34
:1017600000000000C5300008A4030020FEE7704719
:1017700030B50F23C27801780125F2B1144A1268FE
:1017800001F1E02102F4E062C2F5E062120AC2F166
:101790000404D3404278A24084781C4014432201C0
:1017A00081F80024007800F01F018D40400980007E
:1017B00000F1E020C0F8005130BD01F01F0085406D
:1017C0004809800000F1E020C0F8805130BD0000E1
:1017D0000CED00E002490843024908607047000030
:1017E0000000FA050CED00E0044A0029516901D01F
:1017F000014300E081435161704700000010024046
:10180000044A0029D16901D0014300E08143D1613C
:101810007047000000100240044A0029116901D0FD
:10182000014300E081431161704700000010024055
:10183000044A0029916901D0014300E0814391618C
:101840007047000000100240044A0029D16801D00E
:10185000014300E08143D160704700000010024066
:1018600030B5204A5168204B11F00C0103D00429F7
:1018700001D0082901D0036012E05168536801F4D7
:1018800070114FF0020413F4803F04EB914102D039
:1018900053689B0301D5154B00E0134B594301607E
:1018A00051680F2303EA1111114B5C5C0168E140A0
:1018B00041605468072505EA14241C5D21FA04F4EC
:1018C0008460546805EAD4241B5DD940C160526825
:1018D000032303EA9232064B1B1F9A5CB1FBF2F121
:1018E000016130BD0010024000127A0000093D0085
:1018F0006800002010B5064C012060716178204618
:1019000000F045F961782046BDE8104000F0DCBDEC
:10191000ED00002070B5642001F018FE4FF48062E5
:1019200012491348FFF7B4FB104D00242E197079AB
:10193000A02801D2302100E0372101EB10110DA0C9
:10194000FEF7C0FC707900F00F010A290AA001D24D
:10195000303100E03731FEF7B5FC641CE4B2062CF0
:10196000E4D306A0FEF7AEFC002070BD085F0020A7
:10197000B00B002025630000256320000A00000052
:101980004FF4165001F0A2FB0021012001F0BAFF34
:10199000064C4FF0FF35A06100232A461946A06986
:1019A00002F02CF8FFF7B6FFF6E700000000002079
:1019B00010B5C0B00C46024604A16846FEF78EFC86
:1019C000A11C684600F0BCFB40B010BD25730D0A99
:1019D000000000000CB50022264800920192016828
:1019E00041F4803101604FF4A063016801F40031DB
:1019F00001910099491C0091019911B900999942EE
:101A0000F3D10168890333D5012101911A490A688C
:101A100042F010020A600A6822F003020A600A68B3
:101A200042F002020A6041684160416841604168D9
:101A300041F480614160416821F47C11416041685A
:101A400041F4E8114160016841F080710160016872
:101A50008901FCD5416821F003014160416841F0F2
:101A6000020141604168C1F381010229FAD10CBD34
:101A700001920CBD00100240002002404FF0E02116
:101A80000428086903D020F004000861704740F082
:101A90000400FAE710B502F0CFFA012803D0BDE840
:101AA000104001F019BF10BD0F4810B5016841F09A
:101AB0000101016041680D4A1140416001680C4A12
:101AC00011400160016821F480210160416821F426
:101AD000FE0141604FF41F018160FFF77BFF054964
:101AE0004FF00060086010BD001002400000FFF8D9
:101AF000FFFFF6FE08ED00E010B5084C012120467E
:101B000000F039F8012802D105A0FEF7DBFB2046E2
:101B1000BDE81040012100F02BB800000004004097
:101B200054494D33CAE4B3F62E2E2E2E2E2E2E0DF2
:101B30000A00000010B5084C0121204600F01BF8F7
:101B4000012802D105A0FEF7BDFB2046BDE81040EC
:101B5000012100F00DB80000000C004054494D3543
:101B6000CAE4B3F62E2E2E2E2E2E2E0D0A000000C5
:101B7000C9430182704702460020138A92890B42B2
:101B800002EA010202D0002A00D00120704730B5DD
:101B900000231A464D1E03E0845C6340521CD2B2FF
:101BA000AA42F9DB0844DA4300F8012C30BD0000FA
:101BB0007CB50020009001905020EFF3118480F359
:101BC0001188BFF34F8FBFF36F8F1F4D40F2244634
:101BD0003146284600F06EF9E0B11C48FEF7CEFF12
:101BE0001B49C0F1640088801A48006810B101A93F
:101BF00002F04EF91848006810B101A902F048F946
:101C0000298828461049091D09880091314600F0AD
:101C1000FFF815E040F226663146284600F04AF902
:101C200070B13146284600F0F3F80848002128300A
:101C3000FEF726FF0948006810B101A902F028F953
:101C400084F311887CBD0000004C00403004024049
:101C5000340300201C00002020000020440000204D
:101C60007CB500201C4D009040F224440190214698
:101C7000284600F01FF9B0B11848FEF77FFF184959
:101C8000C0F5007088801748006810B101A902F003
:101C9000FFF8298828461049091D09880091214626
:101CA00000F0B6F87CBD40F226642146284600F0DC
:101CB00001F90028F6D02146284600F0A9F8074887
:101CC00000211438FEF7DCFE074840680028E9D000
:101CD00001A902F0DDF87CBD003801405800024047
:101CE00028030020240000203C0000207CB50020B8
:101CF0001C4D009040F2244401902146284600F0FB
:101D0000D9F8B0B11848FEF739FF1849C0F580601E
:101D100088801748006810B101A902F0B9F8298835
:101D200028461049091D09880091214600F070F8E5
:101D30007CBD40F226642146284600F0BBF800280E
:101D4000F6D02146284600F063F8074800211430F9
:101D5000FEF796FE074840680028E9D001A902F086
:101D600097F87CBD004400406C000240A4030020B2
:101D700014000020480000202DE9FC4100201F4CE9
:101D8000009040F2244601903146204600F092F83F
:101D90001B4FD8B13868251DA8B11A48FEF7EEFED2
:101DA0001949C0F5806088801848006810B101A901
:101DB00002F06EF82188204629880091314600F013
:101DC00027F8BDE8FC8101203860F3E740F2266582
:101DD0002946204600F06EF80028F2D02946204619
:101DE00000F016F8074800211438FEF749FEB868DD
:101DF0000028E6D001A902F04BF8E2E700480040D5
:101E00005000002030000240B00B002018000020DD
:101E10000A0A01219140C943018070470029818944
:101E200002D041F4005101E021F40051818170475A
:101E3000002A828A01D00A4300E08A4382827047E6
:101E4000174910B588420AD101218C032046FFF7BB
:101E5000FBFC2046BDE810400021FFF7F5BC11490E
:101E6000884202D101214C0410E00F49884202D17E
:101E700001218C040AE00D49884202D10121CC04E1
:101E800004E00B4988420AD101210C052046FFF7E6
:101E9000C3FC2046BDE810400021FFF7BDBC10BDCB
:101EA000003801400044004000480040004C004021
:101EB0000050004070B501F01F0501260024C1F359
:101EC000421306FA05F2012B0FD0022B0FD0838AA2
:101ED0004FEA11210088134206FA01F600EA0600D3
:101EE00001D000B10124204670BD8389F0E7038A48
:101EF000EEE710B5C1F3421301F01F040121A14028
:101F0000012B07D0022B07D01430002A026805D01D
:101F10000A4304E00C30F8E71030F6E78A43026029
:101F200010BD000030B50446008A85B00D464CF661
:101F3000FF710840E98801432182A0894EF6F31120
:101F40000840A9882A8911436A8902431143A18163
:101F5000A08A4FF6FF410840A9890143A182684643
:101F6000FFF77EFC1948844201D1039800E00298F3
:101F7000A189090400EBC00101EB0010296801D51B
:101F8000490000E08900B0FBF1F06422B0FBF2F1FF
:101F900009010B096FF018056B4300EB8300A3895F
:101FA0001D044FF0320306D503EBC000B0FBF2F086
:101FB00000F0070005E003EB0010B0FBF2F000F0CA
:101FC0000F000843208105B030BD000000380140FB
:101FD0002DE9F04391B001211020FFF729FC0121E8
:101FE000C804FFF70DFC4FF48060ADF83C000320FF
:101FF0008DF83E0018204B4C8DF83F000FA920466D
:10200000FFF774F8E114ADF83C1004218DF83F108F
:102010000FA92046FFF76AF834208DF8400005200C
:102020008DF8410001258DF842508DF8435010A8DD
:10203000FFF79EFB00244FF4E1300B90ADF83440E5
:102040000C20394EADF83040ADF83600ADF83240D6
:10205000ADF838400BA93046FFF764FF012240F28B
:1020600024413046FFF745FF012240F22661304609
:10207000FFF73FFF0122C0213046FFF7D9FE0121C3
:102080003046FFF7CBFE01210220FFF7ADFBDFF862
:102090009C904846FEF700FD361D25480096CDE988
:1020A000010403A96420802781E891002020069480
:1020B000CDE907404FF48058CDE909846946484688
:1020C000FEF75FFD1B48FEF7CFFC01214846FEF7F7
:1020D000D7FCDFF8589009F128094846FEF7DCFCE8
:1020E00010200096CDE90140CDE90354CDE90574F7
:1020F000CDE90848079410480A94FEF7B5FC6946F4
:102100004846FEF73EFD0A496422A1F10C00FEF7A5
:10211000E7FF0021012001F0F5FB0849086011B03C
:10212000BDE8F08300100140004C00403004024044
:1021300040030020000100100000011044000020B6
:1021400070B50C460546642919D8002C17D00C4EE2
:1021500000213046FEF794FC301D046008480C3026
:10216000056001213046FEF78BFC064800234FF442
:10217000FA720068BDE87040194601F03FBC70BDBE
:102180005804024044000020FEE700002DE9F0471B
:1021900092B0012144F20400FFF74AFB4FF40075AE
:1021A000ADF83C5003208DF83E0018204A4C8DF8C5
:1021B0003F000FA92046FEF799FF2115ADF83C100E
:1021C00004218DF83F100FA92046FEF78FFF252030
:1021D0008DF8400005208DF8410000248DF8424024
:1021E00001268DF8436010A8FFF7C2FA4FF4E130E2
:1021F0000B90ADF834400C20384FADF83040ADF8BE
:102200003600ADF83240ADF838400BA93846FFF73C
:1022100089FE012240F224413846FFF76AFE01227E
:1022200040F226613846FFF764FE0122C02138469D
:10223000FFF7FEFD01213846FFF7F0FD01210846BA
:10224000FFF7D2FADFF898A05046FEF725FC3F1DB5
:10225000244801A9009781E831004FF08008CDE9BA
:10226000044820200694CDE907404FF48059CDE979
:10227000099469465046FEF784FC01215046FEF75A
:10228000FFFBDFF85CA0AAF1140A5046FEF704FC3D
:1022900010200097CDE90140CDE90364CDE9058424
:1022A000CDE908490794694650460A94FEF769FC4F
:1022B0000C492A4601F50070FEF712FF012108467D
:1022C00001F020FB084C00212060012001F01AFBE6
:1022D000606012B0BDE8F08700080140003801409E
:1022E00058000240280100203C0000202DE9F04762
:1022F00092B001210420FFF79BFA01214804FFF767
:102300007FFA514D2846FFF79BFD0420ADF83C00B5
:1023100003208DF83E0018204C4C8DF83F000FA98B
:102320002046FEF7E3FE0820ADF83C0048208DF87B
:102330003F000FA92046FEF7D9FE00244FF4E130FC
:102340000B90ADF834400C20ADF83040ADF83600BD
:10235000ADF83240ADF838400BA92846FFF7E2FD52
:10236000012240F224412846FFF7C3FD012240F23A
:1023700026612846FFF7BDFD0122C0212846FFF750
:1023800057FD01212846FFF749FD26208DF8400022
:1023900007208DF8410001258DF842508DF84350FB
:1023A00010A8FFF7E5F901210846FFF71DFADFF84D
:1023B000A0A05046FEF770FB234E2648361D01A90B
:1023C000AF02009681E891004FF08008CDE9044803
:1023D00020200694CDE907404FF48059CDE90994B7
:1023E00069465046FEF7CDFB01215046FEF748FBFB
:1023F000DFF85CA00AF1140A5046FEF74DFB1020EE
:102400000096CDE90140CDE90354CDE90584CDE93D
:1024100008490794694650460A94FEF7B2FB0D49F5
:102420003A46A1F10C00FEF75BFE0121084601F0DF
:1024300069FA094C00212060012001F063FA606014
:1024400012B0BDE8F08700000044004000080140E1
:102450006C000240B0030020480000202DE9F0414C
:102460000C468046B1F5806F27D8002C25D0144D3E
:1024700000234FF4FA7632461946286801F0BEFA76
:10248000104F00213846FEF7FBFA0E48803840F81E
:10249000844FC0F8088001213846FEF7F1FA002386
:1024A00032461946686801F0A9FA2868BDE8F0418B
:1024B00000231A46194601F0B7BBBDE8F0810000C1
:1024C00048000020800002402DE9F0410C460746FC
:1024D000B1F5806F24D8002C22D0124D00234FF488
:1024E000FA721946686801F089FA0F4E00213046E9
:1024F000FEF7C6FA0C481C38046287620121304698
:10250000FEF7BEFA00235A1E1946A86801F076FAB3
:102510006868BDE8F04100231A46194601F084BB03
:10252000BDE8F081500000201C0002409CB000215A
:10253000012001F0E7F9204C0021E061012001F0C9
:10254000E1F92062FFF744FDFEF702FA211D0320A6
:10255000CDE9000100234FF4806218A11A4801F070
:102560003FFD4FF0FF3500232A461946E06901F090
:1025700045FA642102A8FEF7B9F800232A46194655
:10258000206901F03BFA642202A91048FEF780FDA1
:102590000FA102A8FEF70AF838B102A910A0FDF7B2
:1025A00091FE642102A8FFF759FF00231A4619463D
:1025B000206901F039FBD6E7000000204C6F726102
:1025C0005F7461736B000000BD16000834030020C7
:1025D0002B4D515454535542524543563A30000006
:1025E00052583D25730D0A0030380A2801D20120C7
:1025F000704700207047704710B50420FFF73EFA7F
:102600000C480D490D4A0068B0FBF1F3B0FBF1F145
:102610004FF47A7041431370012050804FF0E02056
:10262000026942F0020202614161016941F0010167
:10263000016110BD2800002040420F005C00002016
:1026400070B5044601F0F8FC01280CD0094D6888EB
:10265000844203D3B4FBF0F000F078FF6888B4FB49
:10266000F0F100FB11444FF47A706043BDE8704014
:1026700000F002B85C00002070B54FF0E0250021AA
:102680006C69094AAB6912785043AA699A42FCD036
:1026900002D2A3EB020302E0A4EB02063344194486
:1026A00013468142F1D370BD5C00002004490A88C2
:1026B0001206FCD5024AC1B2121D118070470000FB
:1026C000003801401CB54FF44070FFF783F8FFF766
:1026D00093FFFFF75BFD012001F042F9074900235A
:1026E00040F6080208610420CDE9000104A1074872
:1026F00001F076FC01F024F8FEE700000000002065
:10270000576966695F7461736B0000002D250008CE
:102710002DE9F041184E0F460446F5683068001D5B
:1027200000F08AFD38B9306890F82C1001208840FC
:10273000316981433161601C07D137B13168BDE82F
:10274000F0410E48091D00F0AFBD30682C44AC428A
:102750004460316805D2B06BBDE8F041091D00F05E
:102760008BBD706B091D00F087FDB06A844200D2FA
:10277000B462BDE8F081000078000020CC0E00209B
:102780002DE9F041054600F09BFD2D4EB068401C40
:10279000B06030682B4F10B1706930B32BE03560FA
:1027A000B068012827D1002404EB840007EB8000E7
:1027B00000F054FD641C202CF6D3234800F04EFD9D
:1027C0002148143000F04AFD1F48283000F046FD33
:1027D0001D483C3000F042FD1B48503000F03EFDEB
:1027E000194870631430B06305E03068E96AC06A64
:1027F000884200D83560706A0121401C70626864AC
:10280000E86A326981401143316100EB800007EBD7
:102810008000291D00F048FD00F08EFD7069002841
:102820000CD03068E96AC06A884207D207494FF085
:1028300080500860BFF34F8FBFF36F8FBDE8F0810A
:1028400078000020FC0B00207C0E002004ED00E04E
:1028500010B500F035FD0E4C2068A0B90D4800F011
:10286000FDFC0C48143000F0F9FC0A48E06014301C
:10287000206100221021052001F084F8206010B1B1
:1028800005A100F02FFEBDE8104000F055BD00008E
:10289000B4000020E00E0020546D725100000000D2
:1028A00070B5124E124D1CE000F094FF306820B15C
:1028B000002401F0EFFCA4B901E00124F9E700F0E5
:1028C000FFFCF068C468201D00F0B6FCA868401E3C
:1028D000A8606868401E686000F02EFD204600F089
:1028E00052F868680028DFD170BD0000B80E0020E3
:1028F0007800002030B4026C0B46002A0BD0C1686F
:102900001144C1604468A14201D30168C16030BC78
:102910001846FDF77CBE30BC70472DE9F041856B51
:10292000174604460026026C82B1C7B1E068FDF785
:102930006EFEE168206C091AE1602268914202D2C1
:102940006168081AE060022F16D017E02068A8B965
:10295000606801F0F9FB0646002060600EE0A068A8
:10296000FDF755FE216CA0680844A06061688842AC
:1029700004D32068A06001E005B16D1E6D1CA56345
:102980003046BDE8F08110B50446006B00F006FD4E
:102990002046BDE8104000F001BD000010484FF493
:1029A000A041420706D0C01D0D4920F00700411A82
:1029B000C1F5A0410B4A00230144C2E900030839D4
:1029C000103A21F0070111604B600B600B1AC0E94F
:1029D000001393604FF000405360D06070470000D8
:1029E000080F0020D8000020074E4FF08054074DFC
:1029F000FFF756FF30680128FAD92C60BFF34F8FDC
:102A0000BFF36F8FF4E70000FC0B002004ED00E043
:102A10002DE9F047DDE909840E461746824691000C
:102A20009946089DA522206BFDF736FE6FF0030145
:102A3000206B01EB8701084420F00707780705D0D9
:102A400040F22B3219A11EA0FDF73CFC00202218F9
:102A5000315C82F83410315C11B1401C1028F6D37F
:102A6000002684F84360202D00D31F25E562C4E9C9
:102A70001356201D00F0FDFB04F1180000F0F9FBD7
:102A80002461C5F120006462A061666584F8586025
:102A90004A465146384600F003FB2060B8F1000F6B
:102AA00001D0C8F80040BDE8F08700002E2E5C463B
:102AB00072656552544F535C7461736B732E63007F
:102AC0004572726F723A25732C25640D0A0000005E
:102AD00030B5114900E011460A688242FBD34B68C9
:102AE0005C18844203D14068184448600846436833
:102AF0001C18944209D1084C103C2468A24209D009
:102B000052681A4442600A6812680260814200D02A
:102B1000086030BD0460F9E7D800002070B50024DB
:102B200041600B4D0061914206D8D11A82699142F1
:102B300006D2011D286907E09A4203D2994201D3C7
:102B4000012403E0011DE86800F096FB204670BDFB
:102B5000B400002010B5044600F0B2FBA06B20B119
:102B6000002400F0E9FB204610BD0124F9E7000035
:102B70002DE9F34100980F460026846C2CB940F6ED
:102B8000CE1216A11AA0FDF79DFBA06BE16B884247
:102B900005D340F6CF1211A115A0FDF793FBA06B52
:102BA000E16B88420CD294F945503A46694620467A
:102BB000FFF7B3FE0646681C05D06D1C84F845502F
:102BC0003046BDE8FC81606A0028F9D004F1240099
:102BD00001F014FB0028F3D00126F1E72E2E5C460D
:102BE00072656552544F535C71756575652E63004F
:102BF0004572726F723A25732C25640D0A0000002D
:102C0000F8B5054614480E46C068C068C468201D63
:102C100000F012FBE069012817D1A0692B46411989
:102C200032462046FFF77AFF78B10020034601467E
:102C300000902A46204601F013FC30B907494FF4B2
:102C4000027201F11800FDF73DFB616A01B02046F8
:102C5000BDE8F04008470000B4000020C44300086D
:102C600070B586B02F4E53E00198002806DADDE9F2
:102C70000301029A90470198002849DB039C606990
:102C800010B1201D00F0D8FA05A800F0A7F80546FD
:102C900001980A283CD2DFE800F00505053B2738FB
:102CA00005053B270298A169034601442A462046B0
:102CB000FFF734FF00282BD0616A20468847E0697F
:102CC000012825D1002000900298A1690023421814
:102CD0001946204601F0C4FBD0B940F2213212A1BE
:102CE00017A0FDF7EFFA13E00298A06128B94FF49E
:102CF0004E720DA112A0FDF7E5FAA0692B4641190D
:102D00001A462046FFF70AFF02E0204600F046FB85
:102D100000231A4601A9306800F070FE0028A3D1F4
:102D200006B070BDB40000202E2E5C467265655260
:102D3000544F535C74696D6572732E63000000001C
:102D40004572726F723A25732C25640D0A000000DB
:102D5000F8B50D46064600F03DFD684600F03EF829
:102D60000446009810B101F095FAF8BD1148ADB1D4
:102D700001690968D9B10025311B2A46006800F0B5
:102D8000C3FB01F087FA0028EFD10B494FF08050C8
:102D90000860BFF34F8FBFF36F8FF8BDA642EBD82B
:102DA00001F078FA21463046FFF72AFFF8BD0125E9
:102DB000E2E70000B400002004ED00E00648416BAB
:102DC000096829B1416BC968C9684968816270475F
:102DD0004FF0FF31FAE700007800002070B505469B
:102DE00001F038F9064E0446B068844203D200F080
:102DF00009F8012000E0002028602046B46070BD82
:102E0000B4000020F8B5184E26E0C068C468056814
:102E1000201D00F011FA616A20468847E069012808
:102E20001AD1A0692844A84206D924616060211DF6
:102E3000F06800F021FA0FE0002003460146009000
:102E40002A46204601F00CFB30B9084940F2923284
:102E500001F11800FDF736FAF06801680029D4D1B5
:102E60003169C6E90310F8BDB4000020C44300086E
:102E700008484068401C04D0F42207A111A0FDF7C7
:102E800021FA502080F31188BFF34F8FBFF36F8F6B
:102E9000FEE70000E00000202E2E5C4672656552C1
:102EA000544F535C706F727461626C655C5256442F
:102EB000535C41524D5F434D335C706F72742E63AF
:102EC000000000004572726F723A25732C25640D64
:102ED0000A000000084CE068016839B1002139B1EE
:102EE0000020FFF735FFFFF7BBFEF4E70121F6E70F
:102EF000C0680068F5E70000B40000202DE9F0414B
:102F0000044600F0DDF994F9455004F1240610E080
:102F1000A06C20B100212046FFF72AFE04E0606A81
:102F200048B1304601F06AF908B100F045FB6D1E6A
:102F30006DB2002DECDC4FF0FF3684F8456000F0F8
:102F4000FBF900F0BDF994F9445004F1100709E0D1
:102F5000206948B1384601F051F908B100F02CFB66
:102F60006D1E6DB2002DF3DC84F84460BDE8F041C5
:102F700000F0E2B92DE9F0410546002600F02AFCF8
:102F8000324F386808B9FFF709FDF86805424FD19C
:102F9000002D4DD0083568070BD005F00700C0F1B3
:102FA00008000544680704D0BF2229A132A0FDF71C
:102FB00089F9002D3CD07868854239D823491031F1
:102FC0000846046801E0214604466068A84202D22F
:102FD00020680028F7D13868B846844228D00E68A7
:102FE0002068086060680836401B10280ED96719F1
:102FF000780704D0EC2216A11FA0FDF763F96068E2
:10300000401B786038466560FFF762FD6168D8F85C
:1030100004004246401AC8F80400D8F80830984224
:1030200000D29060D8F80C0001430020C4E90001F0
:1030300001F030F9700705D04FF4967204A10EA08C
:10304000FDF740F93046BDE8F0810000C8000020DF
:103050002E2E5C4672656552544F535C706F7274CD
:1030600061626C655C4D656D4D616E675C68656144
:10307000705F342E630000004572726F723A2573E0
:103080002C25640D0A0000000449086818B108687E
:10309000026D521C0265086870470000780000202D
:1030A00010B5031F4FF080741C601B1F21F001013D
:1030B0001960191F024B0B60143940380A6010BDAB
:1030C000712E0008FEF716FCFCE700002DE9F04722
:1030D000044692B001210820FEF7AAFB01218804D2
:1030E000FEF78EFB4F4E3046FEF7AAFE3515ADF8C3
:1030F0003C5003208DF83E0018204B4F8DF83F00C8
:103100000FA93846FDF7F2FF6800ADF83C004820F3
:103110008DF83F000FA93846FDF7E8FF0B94002417
:10312000ADF834400C20ADF83040ADF83600ADF8C5
:103130003240ADF838400BA93046FEF7F3FE0122CD
:1031400040F224413046FEF7D4FE012240F22661CF
:103150003046FEF7CEFE0122C0213046FEF768FE63
:1031600001213046FEF75AFE27208DF84000062048
:103170008DF8410001268DF842608DF8436010A85B
:10318000FEF7F6FA01210846FEF72EFBDFF89CA0B9
:103190005046FDF781FC234F25483F1D01A90097AC
:1031A00081E831004FF08009CDE9044920200694E0
:1031B000CDE907404FF48058CDE90984694650466F
:1031C000FDF7DFFC01215046FDF75AFCDFF85CA05B
:1031D000AAF1140A5046FDF75FFC10200097CDE9D4
:1031E0000140CDE90364CDE90594CDE90848079491
:1031F000694650460A94FDF7C4FC0D492A4601F57C
:103200008060FDF76DFF0121084600F07BFB094C53
:1032100000216060012000F075FBA06012B0BDE8E5
:10322000F087000000480040000C014030000240E0
:10323000B007002050000020D0E9013201699A60F7
:10324000D0E901235A604A68824201D182684A600B
:10325000002202610868401E0860704700F1080102
:103260004FF0FF32C0E90112C1600161002101602D
:10327000704700210161704730B50C68621C02D0B4
:1032800000F1080202E0026904E01A4653681D6872
:10329000A542FAD953684B6099608A605160086111
:1032A0000168491C016030BD42684A6093688B60C8
:1032B00093685960916008610168491C016070471A
:1032C000502080F31188BFF34F8FBFF36F8F0949F0
:1032D0004868401C486001280AD10748006810F07F
:1032E000FF0F05D04FF4BD7204A10FA0FCF7EABF99
:1032F00070470000E000002004ED00E02E2E5C4648
:1033000072656552544F535C706F727461626C6584
:103310005C525644535C41524D5F434D335C706F79
:1033200072742E63000000004572726F723A25734A
:103330002C25640D0A00000010B5084C606828B9FF
:1033400040F2811206A111A0FCF7BCFF6068401E8C
:10335000606001D180F3118810BD0000E000002002
:103360002E2E5C4672656552544F535C706F7274BA
:1033700061626C655C525644535C41524D5F434DF3
:10338000335C706F72742E63000000004572726FC0
:10339000723A25732C25640D0A00000070B50028D0
:1033A0002AD0164DA0F108046068E968084205D1EA
:1033B0004FF4A07212A11CA0FCF784FF206828B172
:1033C00040F241120EA118A0FCF77CFF6068E9688A
:1033D000084211D02268002A0ED18843606000F0B4
:1033E000F9F960686968084468602046FFF770FB77
:1033F000BDE8704000F04EBF70BD0000C800002066
:103400002E2E5C4672656552544F535C706F727419
:1034100061626C655C4D656D4D616E675C68656190
:10342000705F342E630000004572726F723A25732C
:103430002C25640D0A00000006484FF47A710068DC
:10344000B0FBF1F14FF0E020491E4161072101611D
:10345000704700002800002010B5FCF70DFF104C4D
:1034600010280CD300F1E02090F8F0032178884276
:1034700005D24FF42A720BA115A0FCF723FF1848C0
:103480000068A16800F4E060884207D9BDE81040F8
:103490004FF42E7203A10EA0FCF714BF10BD000064
:1034A000E00000202E2E5C4672656552544F535C3E
:1034B000706F727461626C655C525644535C415229
:1034C0004D5F434D335C706F72742E6300000000DB
:1034D0004572726F723A25732C25640D0A00000044
:1034E0000CED00E010B5074B002253F832401CB140
:1034F000521C082AF9D310BD43F8321003EBC20165
:10350000486010BDBC0B002070B515460E46044641
:10351000FFF7D6FE94F944100020491C01D184F82D
:10352000440094F94510491C01D184F84500FFF787
:1035300003FFA06B28B92A46314604F1240000F0AD
:103540006BF82046BDE87040FFF7D8BC10B504000A
:1035500012D00E49096B29B140F2CF420CA111A043
:10356000FCF7B0FE00F036F900212046FFF7D0F856
:1035700000F090FE002807D10E494FF080500860FF
:10358000BFF34F8FBFF36F8F10BD00007800002096
:103590002E2E5C4672656552544F535C7461736B9A
:1035A000732E63004572726F723A25732C25640D79
:1035B0000A00000004ED00E001490120C8617047E5
:1035C0007800002070B50D46040005D140F60632A3
:1035D00007A10CA0FCF776FE0E48016820461831C2
:1035E000FFF74AFE2846BDE870400121FFF790B87A
:1035F0002E2E5C4672656552544F535C7461736B3A
:10360000732E63004572726F723A25732C25640D18
:103610000A0000007800002070B514460E46050030
:1036200005D140F6313209A10DA0FCF74BFE104840
:10363000016828461831FFF737FE0CB14FF0FF360E
:1036400021463046BDE87040FFF762B82E2E5C463A
:1036500072656552544F535C7461736B732E6300D3
:103660004572726F723A25732C25640D0A000000B2
:103670007800002070B5040039D01D4DE06A29683B
:10368000C96A884233D2A069002804DB2868C06A6E
:10369000C0F12000A061E06A164E00EB8000616975
:1036A00006EB800081421FD1201DFFF7C5FD0121DF
:1036B00050B9E06A00EB800256F8222022B92A694C
:1036C00001FA00F082432A612868C06AE0622A6930
:1036D00081401143296100EB800006EB8000211D31
:1036E000BDE87040FFF7E0BD2868C06AE06270BDC9
:1036F00078000020FC0B002010B5040005D140F636
:10370000C13205A109A0FCF7DDFD0C48016A21606A
:10371000C068606010BD00002E2E5C467265655268
:10372000544F535C7461736B732E63004572726FF8
:10373000723A25732C25640D0A00000078000020E1
:103740001CB517480024CDE900402346822215A16C
:10375000164800F045FC012803D100F047FE01287F
:103760000AD0401C1BD102B040F28472BDE8104068
:103770000FA114A0FCF7A6BD502080F31188BFF361
:103780004F8FBFF36F8F06484FF0FF312C388162A7
:1037900001214161C460BDE81C4000F061B81CBD5E
:1037A000A400002049444C4500000000E92900081D
:1037B0002E2E5C4672656552544F535C7461736B78
:1037C000732E63004572726F723A25732C25640D57
:1037D0000A0000000248016B491C016370470000A9
:1037E0007800002070B5134D286B10B10120E861FE
:1037F00070BD0020E86128690F4EB0FA80F0C0F17A
:103800001F0000EB800456F8240028B940F6F62289
:103810000AA10FA0FCF756FD06EB840000F1080298
:10382000416849684160914201D149684160C86876
:10383000286070BD78000020FC0B00202E2E5C4616
:1038400072656552544F535C7461736B732E6300E1
:103850004572726F723A25732C25640D0A000000C0
:103860001CB51A4908780190FF20087008788DF877
:1038700000009DF80000164A00F05000107007206C
:10388000906007E09068401E90609DF80000400046
:103890008DF800009DF800000006F3D4107A0002B5
:1038A00000F4E0609060019808700A48016841F4F3
:1038B00070010160016841F070410160FFF7BCFDDB
:1038C00000205060FCF7A2FC00201CBD00E400E0DA
:1038D000E000002020ED00E010B5502080F31188BA
:1038E000BFF34F8FBFF36F8F00F0BAFB18B10449DD
:1038F0004FF080500860002080F3118810BD000058
:1039000004ED00E070B50C46050005D140F2BD2283
:103910000AA10FA0FCF7D6FCAC4205D940F2BE22AA
:1039200006A10BA0FCF7CEFC02220021284600F0E5
:1039300029F8002800D0846370BD00002E2E5C465C
:1039400072656552544F535C71756575652E6300E1
:103950004572726F723A25732C25640D0A000000BF
:1039600010B502460021012000F00CF8040007D039
:103970000021416001600B460A46C16000F054F925
:10398000204610BD2DE9F04117460E46050005D131
:103990004FF4C47210A115A0FCF794FCBEB105FB56
:1039A00006F05430FFF7E6FA04000ED004F154009C
:1039B0007EB12060C4E90F562046012100F0E0F8F6
:1039C00084F8507000212046A164BDE8F0810020F9
:1039D000E7E72460EEE700002E2E5C467265655234
:1039E000544F535C71756575652E63004572726F37
:1039F000723A25732C25640D0A0000002DE9FF4F53
:103A000083B09B468A4604004FF0000605D140F281
:103A1000DC4251A155A0FCF755FCBAF1000F07D1CB
:103A2000206C28B140F2DD424BA150A0FCF74AFCCB
:103A300000F002FB38B9059828B14FF49C6246A10A
:103A40004AA0FCF73FFC4FF000094FF08057DFF829
:103A50002C81FFF735FCA56B45B351462046E6683F
:103A6000FEF748FFBBF1000F13D0E660606A50B16B
:103A700004F1240000F0C2FB28B1C8F80070BFF3C5
:103A80004F8FBFF36F8FFFF757FC012007B0BDE8E2
:103A9000F08F6D1EA563206810B9FFF7F5FA60601E
:103AA00020690028EFD004F11000E3E7059808B181
:103AB0001EB106E0FFF740FC27E06846FFF71CFE5A
:103AC0000126FFF739FCFFF785FEFFF7F9FB94F9B4
:103AD0004400401C01D184F8449094F94500401CF6
:103AE00001D184F84590FFF727FC05A9684600F04E
:103AF00033FA002820460AD0FFF700FA00F0CAFB8C
:103B00002046FFF727F80028A3D00020BEE7FFF7E4
:103B100021F8D8B1206830B9FFF7D2FB6068FFF711
:103B2000A9FDFFF709FC04F124000599FFF74AFD00
:103B30002046FFF7E3F900F0ADFB002889D1C8F873
:103B40000070BFF34F8FBFF36F8F82E72046FFF700
:103B5000D5F900F09FFB7CE72E2E5C46726565521E
:103B6000544F535C71756575652E63004572726FB5
:103B7000723A25732C25640D0A00000004ED00E064
:103B800070B50D46040005D140F21B121CA121A006
:103B9000FCF798FBFFF794FBD4E90F20216802FBA8
:103BA000001161600021A1632168A1600A46D4E987
:103BB0000F01401E00FB0121E16021464FF0FF3064
:103BC00001F8440F487004F110004DB1FFF746FBB7
:103BD00004F12400FFF742FBFFF7AEFB012070BDAC
:103BE00021690029F8D000F009FB0028F4D00D4924
:103BF0004FF080500860BFF34F8FBFF36F8FEBE73C
:103C00002E2E5C4672656552544F535C7175657516
:103C1000652E63004572726F723A25732C25640D10
:103C20000A00000004ED00E02DE9FF4F83B0994643
:103C30008B4604004FF0000605D140F2D92252A174
:103C400056A0FCF73FFBBBF1000F07D1206C28B159
:103C500040F2DA224CA151A0FCF734FBB9F1020F7B
:103C600008D1E06B012805D040F2DB2246A14BA031
:103C7000FCF728FB00F0E0F938B9059828B140F2CC
:103C8000DE2241A145A0FCF71DFB4FF0000A4FF0DA
:103C90008057DFF81881FFF713FBA06BE16B8842B8
:103CA00006D3B9F1020F03D0059800B316B325E08F
:103CB0004A4659462046FEF730FEA16C21B14946DE
:103CC0002046FEF755FF05E0616A19B104F12400B2
:103CD00000F094FA28B1C8F80070BFF34F8FBFF31B
:103CE0006F8FFFF729FB012007B0BDE8F08FFFF7CA
:103CF00023FB21E06846FFF7FFFC0126FFF71CFBD2
:103D0000FFF768FDFFF7DCFA94F94400401C01D18D
:103D100084F844A094F94500401C01D184F845A0E2
:103D2000FFF70AFB05A9684600F016F930B12046F6
:103D3000FFF7E4F800F0AEFA0020D5E7FFF7C0FA8D
:103D4000A06BE16B884201D1012500E00025FFF75F
:103D5000F3FA95B104F110000599FFF733FC204602
:103D6000FFF7CCF800F096FA002894D1C8F800705C
:103D7000BFF34F8FBFF36F8F8DE72046FFF7BEF87D
:103D800000F088FA87E700002E2E5C4672656552C7
:103D9000544F535C71756575652E63004572726F83
:103DA000723A25732C25640D0A00000004ED00E032
:103DB0002DE9F047984615468946040005D140F2A2
:103DC0009F322AA12EA0FCF77DFAB9F1000F07D18E
:103DD000206C28B14FF4687224A129A0FCF772FA74
:103DE000B8F1020F08D1E06B012805D040F2A132F2
:103DF0001EA123A0FCF766FAFFF72EFB5020EFF37D
:103E0000118780F31188BFF34F8FBFF36F8FA06BC3
:103E1000E16B884207D3B8F1020F04D0002087F38A
:103E20001188BDE8F08794F945604246494620462E
:103E3000FEF773FD701C04D0761C84F845600120E9
:103E4000EDE7A06C012620B141462046FEF790FE2A
:103E500006E0606A0028F2D004F1240000F0CEF9F8
:103E60000028ECD0002DEAD02E60E8E72E2E5C462C
:103E700072656552544F535C71756575652E6300AC
:103E80004572726F723A25732C25640D0A0000008A
:103E90002DE9F0410D46040005D140F23C4225A138
:103EA00029A0FCF70FFA206C28B14FF4886221A1F9
:103EB00025A0FCF707FA206838B9606828B140F2FD
:103EC00045421CA120A0FCF7FDF9FFF7C5FA5020E0
:103ED000EFF3118680F31188BFF34F8FBFF36F8F1D
:103EE000A16BE06B88421FD994F94500491CA1637E
:103EF000411C04D0401C84F84500012015E0A06C52
:103F0000012720B100212046FEF732FE06E0606A5C
:103F10000028F2D004F1240000F070F90028ECD061
:103F2000002DEAD02F60E8E7002086F31188BDE875
:103F3000F08100002E2E5C4672656552544F535C32
:103F400071756575652E63004572726F723A2573DF
:103F50002C25640D0A00000070B50D46040005D143
:103F600040F6CB3214A119A0FCF7ACF92DB940F6FC
:103F7000CC3211A115A0FCF7A5F9FFF7A1F9174A5A
:103F8000D06829684B1C0FD02368126A934202D074
:103F9000626882420AD96268801A884206D2081A88
:103FA00028602046FFF7A8FB002400E00124FFF76B
:103FB000C3F9204670BD00002E2E5C467265655226
:103FC000544F535C7461736B732E63004572726F50
:103FD000723A25732C25640D0A0000007800002039
:103FE0002DE9FF5F8346DDE90E87994616468A462E
:103FF0009000FEF7BFFF05001AD05C20FEF7BAFF65
:10400000040012D025630021CDE90241CDE90087EB
:104010004B46324651465846FEF7FAFC2046FEF71C
:10402000AFFB012004B0BDE8F09F2846FFF7B6F9CA
:104030004FF0FF30F6E700000548416919B1006B09
:1040400018B100207047012070470220704700001F
:10405000780000200148C068704700007800002008
:104060002DE9F0412D4F0026386B40B1B869401C56
:10407000B861F86900B101263046BDE8F081FD68FD
:104080006D1CFD6011D1786B006828B140F6D91223
:1040900023A128A0FCF716F9786BB96B7963B86394
:1040A000386A401C3862FEF789FEB86ADFF89480EF
:1040B000854209D3786B006880B1786BC068C468AA
:1040C000606885420DD2B8623868C06A00EB800132
:1040D00058F821000128CCD90126CAE74FF0FF305B
:1040E000F1E7201DFFF7A8F8A06A18B104F1180045
:1040F000FFF7A2F8E06A01213A6981401143396172
:1041000000EB800108EB8100211DFFF7CDF8E06A8C
:104110003968C96A8842CDD30126CBE778000020F0
:104120002E2E5C4672656552544F535C7461736BFE
:10413000732E63004572726F723A25732C25640DDD
:104140000A000000FC0B002070B504004FF00006D0
:104150003CD01F4D2868844205D040F6C7621DA19F
:1041600021A0FCF7AFF8206D28B940F6C96219A16B
:104170001DA0FCF7A7F8206D401E2065E26CE16AE7
:10418000914223D010BB201DFFF756F81A49012297
:1041900050B9E06A00EB800351F8233023B92B6952
:1041A00002FA00F083432B61E06CE062C0F1200072
:1041B000A061E06A2B6982401A432A6100EB80000B
:1041C00001EB8000211DFFF76FF80126304670BD1E
:1041D000780000202E2E5C4672656552544F535C69
:1041E0007461736B732E63004572726F723A25733C
:1041F0002C25640D0A000000FC0B00202DE9F04185
:10420000C068C4682CB940F6613216A11AA0FCF748
:1042100059F804F118000746FFF70EF81A4D286BFD
:10422000012660B139461948FFF73EF8E06A29686F
:10423000C96A884213D90120EE61BDE8F081201DD2
:10424000FEF7FAFFE06A2A6906FA00F111432961D4
:104250000F4900EB800001EB8000211DE4E7002006
:10426000EBE700002E2E5C4672656552544F535C9E
:104270007461736B732E63004572726F723A2573AB
:104280002C25640D0A00000078000020A40E0020F8
:10429000FC0B00202DE9F0472B4D00242746286B0E
:1042A00028B94FF4FD6229A12DA0FCF70BF8FFF708
:1042B00007F8286B401E2863286BE8BBA8682C49C8
:1042C0000126C8B3A1F52A798846D8F80010E9B1CB
:1042D000D8F80C00C46804F11800FEF7ADFF201DEB
:1042E000FEF7AAFFE06A2A6906FA00F11143296184
:1042F00000EB800109EB8100211DFEF7D5FFE06A8C
:104300002968C96A8842E0D3EE61DEE70CB1FEF7A6
:1043100055FDAC693CB1FFF7A3FE00B1EE61641E30
:10432000F9D10020A861E86930B1124901273807A6
:104330000860BFF34F8F00E001E0BFF36F8FFEF71F
:10434000FBFF3846BDE8F087780000202E2E5C4643
:1043500072656552544F535C7461736B732E6300C6
:104360004572726F723A25732C25640D0A000000A5
:10437000A40E002004ED00E02DE9F0470746994621
:1043800016460D462C20DDF820A0FEF7F3FD0400B4
:1043900014D0B8464F46D1462DB94FF4C67209A184
:1043A0000EA0FBF78FFFFEF753FA04F11801C4F8D3
:1043B000008081E8E002201DFEF75BFF2046BDE89B
:1043C000F08700002E2E5C4672656552544F535C98
:1043D00074696D6572732E63000000004572726F20
:1043E000723A25732C25640D0A0000001CB50024C8
:1043F000FEF72EFA0C48006868B10B491F20091D12
:10440000CDE9000100234FF4827208A10948FFF7AB
:10441000E7FD040005D140F2331207A10CA0FBF721
:1044200051FF20461CBD0000B4000020546D7220D6
:1044300053766300D52E00082E2E5C4672656552B9
:10444000544F535C74696D6572732E6300000000F5
:104450004572726F723A25732C25640D0A000000B4
:104460002DE9FF47DDF830A0994690460D4606003D
:104470004FF0000705D14FF4D37212A117A0FBF73C
:1044800021FF1A4C206880B1CDE900580296062D14
:1044900011DAFFF7D1FD02284FF0000309D0002206
:1044A00069462068FFF7C0FB074604B03846BDE800
:1044B000F0875246F4E700234A466946FFF778FC46
:1044C000F2E700002E2E5C4672656552544F535C35
:1044D00074696D6572732E63000000004572726F1F
:1044E000723A25732C25640D0A000000B4000020E8
:1044F000303132333435363738394142434445461A
:104500004030580030313233343536373839616213
:104510006364656640307800040000080000000015
:104520000000000200010000100000004C450008DF
:1045300000000020280100006C01000874460008FB
:1045400028010020606500008801000800000000CC
:10455000000000000000000000000000000000005B
:10456000000000000000000000000000000000004B
:104570000000000000A24A0400000000000000004B
:104580000102030406070809000000000000000003
:10459000000000000000000000000000000000001B
:1045A000000000000000000000000000000000000B
:1045B00002040608000000000102030401020304D3
:1045C00006070809000000000000000000000000CD
:1045D00000000000000000000000000000000000DB
:1045E00000000000000000000000000000000000CB
:1045F00000000000000000000000000000000000BB
:1046000000000000000000000000000000000000AA
:10461000000000000000000000000000000000009A
:10462000000000000000000000000000000000008A
:10463000AAAAAAAA00000000000108A12000000008
:10464000000108A320000000000208B520030600B6
:10465000650117A420000000000000000000000019
:10466000000000000000000000000000170305002B
:044670000000030043
:04000005080002816C
:00000001FF
